{
	"data": {
		"bytecode": {
			"linkReferences": {},
			"object": "60806040526000600a55612710600b55600a600c5561012c600d556001600e60006101000a81548160ff0219169083151502179055506001600e60016101000a81548160ff0219169083151502179055506001600e60026101000a81548160ff0219169083151502179055506000600e60036101000a81548160ff0219169083151502179055506000600f5560006011556040518060400160405280600581526020017f2e6a736f6e00000000000000000000000000000000000000000000000000000081525060159081620000d6919062000e2c565b506000601660146101000a81548160ff0219169083151502179055506000601660156101000a81548160ff0219169083151502179055506000601b60006101000a81548160ff0219169083151502179055503480156200013557600080fd5b506040518060400160405280601081526020017f436f6e747261637454656d706c617465000000000000000000000000000000008152506040518060400160405280600381526020017f544d500000000000000000000000000000000000000000000000000000000000815250620001c2620001b6620002cc60201b60201c565b620002d460201b60201c565b8160039081620001d3919062000e2c565b508060049081620001e5919062000e2c565b50620001f66200039860201b60201c565b6001819055505050620002136000801b33620003a160201b60201c565b620002457f9f2df0fed2c77648de5860a4cc508cd0818c85b8b8a1ab4ceeef8d981c8956a633620003a160201b60201c565b620002777f3a2f235c9daaf33349d300aadff2f15078a89df81bcfdd45ba11c8f816bddc6f33620003a160201b60201c565b620002a160405180606001604052806025815260200162007bfc60259139620003b760201b60201c565b620002b4336005620003dc60201b60201c565b620002c660016200040260201b60201c565b620011e0565b600033905090565b60008060009054906101000a900473ffffffffffffffffffffffffffffffffffffffff169050816000806101000a81548173ffffffffffffffffffffffffffffffffffffffff021916908373ffffffffffffffffffffffffffffffffffffffff1602179055508173ffffffffffffffffffffffffffffffffffffffff168173ffffffffffffffffffffffffffffffffffffffff167f8be0079c531659141344cd1fd0a4f28419497f9722a3daafe3b4186f6b6457e060405160405180910390a35050565b60006001905090565b620003b382826200042f60201b60201c565b5050565b620003c76200052160201b60201c565b8060149081620003d8919062000e2c565b5050565b620003fe828260405180602001604052806000815250620005b260201b60201c565b5050565b620004126200052160201b60201c565b80601b60006101000a81548160ff02191690831515021790555050565b6200044182826200066460201b60201c565b6200051d5760016009600084815260200190815260200160002060000160008373ffffffffffffffffffffffffffffffffffffffff1673ffffffffffffffffffffffffffffffffffffffff16815260200190815260200160002060006101000a81548160ff021916908315150217905550620004c2620002cc60201b60201c565b73ffffffffffffffffffffffffffffffffffffffff168173ffffffffffffffffffffffffffffffffffffffff16837f2f8788117e7eff1d82e926ec794901d17c78024a50270940304540a733656f0d60405160405180910390a45b5050565b62000531620002cc60201b60201c565b73ffffffffffffffffffffffffffffffffffffffff1662000557620006cf60201b60201c565b73ffffffffffffffffffffffffffffffffffffffff1614620005b0576040517f08c379a0000000000000000000000000000000000000000000000000000000008152600401620005a79062000f74565b60405180910390fd5b565b620005c48383620006f860201b60201c565b60008373ffffffffffffffffffffffffffffffffffffffff163b146200065f5760006001549050600083820390505b6200060e6000868380600101945086620008e060201b60201c565b62000645576040517fd1a57ed600000000000000000000000000000000000000000000000000000000815260040160405180910390fd5b818110620005f35781600154146200065c57600080fd5b50505b505050565b60006009600084815260200190815260200160002060000160008373ffffffffffffffffffffffffffffffffffffffff1673ffffffffffffffffffffffffffffffffffffffff16815260200190815260200160002060009054906101000a900460ff16905092915050565b60008060009054906101000a900473ffffffffffffffffffffffffffffffffffffffff16905090565b60006001549050600082036200073a576040517fb562e8dd00000000000000000000000000000000000000000000000000000000815260040160405180910390fd5b6200074f600084838562000a4160201b60201c565b600160406001901b178202600660008573ffffffffffffffffffffffffffffffffffffffff1673ffffffffffffffffffffffffffffffffffffffff16815260200190815260200160002060008282540192505081905550620007de83620007c0600086600062000b2a60201b60201c565b620007d18562000b5a60201b60201c565b1762000b6a60201b60201c565b6005600083815260200190815260200160002081905550600080838301905073ffffffffffffffffffffffffffffffffffffffff85169150828260007fddf252ad1be2c89b69c2b068fc378daa952ba7f163c4a11628f55a4df523b3ef600080a4600183015b8181146200088157808360007fddf252ad1be2c89b69c2b068fc378daa952ba7f163c4a11628f55a4df523b3ef600080a460018101905062000844565b5060008203620008bd576040517f2e07630000000000000000000000000000000000000000000000000000000000815260040160405180910390fd5b806001819055505050620008db600084838562000b9560201b60201c565b505050565b60008373ffffffffffffffffffffffffffffffffffffffff1663150b7a026200090e62000b9b60201b60201c565b8786866040518563ffffffff1660e01b815260040162000932949392919062001086565b6020604051808303816000875af19250505080156200097157506040513d601f19601f820116820180604052508101906200096e91906200113c565b60015b620009ee573d8060008114620009a4576040519150601f19603f3d011682016040523d82523d6000602084013e620009a9565b606091505b506000815103620009e6576040517fd1a57ed600000000000000000000000000000000000000000000000000000000815260040160405180910390fd5b805181602001fd5b63150b7a0260e01b7bffffffffffffffffffffffffffffffffffffffffffffffffffffffff1916817bffffffffffffffffffffffffffffffffffffffffffffffffffffffff191614915050949350505050565b60001515601b60009054906101000a900460ff161515148062000a905750600073ffffffffffffffffffffffffffffffffffffffff168473ffffffffffffffffffffffffffffffffffffffff16145b8062000ac9575061dead73ffffffffffffffffffffffffffffffffffffffff168373ffffffffffffffffffffffffffffffffffffffff16145b62000b0b576040517f08c379a000000000000000000000000000000000000000000000000000000000815260040162000b0290620011be565b60405180910390fd5b62000b248484848462000ba360201b6200311c1760201c565b50505050565b60008060e883901c905060e862000b4986868462000ba960201b60201c565b62ffffff16901b9150509392505050565b60006001821460e11b9050919050565b600073ffffffffffffffffffffffffffffffffffffffff83169250814260a01b178317905092915050565b50505050565b600033905090565b50505050565b60009392505050565b600081519050919050565b7f4e487b7100000000000000000000000000000000000000000000000000000000600052604160045260246000fd5b7f4e487b7100000000000000000000000000000000000000000000000000000000600052602260045260246000fd5b6000600282049050600182168062000c3457607f821691505b60208210810362000c4a5762000c4962000bec565b5b50919050565b60008190508160005260206000209050919050565b60006020601f8301049050919050565b600082821b905092915050565b60006008830262000cb47fffffffffffffffffffffffffffffffffffffffffffffffffffffffffffffffff8262000c75565b62000cc0868362000c75565b95508019841693508086168417925050509392505050565b6000819050919050565b6000819050919050565b600062000d0d62000d0762000d018462000cd8565b62000ce2565b62000cd8565b9050919050565b6000819050919050565b62000d298362000cec565b62000d4162000d388262000d14565b84845462000c82565b825550505050565b600090565b62000d5862000d49565b62000d6581848462000d1e565b505050565b5b8181101562000d8d5762000d8160008262000d4e565b60018101905062000d6b565b5050565b601f82111562000ddc5762000da68162000c50565b62000db18462000c65565b8101602085101562000dc1578190505b62000dd962000dd08562000c65565b83018262000d6a565b50505b505050565b600082821c905092915050565b600062000e016000198460080262000de1565b1980831691505092915050565b600062000e1c838362000dee565b9150826002028217905092915050565b62000e378262000bb2565b67ffffffffffffffff81111562000e535762000e5262000bbd565b5b62000e5f825462000c1b565b62000e6c82828562000d91565b600060209050601f83116001811462000ea4576000841562000e8f578287015190505b62000e9b858262000e0e565b86555062000f0b565b601f19841662000eb48662000c50565b60005b8281101562000ede5784890151825560018201915060208501945060208101905062000eb7565b8683101562000efe578489015162000efa601f89168262000dee565b8355505b6001600288020188555050505b505050505050565b600082825260208201905092915050565b7f4f776e61626c653a2063616c6c6572206973206e6f7420746865206f776e6572600082015250565b600062000f5c60208362000f13565b915062000f698262000f24565b602082019050919050565b6000602082019050818103600083015262000f8f8162000f4d565b9050919050565b600073ffffffffffffffffffffffffffffffffffffffff82169050919050565b600062000fc38262000f96565b9050919050565b62000fd58162000fb6565b82525050565b62000fe68162000cd8565b82525050565b600081519050919050565b600082825260208201905092915050565b60005b83811015620010285780820151818401526020810190506200100b565b60008484015250505050565b6000601f19601f8301169050919050565b6000620010528262000fec565b6200105e818562000ff7565b93506200107081856020860162001008565b6200107b8162001034565b840191505092915050565b60006080820190506200109d600083018762000fca565b620010ac602083018662000fca565b620010bb604083018562000fdb565b8181036060830152620010cf818462001045565b905095945050505050565b600080fd5b60007fffffffff0000000000000000000000000000000000000000000000000000000082169050919050565b6200111681620010df565b81146200112257600080fd5b50565b60008151905062001136816200110b565b92915050565b600060208284031215620011555762001154620010da565b5b6000620011658482850162001125565b91505092915050565b7f7472616e736665722069732070726f6869626974656400000000000000000000600082015250565b6000620011a660168362000f13565b9150620011b3826200116e565b602082019050919050565b60006020820190508181036000830152620011d98162001197565b9050919050565b616a0c80620011f06000396000f3fe6080604052600436106104725760003560e01c8063715018a61161024a578063ba6269c611610139578063d6dfad76116100b6578063e985e9c51161007a578063e985e9c514611113578063f138abfa14611150578063f2fde38b14611179578063f48824db146111a2578063fcd1aac9146111df57610472565b8063d6dfad7614611044578063d728312a1461106f578063da3ef23f14611098578063ddecc4d0146110c1578063e39e0269146110ea57610472565b8063c87b56dd116100fd578063c87b56dd14610f4b578063d04f32d214610f88578063d539139314610fc5578063d547741f14610ff0578063d5abeb011461101957610472565b8063ba6269c614610e76578063bbb8974414610ea1578063bedb86fb14610ecc578063c668286214610ef5578063c84c038714610f2057610472565b80639659867e116101c7578063a72193b61161018b578063a72193b614610db2578063a9e2acd514610ddd578063aabb9a8614610e06578063b5f94d0614610e31578063b88d4fde14610e5a57610472565b80639659867e14610cee578063981eb34414610d1957806399f9889814610d42578063a217fddf14610d5e578063a22cb46514610d8957610472565b80638da5cb5b1161020e5780638da5cb5b14610c075780638e73cf0014610c3257806391d1485414610c5b578063942c927314610c9857806395d89b4114610cc357610472565b8063715018a614610b4857806373ef64fd14610b5f5780637cb6475914610b8a5780637ee3b2ac14610bb3578063877984cb14610bdc57610472565b80633511cd54116103665780635978c012116102e35780636b1a2b7f116102a75780636b1a2b7f14610a725780636b8ee0ec14610a8e5780636c0360eb14610ab75780636f8b44b014610ae257806370a0823114610b0b57610472565b80635978c0121461098d578063599487c3146109b65780635c975abb146109df5780636352211e14610a0a578063674c02aa14610a4757610472565b806344a0d68a1161032a57806344a0d68a1461089857806347705cbc146108c1578063499a15d4146108fe5780634e6bf2041461093b57806355f804b31461096457610472565b80633511cd54146107e157806336568abe1461081e5780633ccfd60b146108475780633cf40df31461085157806342842e0e1461087c57610472565b806317dc10c4116103f4578063248a9ca3116103b8578063248a9ca3146106fc578063279a669e14610739578063282c51f3146107625780632eb4a7ab1461078d5780632f2ff15d146107b857610472565b806317dc10c41461063857806318160ddd146106615780631e0fbfa21461068c57806323b872dd146106b757806323c03085146106d357610472565b8063081812fc1161043b578063081812fc1461055e578063095ea7b31461059b578063135d088d146105b757806313faede6146105e25780631581b6001461060d57610472565b806285bb6f1461047757806301340a32146104a257806301ffc9a7146104cd57806304787ca21461050a57806306fdde0314610533575b600080fd5b34801561048357600080fd5b5061048c611208565b60405161049991906147da565b60405180910390f35b3480156104ae57600080fd5b506104b761121b565b6040516104c49190614885565b60405180910390f35b3480156104d957600080fd5b506104f460048036038101906104ef9190614913565b6112a9565b60405161050191906147da565b60405180910390f35b34801561051657600080fd5b50610531600480360381019061052c9190614a75565b6112cb565b005b34801561053f57600080fd5b506105486112e6565b6040516105559190614885565b60405180910390f35b34801561056a57600080fd5b5061058560048036038101906105809190614af4565b611378565b6040516105929190614b62565b60405180910390f35b6105b560048036038101906105b09190614ba9565b6113f7565b005b3480156105c357600080fd5b506105cc61145b565b6040516105d99190614885565b60405180910390f35b3480156105ee57600080fd5b506105f76114e9565b6040516106049190614bf8565b60405180910390f35b34801561061957600080fd5b506106226114ef565b60405161062f9190614b62565b60405180910390f35b34801561064457600080fd5b5061065f600480360381019061065a9190614c3f565b611507565b005b34801561066d57600080fd5b5061067661152c565b6040516106839190614bf8565b60405180910390f35b34801561069857600080fd5b506106a1611543565b6040516106ae9190614c85565b60405180910390f35b6106d160048036038101906106cc9190614ca0565b611567565b005b3480156106df57600080fd5b506106fa60048036038101906106f59190614cf3565b611889565b005b34801561070857600080fd5b50610723600480360381019061071e9190614d4c565b6118d5565b6040516107309190614c85565b60405180910390f35b34801561074557600080fd5b50610760600480360381019061075b9190614e9c565b6118f5565b005b34801561076e57600080fd5b50610777611ab2565b6040516107849190614c85565b60405180910390f35b34801561079957600080fd5b506107a2611ad6565b6040516107af9190614c85565b60405180910390f35b3480156107c457600080fd5b506107df60048036038101906107da9190614f18565b611adc565b005b3480156107ed57600080fd5b5061080860048036038101906108039190614f58565b611afd565b6040516108159190614bf8565b60405180910390f35b34801561082a57600080fd5b5061084560048036038101906108409190614f18565b611b58565b005b61084f611bdb565b005b34801561085d57600080fd5b50610866611c70565b60405161087391906147da565b60405180910390f35b61089660048036038101906108919190614ca0565b611c83565b005b3480156108a457600080fd5b506108bf60048036038101906108ba9190614af4565b611ca3565b005b3480156108cd57600080fd5b506108e860048036038101906108e39190614cf3565b611cb5565b6040516108f59190614bf8565b60405180910390f35b34801561090a57600080fd5b5061092560048036038101906109209190614f58565b611d11565b6040516109329190614bf8565b60405180910390f35b34801561094757600080fd5b50610962600480360381019061095d919061505b565b611d36565b005b34801561097057600080fd5b5061098b60048036038101906109869190614a75565b611dfa565b005b34801561099957600080fd5b506109b460048036038101906109af91906150e6565b611e15565b005b3480156109c257600080fd5b506109dd60048036038101906109d89190614a75565b611f40565b005b3480156109eb57600080fd5b506109f4611f5b565b604051610a0191906147da565b60405180910390f35b348015610a1657600080fd5b50610a316004803603810190610a2c9190614af4565b611f6e565b604051610a3e9190614b62565b60405180910390f35b348015610a5357600080fd5b50610a5c611f80565b604051610a6991906147da565b60405180910390f35b610a8c6004803603810190610a879190615185565b611f93565b005b348015610a9a57600080fd5b50610ab56004803603810190610ab09190614c3f565b61258c565b005b348015610ac357600080fd5b50610acc6125b1565b604051610ad99190614885565b60405180910390f35b348015610aee57600080fd5b50610b096004803603810190610b049190614af4565b61263f565b005b348015610b1757600080fd5b50610b326004803603810190610b2d9190614cf3565b612651565b604051610b3f9190614bf8565b60405180910390f35b348015610b5457600080fd5b50610b5d612709565b005b348015610b6b57600080fd5b50610b7461271d565b604051610b819190614bf8565b60405180910390f35b348015610b9657600080fd5b50610bb16004803603810190610bac9190614d4c565b612723565b005b348015610bbf57600080fd5b50610bda6004803603810190610bd59190614af4565b612735565b005b348015610be857600080fd5b50610bf1612795565b604051610bfe919061526c565b60405180910390f35b348015610c1357600080fd5b50610c1c6127bb565b604051610c299190614b62565b60405180910390f35b348015610c3e57600080fd5b50610c596004803603810190610c549190614c3f565b6127e4565b005b348015610c6757600080fd5b50610c826004803603810190610c7d9190614f18565b612809565b604051610c8f91906147da565b60405180910390f35b348015610ca457600080fd5b50610cad612874565b604051610cba9190614885565b60405180910390f35b348015610ccf57600080fd5b50610cd8612902565b604051610ce59190614885565b60405180910390f35b348015610cfa57600080fd5b50610d03612994565b604051610d1091906147da565b60405180910390f35b348015610d2557600080fd5b50610d406004803603810190610d3b9190614a75565b6129a7565b005b610d5c6004803603810190610d579190614ba9565b6129c2565b005b348015610d6a57600080fd5b50610d73612a9c565b604051610d809190614c85565b60405180910390f35b348015610d9557600080fd5b50610db06004803603810190610dab9190615287565b612aa3565b005b348015610dbe57600080fd5b50610dc7612b07565b604051610dd49190614bf8565b60405180910390f35b348015610de957600080fd5b50610e046004803603810190610dff9190614af4565b612b0d565b005b348015610e1257600080fd5b50610e1b612b1f565b604051610e289190614885565b60405180910390f35b348015610e3d57600080fd5b50610e586004803603810190610e539190614af4565b612bad565b005b610e746004803603810190610e6f9190615368565b612bbf565b005b348015610e8257600080fd5b50610e8b612c32565b604051610e9891906147da565b60405180910390f35b348015610ead57600080fd5b50610eb6612c45565b604051610ec39190614bf8565b60405180910390f35b348015610ed857600080fd5b50610ef36004803603810190610eee9190614c3f565b612c4b565b005b348015610f0157600080fd5b50610f0a612c70565b604051610f179190614885565b60405180910390f35b348015610f2c57600080fd5b50610f35612cfe565b604051610f429190614bf8565b60405180910390f35b348015610f5757600080fd5b50610f726004803603810190610f6d9190614af4565b612d04565b604051610f7f9190614885565b60405180910390f35b348015610f9457600080fd5b50610faf6004803603810190610faa9190614cf3565b612e6f565b604051610fbc9190614bf8565b60405180910390f35b348015610fd157600080fd5b50610fda612ecb565b604051610fe79190614c85565b60405180910390f35b348015610ffc57600080fd5b5061101760048036038101906110129190614f18565b612eef565b005b34801561102557600080fd5b5061102e612f10565b60405161103b9190614bf8565b60405180910390f35b34801561105057600080fd5b50611059612f16565b60405161106691906147da565b60405180910390f35b34801561107b57600080fd5b5061109660048036038101906110919190614af4565b612f29565b005b3480156110a457600080fd5b506110bf60048036038101906110ba9190614a75565b612f3b565b005b3480156110cd57600080fd5b506110e860048036038101906110e39190614a75565b612f56565b005b3480156110f657600080fd5b50611111600480360381019061110c9190614c3f565b612f71565b005b34801561111f57600080fd5b5061113a600480360381019061113591906153eb565b612f96565b60405161114791906147da565b60405180910390f35b34801561115c57600080fd5b5061117760048036038101906111729190614c3f565b61302a565b005b34801561118557600080fd5b506111a0600480360381019061119b9190614cf3565b61304f565b005b3480156111ae57600080fd5b506111c960048036038101906111c49190614f58565b6130d2565b6040516111d69190614bf8565b60405180910390f35b3480156111eb57600080fd5b5061120660048036038101906112019190614c3f565b6130f7565b005b600e60039054906101000a900460ff1681565b601a80546112289061545a565b80601f01602080910402602001604051908101604052809291908181526020018280546112549061545a565b80156112a15780601f10611276576101008083540402835291602001916112a1565b820191906000526020600020905b81548152906001019060200180831161128457829003601f168201915b505050505081565b60006112b482613122565b806112c457506112c38261319c565b5b9050919050565b6112d361322e565b80601790816112e2919061562d565b5050565b6060600380546112f59061545a565b80601f01602080910402602001604051908101604052809291908181526020018280546113219061545a565b801561136e5780601f106113435761010080835404028352916020019161136e565b820191906000526020600020905b81548152906001019060200180831161135157829003601f168201915b5050505050905090565b6000611383826132ac565b6113b9576040517fcf4700e400000000000000000000000000000000000000000000000000000000815260040160405180910390fd5b6007600083815260200190815260200160002060000160009054906101000a900473ffffffffffffffffffffffffffffffffffffffff169050919050565b60001515601b60009054906101000a900460ff1615151461144d576040517f08c379a00000000000000000000000000000000000000000000000000000000081526004016114449061574b565b60405180910390fd5b611457828261330b565b5050565b601780546114689061545a565b80601f01602080910402602001604051908101604052809291908181526020018280546114949061545a565b80156114e15780601f106114b6576101008083540402835291602001916114e1565b820191906000526020600020905b8154815290600101906020018083116114c457829003601f168201915b505050505081565b600a5481565b73decf4b112d4120b6998e5020a6b4819e490f7db681565b61150f61322e565b80600e60016101000a81548160ff02191690831515021790555050565b600061153661344f565b6002546001540303905090565b7f3a2f235c9daaf33349d300aadff2f15078a89df81bcfdd45ba11c8f816bddc6f81565b600061157282613458565b90508373ffffffffffffffffffffffffffffffffffffffff168173ffffffffffffffffffffffffffffffffffffffff16146115d9576040517fa114810000000000000000000000000000000000000000000000000000000000815260040160405180910390fd5b6000806115e584613524565b915091506115fb81876115f661354b565b613553565b611647576116108661160b61354b565b612f96565b611646576040517f59c896be00000000000000000000000000000000000000000000000000000000815260040160405180910390fd5b5b600073ffffffffffffffffffffffffffffffffffffffff168573ffffffffffffffffffffffffffffffffffffffff16036116ad576040517fea553b3400000000000000000000000000000000000000000000000000000000815260040160405180910390fd5b6116ba8686866001613597565b80156116c557600082555b600660008773ffffffffffffffffffffffffffffffffffffffff1673ffffffffffffffffffffffffffffffffffffffff168152602001908152602001600020600081546001900391905081905550600660008673ffffffffffffffffffffffffffffffffffffffff1673ffffffffffffffffffffffffffffffffffffffff16815260200190815260200160002060008154600101919050819055506117938561176f88888761366e565b7c020000000000000000000000000000000000000000000000000000000017613696565b600560008681526020019081526020016000208190555060007c02000000000000000000000000000000000000000000000000000000008416036118195760006001850190506000600560008381526020019081526020016000205403611817576001548114611816578360056000838152602001908152602001600020819055505b5b505b838573ffffffffffffffffffffffffffffffffffffffff168773ffffffffffffffffffffffffffffffffffffffff167fddf252ad1be2c89b69c2b068fc378daa952ba7f163c4a11628f55a4df523b3ef60405160405180910390a461188186868660016136c1565b505050505050565b61189161322e565b80601660006101000a81548173ffffffffffffffffffffffffffffffffffffffff021916908373ffffffffffffffffffffffffffffffffffffffff16021790555050565b600060096000838152602001908152602001600020600101549050919050565b61191f7f3a2f235c9daaf33349d300aadff2f15078a89df81bcfdd45ba11c8f816bddc6f33612809565b61195e576040517f08c379a0000000000000000000000000000000000000000000000000000000008152600401611955906157b7565b60405180910390fd5b6000805b82518110156119a65782818151811061197e5761197d6157d7565b5b6020026020010151826119919190615835565b9150808061199e90615869565b915050611962565b50806000106119ea576040517f08c379a00000000000000000000000000000000000000000000000000000000081526004016119e1906158fd565b60405180910390fd5b600b54816119f661152c565b611a009190615835565b1115611a41576040517f08c379a0000000000000000000000000000000000000000000000000000000008152600401611a3890615969565b60405180910390fd5b60005b8251811015611aab57611a98858583818110611a6357611a626157d7565b5b9050602002016020810190611a789190614cf3565b848381518110611a8b57611a8a6157d7565b5b60200260200101516136c7565b8080611aa390615869565b915050611a44565b5050505050565b7f3c11d16cbaffd01df69ce1c404f6340ee057498f5f00246190ea54220576a84881565b60105481565b611ae5826118d5565b611aee816136e5565b611af883836136f9565b505050565b60006012600084815260200190815260200160002060008373ffffffffffffffffffffffffffffffffffffffff1673ffffffffffffffffffffffffffffffffffffffff16815260200190815260200160002054905092915050565b611b606137da565b73ffffffffffffffffffffffffffffffffffffffff168173ffffffffffffffffffffffffffffffffffffffff1614611bcd576040517f08c379a0000000000000000000000000000000000000000000000000000000008152600401611bc4906159fb565b60405180910390fd5b611bd782826137e2565b5050565b611be361322e565b600073decf4b112d4120b6998e5020a6b4819e490f7db673ffffffffffffffffffffffffffffffffffffffff1647604051611c1d90615a4c565b60006040518083038185875af1925050503d8060008114611c5a576040519150601f19603f3d011682016040523d82523d6000602084013e611c5f565b606091505b5050905080611c6d57600080fd5b50565b601b60009054906101000a900460ff1681565b611c9e83838360405180602001604052806000815250612bbf565b505050565b611cab61322e565b80600a8190555050565b600060126000601154815260200190815260200160002060008373ffffffffffffffffffffffffffffffffffffffff1673ffffffffffffffffffffffffffffffffffffffff168152602001908152602001600020549050919050565b6013602052816000526040600020602052806000526040600020600091509150505481565b611d3e61322e565b8051825114611d4c57600080fd5b60005b8251811015611df457818181518110611d6b57611d6a6157d7565b5b6020026020010151601360008681526020019081526020016000206000858481518110611d9b57611d9a6157d7565b5b602002602001015173ffffffffffffffffffffffffffffffffffffffff1673ffffffffffffffffffffffffffffffffffffffff168152602001908152602001600020819055508080611dec90615869565b915050611d4f565b50505050565b611e0261322e565b8060149081611e11919061562d565b5050565b611e3f7f3c11d16cbaffd01df69ce1c404f6340ee057498f5f00246190ea54220576a84833612809565b611e7e576040517f08c379a0000000000000000000000000000000000000000000000000000000008152600401611e7590615aad565b60405180910390fd5b60005b8151811015611f3c576000828281518110611e9f57611e9e6157d7565b5b60200260200101519050611eb281611f6e565b73ffffffffffffffffffffffffffffffffffffffff163373ffffffffffffffffffffffffffffffffffffffff1614611f1f576040517f08c379a0000000000000000000000000000000000000000000000000000000008152600401611f1690615b19565b60405180910390fd5b611f28816138c4565b508080611f3490615869565b915050611e81565b5050565b611f4861322e565b8060199081611f57919061562d565b5050565b600e60009054906101000a900460ff1681565b6000611f7982613458565b9050919050565b600e60019054906101000a900460ff1681565b3373ffffffffffffffffffffffffffffffffffffffff163273ffffffffffffffffffffffffffffffffffffffff1614612001576040517f08c379a0000000000000000000000000000000000000000000000000000000008152600401611ff890615b85565b60405180910390fd5b600e60009054906101000a900460ff1615612051576040517f08c379a000000000000000000000000000000000000000000000000000000000815260040161204890615bf1565b60405180910390fd5b84600010612094576040517f08c379a000000000000000000000000000000000000000000000000000000000815260040161208b906158fd565b60405180910390fd5b600c548511156120d9576040517f08c379a00000000000000000000000000000000000000000000000000000000081526004016120d090615c83565b60405180910390fd5b600b548560016120e76138d2565b6120f19190615ca3565b6120fb9190615835565b111561213c576040517f08c379a000000000000000000000000000000000000000000000000000000000815260040161213390615969565b60405180910390fd5b3485600a5461214b9190615cd7565b111561218c576040517f08c379a000000000000000000000000000000000000000000000000000000000815260040161218390615d65565b60405180910390fd5b600060011515600e60019054906101000a900460ff16151503612371576000600f540361227657600033866040516020016121c8929190615dee565b60405160208183030381529060405280519060200120905061222e858580806020026020016040519081016040528093929190818152602001838360200280828437600081840152601f19601f82011690508083019250505050505050601054836138dc565b61226d576040517f08c379a000000000000000000000000000000000000000000000000000000000815260040161226490615e66565b60405180910390fd5b8591505061236c565b6001600f540361236b57600060136000601154815260200190815260200160002060003373ffffffffffffffffffffffffffffffffffffffff1673ffffffffffffffffffffffffffffffffffffffff1681526020019081526020016000205403612315576040517f08c379a000000000000000000000000000000000000000000000000000000000815260040161230c90615e66565b60405180910390fd5b60136000601154815260200190815260200160002060003373ffffffffffffffffffffffffffffffffffffffff1673ffffffffffffffffffffffffffffffffffffffff1681526020019081526020016000205490505b5b612377565b600d5490505b60011515600e60029054906101000a900460ff1615150361249c5760126000601154815260200190815260200160002060003373ffffffffffffffffffffffffffffffffffffffff1673ffffffffffffffffffffffffffffffffffffffff16815260200190815260200160002054816123f09190615ca3565b861115612432576040517f08c379a000000000000000000000000000000000000000000000000000000000815260040161242990615ed2565b60405180910390fd5b8560126000601154815260200190815260200160002060003373ffffffffffffffffffffffffffffffffffffffff1673ffffffffffffffffffffffffffffffffffffffff16815260200190815260200160002060008282546124949190615835565b925050819055505b60011515600e60039054906101000a900460ff1615150361257a57600186146124fa576040517f08c379a00000000000000000000000000000000000000000000000000000000081526004016124f190615f15565b60405180910390fd5b61250382611f6e565b73ffffffffffffffffffffffffffffffffffffffff163373ffffffffffffffffffffffffffffffffffffffff1614612570576040517f08c379a000000000000000000000000000000000000000000000000000000000815260040161256790615b19565b60405180910390fd5b612579826138c4565b5b61258433876136c7565b505050505050565b61259461322e565b80601660156101000a81548160ff02191690831515021790555050565b601480546125be9061545a565b80601f01602080910402602001604051908101604052809291908181526020018280546125ea9061545a565b80156126375780601f1061260c57610100808354040283529160200191612637565b820191906000526020600020905b81548152906001019060200180831161261a57829003601f168201915b505050505081565b61264761322e565b80600b8190555050565b60008073ffffffffffffffffffffffffffffffffffffffff168273ffffffffffffffffffffffffffffffffffffffff16036126b8576040517f8f4eb60400000000000000000000000000000000000000000000000000000000815260040160405180910390fd5b67ffffffffffffffff600660008473ffffffffffffffffffffffffffffffffffffffff1673ffffffffffffffffffffffffffffffffffffffff16815260200190815260200160002054169050919050565b61271161322e565b61271b60006138f3565b565b600d5481565b61272b61322e565b8060108190555050565b61273d61322e565b600081148061274c5750600181145b61278b576040517f08c379a000000000000000000000000000000000000000000000000000000000815260040161278290615f81565b60405180910390fd5b80600f8190555050565b601660009054906101000a900473ffffffffffffffffffffffffffffffffffffffff1681565b60008060009054906101000a900473ffffffffffffffffffffffffffffffffffffffff16905090565b6127ec61322e565b80600e60026101000a81548160ff02191690831515021790555050565b60006009600084815260200190815260200160002060000160008373ffffffffffffffffffffffffffffffffffffffff1673ffffffffffffffffffffffffffffffffffffffff16815260200190815260200160002060009054906101000a900460ff16905092915050565b601980546128819061545a565b80601f01602080910402602001604051908101604052809291908181526020018280546128ad9061545a565b80156128fa5780601f106128cf576101008083540402835291602001916128fa565b820191906000526020600020905b8154815290600101906020018083116128dd57829003601f168201915b505050505081565b6060600480546129119061545a565b80601f016020809104026020016040519081016040528092919081815260200182805461293d9061545a565b801561298a5780601f1061295f5761010080835404028352916020019161298a565b820191906000526020600020905b81548152906001019060200180831161296d57829003601f168201915b5050505050905090565b600e60029054906101000a900460ff1681565b6129af61322e565b80601890816129be919061562d565b5050565b6129ec7f9f2df0fed2c77648de5860a4cc508cd0818c85b8b8a1ab4ceeef8d981c8956a633612809565b612a2b576040517f08c379a0000000000000000000000000000000000000000000000000000000008152600401612a2290615fed565b60405180910390fd5b600b54816001612a396138d2565b612a439190615ca3565b612a4d9190615835565b1115612a8e576040517f08c379a0000000000000000000000000000000000000000000000000000000008152600401612a8590615969565b60405180910390fd5b612a9882826136c7565b5050565b6000801b81565b60001515601b60009054906101000a900460ff16151514612af9576040517f08c379a0000000000000000000000000000000000000000000000000000000008152600401612af090616059565b60405180910390fd5b612b0382826139b7565b5050565b600f5481565b612b1561322e565b80600c8190555050565b60188054612b2c9061545a565b80601f0160208091040260200160405190810160405280929190818152602001828054612b589061545a565b8015612ba55780601f10612b7a57610100808354040283529160200191612ba5565b820191906000526020600020905b815481529060010190602001808311612b8857829003601f168201915b505050505081565b612bb561322e565b80600d8190555050565b612bca848484611567565b60008373ffffffffffffffffffffffffffffffffffffffff163b14612c2c57612bf584848484613ac2565b612c2b576040517fd1a57ed600000000000000000000000000000000000000000000000000000000815260040160405180910390fd5b5b50505050565b601660149054906101000a900460ff1681565b600c5481565b612c5361322e565b80600e60006101000a81548160ff02191690831515021790555050565b60158054612c7d9061545a565b80601f0160208091040260200160405190810160405280929190818152602001828054612ca99061545a565b8015612cf65780601f10612ccb57610100808354040283529160200191612cf6565b820191906000526020600020905b815481529060010190602001808311612cd957829003601f168201915b505050505081565b60115481565b606060011515601660149054906101000a900460ff16151503612dc957601660009054906101000a900473ffffffffffffffffffffffffffffffffffffffff1673ffffffffffffffffffffffffffffffffffffffff1663c87b56dd836040518263ffffffff1660e01b8152600401612d7c9190614bf8565b600060405180830381865afa158015612d99573d6000803e3d6000fd5b505050506040513d6000823e3d601f19601f82011682018060405250810190612dc291906160e9565b9050612e6a565b60011515601660159054906101000a900460ff16151503612e3c57612e16601860196017601a604051602001612e0294939291906163fa565b604051602081830303815290604052613c12565b604051602001612e269190616518565b6040516020818303038152906040529050612e6a565b612e4582613d8a565b6015604051602001612e5892919061653a565b60405160208183030381529060405290505b919050565b600060136000601154815260200190815260200160002060008373ffffffffffffffffffffffffffffffffffffffff1673ffffffffffffffffffffffffffffffffffffffff168152602001908152602001600020549050919050565b7f9f2df0fed2c77648de5860a4cc508cd0818c85b8b8a1ab4ceeef8d981c8956a681565b612ef8826118d5565b612f01816136e5565b612f0b83836137e2565b505050565b600b5481565b601660159054906101000a900460ff1681565b612f3161322e565b8060118190555050565b612f4361322e565b8060159081612f52919061562d565b5050565b612f5e61322e565b80601a9081612f6d919061562d565b5050565b612f7961322e565b80600e60036101000a81548160ff02191690831515021790555050565b6000600860008473ffffffffffffffffffffffffffffffffffffffff1673ffffffffffffffffffffffffffffffffffffffff16815260200190815260200160002060008373ffffffffffffffffffffffffffffffffffffffff1673ffffffffffffffffffffffffffffffffffffffff16815260200190815260200160002060009054906101000a900460ff16905092915050565b61303261322e565b80601660146101000a81548160ff02191690831515021790555050565b61305761322e565b600073ffffffffffffffffffffffffffffffffffffffff168173ffffffffffffffffffffffffffffffffffffffff16036130c6576040517f08c379a00000000000000000000000000000000000000000000000000000000081526004016130bd906165d0565b60405180910390fd5b6130cf816138f3565b50565b6012602052816000526040600020602052806000526040600020600091509150505481565b6130ff61322e565b80601b60006101000a81548160ff02191690831515021790555050565b50505050565b60007f7965db0b000000000000000000000000000000000000000000000000000000007bffffffffffffffffffffffffffffffffffffffffffffffffffffffff1916827bffffffffffffffffffffffffffffffffffffffffffffffffffffffff19161480613195575061319482613e28565b5b9050919050565b60006301ffc9a760e01b827bffffffffffffffffffffffffffffffffffffffffffffffffffffffff191614806131f757506380ac58cd60e01b827bffffffffffffffffffffffffffffffffffffffffffffffffffffffff1916145b806132275750635b5e139f60e01b827bffffffffffffffffffffffffffffffffffffffffffffffffffffffff1916145b9050919050565b6132366137da565b73ffffffffffffffffffffffffffffffffffffffff166132546127bb565b73ffffffffffffffffffffffffffffffffffffffff16146132aa576040517f08c379a00000000000000000000000000000000000000000000000000000000081526004016132a19061663c565b60405180910390fd5b565b6000816132b761344f565b111580156132c6575060015482105b8015613304575060007c0100000000000000000000000000000000000000000000000000000000600560008581526020019081526020016000205416145b9050919050565b600061331682611f6e565b90508073ffffffffffffffffffffffffffffffffffffffff1661333761354b565b73ffffffffffffffffffffffffffffffffffffffff161461339a576133638161335e61354b565b612f96565b613399576040517fcfb3b94200000000000000000000000000000000000000000000000000000000815260040160405180910390fd5b5b826007600084815260200190815260200160002060000160006101000a81548173ffffffffffffffffffffffffffffffffffffffff021916908373ffffffffffffffffffffffffffffffffffffffff160217905550818373ffffffffffffffffffffffffffffffffffffffff168273ffffffffffffffffffffffffffffffffffffffff167f8c5be1e5ebec7d5bd14f71427d1e84f3dd0314c0f7b2291e5b200ac8c7c3b92560405160405180910390a4505050565b60006001905090565b6000808290508061346761344f565b116134ed576001548110156134ec5760006005600083815260200190815260200160002054905060007c01000000000000000000000000000000000000000000000000000000008216036134ea575b600081036134e05760056000836001900393508381526020019081526020016000205490506134b6565b809250505061351f565b505b5b6040517fdf2d9b4200000000000000000000000000000000000000000000000000000000815260040160405180910390fd5b919050565b60008060006007600085815260200190815260200160002090508092508254915050915091565b600033905090565b600073ffffffffffffffffffffffffffffffffffffffff8316925073ffffffffffffffffffffffffffffffffffffffff821691508382148383141790509392505050565b60001515601b60009054906101000a900460ff16151514806135e55750600073ffffffffffffffffffffffffffffffffffffffff168473ffffffffffffffffffffffffffffffffffffffff16145b8061361d575061dead73ffffffffffffffffffffffffffffffffffffffff168373ffffffffffffffffffffffffffffffffffffffff16145b61365c576040517f08c379a0000000000000000000000000000000000000000000000000000000008152600401613653906166a8565b60405180910390fd5b6136688484848461311c565b50505050565b60008060e883901c905060e8613685868684613e92565b62ffffff16901b9150509392505050565b600073ffffffffffffffffffffffffffffffffffffffff83169250814260a01b178317905092915050565b50505050565b6136e1828260405180602001604052806000815250613e9b565b5050565b6136f6816136f16137da565b613f39565b50565b6137038282612809565b6137d65760016009600084815260200190815260200160002060000160008373ffffffffffffffffffffffffffffffffffffffff1673ffffffffffffffffffffffffffffffffffffffff16815260200190815260200160002060006101000a81548160ff02191690831515021790555061377b6137da565b73ffffffffffffffffffffffffffffffffffffffff168173ffffffffffffffffffffffffffffffffffffffff16837f2f8788117e7eff1d82e926ec794901d17c78024a50270940304540a733656f0d60405160405180910390a45b5050565b600033905090565b6137ec8282612809565b156138c05760006009600084815260200190815260200160002060000160008373ffffffffffffffffffffffffffffffffffffffff1673ffffffffffffffffffffffffffffffffffffffff16815260200190815260200160002060006101000a81548160ff0219169083151502179055506138656137da565b73ffffffffffffffffffffffffffffffffffffffff168173ffffffffffffffffffffffffffffffffffffffff16837ff6391f5c32d9c69d2a47ea670b442974b53935d1edc7fd64eb21e047a839171b60405160405180910390a45b5050565b6138cf816000613fbe565b50565b6000600154905090565b6000826138e98584614210565b1490509392505050565b60008060009054906101000a900473ffffffffffffffffffffffffffffffffffffffff169050816000806101000a81548173ffffffffffffffffffffffffffffffffffffffff021916908373ffffffffffffffffffffffffffffffffffffffff1602179055508173ffffffffffffffffffffffffffffffffffffffff168173ffffffffffffffffffffffffffffffffffffffff167f8be0079c531659141344cd1fd0a4f28419497f9722a3daafe3b4186f6b6457e060405160405180910390a35050565b80600860006139c461354b565b73ffffffffffffffffffffffffffffffffffffffff1673ffffffffffffffffffffffffffffffffffffffff16815260200190815260200160002060008473ffffffffffffffffffffffffffffffffffffffff1673ffffffffffffffffffffffffffffffffffffffff16815260200190815260200160002060006101000a81548160ff0219169083151502179055508173ffffffffffffffffffffffffffffffffffffffff16613a7161354b565b73ffffffffffffffffffffffffffffffffffffffff167f17307eab39ab6107e8899845ad3d59bd9653f200f220920489ca2b5937696c3183604051613ab691906147da565b60405180910390a35050565b60008373ffffffffffffffffffffffffffffffffffffffff1663150b7a02613ae861354b565b8786866040518563ffffffff1660e01b8152600401613b0a949392919061671d565b6020604051808303816000875af1925050508015613b4657506040513d601f19601f82011682018060405250810190613b43919061677e565b60015b613bbf573d8060008114613b76576040519150601f19603f3d011682016040523d82523d6000602084013e613b7b565b606091505b506000815103613bb7576040517fd1a57ed600000000000000000000000000000000000000000000000000000000815260040160405180910390fd5b805181602001fd5b63150b7a0260e01b7bffffffffffffffffffffffffffffffffffffffffffffffffffffffff1916817bffffffffffffffffffffffffffffffffffffffffffffffffffffffff191614915050949350505050565b60606000825103613c3457604051806020016040528060008152509050613d85565b60006040518060600160405280604081526020016169976040913990506000600360028551613c639190615835565b613c6d91906167da565b6004613c799190615cd7565b90506000602082613c8a9190615835565b67ffffffffffffffff811115613ca357613ca261494a565b5b6040519080825280601f01601f191660200182016040528015613cd55781602001600182028036833780820191505090505b509050818152600183018586518101602084015b81831015613d44576003830192508251603f8160121c168501518253600182019150603f81600c1c168501518253600182019150603f8160061c168501518253600182019150603f8116850151825360018201915050613ce9565b600389510660018114613d5e5760028114613d6e57613d79565b613d3d60f01b6002830352613d79565b603d60f81b60018303525b50505050508093505050505b919050565b6060613d95826132ac565b613dcb576040517fa14c4b5000000000000000000000000000000000000000000000000000000000815260040160405180910390fd5b6000613dd5614266565b90506000815103613df55760405180602001604052806000815250613e20565b80613dff846142f8565b604051602001613e1092919061680b565b6040516020818303038152906040525b915050919050565b60007f01ffc9a7000000000000000000000000000000000000000000000000000000007bffffffffffffffffffffffffffffffffffffffffffffffffffffffff1916827bffffffffffffffffffffffffffffffffffffffffffffffffffffffff1916149050919050565b60009392505050565b613ea58383614348565b60008373ffffffffffffffffffffffffffffffffffffffff163b14613f345760006001549050600083820390505b613ee66000868380600101945086613ac2565b613f1c576040517fd1a57ed600000000000000000000000000000000000000000000000000000000815260040160405180910390fd5b818110613ed3578160015414613f3157600080fd5b50505b505050565b613f438282612809565b613fba57613f5081614504565b613f5e8360001c6020614531565b604051602001613f6f9291906168c7565b6040516020818303038152906040526040517f08c379a0000000000000000000000000000000000000000000000000000000008152600401613fb19190614885565b60405180910390fd5b5050565b6000613fc983613458565b90506000819050600080613fdc86613524565b91509150841561404557613ff88184613ff361354b565b613553565b6140445761400d8361400861354b565b612f96565b614043576040517f59c896be00000000000000000000000000000000000000000000000000000000815260040160405180910390fd5b5b5b614053836000886001613597565b801561405e57600082555b600160806001901b03600660008573ffffffffffffffffffffffffffffffffffffffff1673ffffffffffffffffffffffffffffffffffffffff16815260200190815260200160002060008282540192505081905550614106836140c38560008861366e565b7c02000000000000000000000000000000000000000000000000000000007c01000000000000000000000000000000000000000000000000000000001717613696565b600560008881526020019081526020016000208190555060007c020000000000000000000000000000000000000000000000000000000085160361418c576000600187019050600060056000838152602001908152602001600020540361418a576001548114614189578460056000838152602001908152602001600020819055505b5b505b85600073ffffffffffffffffffffffffffffffffffffffff168473ffffffffffffffffffffffffffffffffffffffff167fddf252ad1be2c89b69c2b068fc378daa952ba7f163c4a11628f55a4df523b3ef60405160405180910390a46141f68360008860016136c1565b600260008154809291906001019190505550505050505050565b60008082905060005b845181101561425b5761424682868381518110614239576142386157d7565b5b602002602001015161476d565b9150808061425390615869565b915050614219565b508091505092915050565b6060601480546142759061545a565b80601f01602080910402602001604051908101604052809291908181526020018280546142a19061545a565b80156142ee5780601f106142c3576101008083540402835291602001916142ee565b820191906000526020600020905b8154815290600101906020018083116142d157829003601f168201915b5050505050905090565b606060a060405101806040526020810391506000825281835b60011561433357600184039350600a81066030018453600a8104905080614311575b50828103602084039350808452505050919050565b6000600154905060008203614389576040517fb562e8dd00000000000000000000000000000000000000000000000000000000815260040160405180910390fd5b6143966000848385613597565b600160406001901b178202600660008573ffffffffffffffffffffffffffffffffffffffff1673ffffffffffffffffffffffffffffffffffffffff1681526020019081526020016000206000828254019250508190555061440d836143fe600086600061366e565b61440785614798565b17613696565b6005600083815260200190815260200160002081905550600080838301905073ffffffffffffffffffffffffffffffffffffffff85169150828260007fddf252ad1be2c89b69c2b068fc378daa952ba7f163c4a11628f55a4df523b3ef600080a4600183015b8181146144ae57808360007fddf252ad1be2c89b69c2b068fc378daa952ba7f163c4a11628f55a4df523b3ef600080a4600181019050614473565b50600082036144e9576040517f2e07630000000000000000000000000000000000000000000000000000000000815260040160405180910390fd5b8060018190555050506144ff60008483856136c1565b505050565b606061452a8273ffffffffffffffffffffffffffffffffffffffff16601460ff16614531565b9050919050565b6060600060028360026145449190615cd7565b61454e9190615835565b67ffffffffffffffff8111156145675761456661494a565b5b6040519080825280601f01601f1916602001820160405280156145995781602001600182028036833780820191505090505b5090507f3000000000000000000000000000000000000000000000000000000000000000816000815181106145d1576145d06157d7565b5b60200101907effffffffffffffffffffffffffffffffffffffffffffffffffffffffffffff1916908160001a9053507f780000000000000000000000000000000000000000000000000000000000000081600181518110614635576146346157d7565b5b60200101907effffffffffffffffffffffffffffffffffffffffffffffffffffffffffffff1916908160001a905350600060018460026146759190615cd7565b61467f9190615835565b90505b600181111561471f577f3031323334353637383961626364656600000000000000000000000000000000600f8616601081106146c1576146c06157d7565b5b1a60f81b8282815181106146d8576146d76157d7565b5b60200101907effffffffffffffffffffffffffffffffffffffffffffffffffffffffffffff1916908160001a905350600485901c94508061471890616901565b9050614682565b5060008414614763576040517f08c379a000000000000000000000000000000000000000000000000000000000815260040161475a90616976565b60405180910390fd5b8091505092915050565b60008183106147855761478082846147a8565b614790565b61478f83836147a8565b5b905092915050565b60006001821460e11b9050919050565b600082600052816020526040600020905092915050565b60008115159050919050565b6147d4816147bf565b82525050565b60006020820190506147ef60008301846147cb565b92915050565b600081519050919050565b600082825260208201905092915050565b60005b8381101561482f578082015181840152602081019050614814565b60008484015250505050565b6000601f19601f8301169050919050565b6000614857826147f5565b6148618185614800565b9350614871818560208601614811565b61487a8161483b565b840191505092915050565b6000602082019050818103600083015261489f818461484c565b905092915050565b6000604051905090565b600080fd5b600080fd5b60007fffffffff0000000000000000000000000000000000000000000000000000000082169050919050565b6148f0816148bb565b81146148fb57600080fd5b50565b60008135905061490d816148e7565b92915050565b600060208284031215614929576149286148b1565b5b6000614937848285016148fe565b91505092915050565b600080fd5b600080fd5b7f4e487b7100000000000000000000000000000000000000000000000000000000600052604160045260246000fd5b6149828261483b565b810181811067ffffffffffffffff821117156149a1576149a061494a565b5b80604052505050565b60006149b46148a7565b90506149c08282614979565b919050565b600067ffffffffffffffff8211156149e0576149df61494a565b5b6149e98261483b565b9050602081019050919050565b82818337600083830152505050565b6000614a18614a13846149c5565b6149aa565b905082815260208101848484011115614a3457614a33614945565b5b614a3f8482856149f6565b509392505050565b600082601f830112614a5c57614a5b614940565b5b8135614a6c848260208601614a05565b91505092915050565b600060208284031215614a8b57614a8a6148b1565b5b600082013567ffffffffffffffff811115614aa957614aa86148b6565b5b614ab584828501614a47565b91505092915050565b6000819050919050565b614ad181614abe565b8114614adc57600080fd5b50565b600081359050614aee81614ac8565b92915050565b600060208284031215614b0a57614b096148b1565b5b6000614b1884828501614adf565b91505092915050565b600073ffffffffffffffffffffffffffffffffffffffff82169050919050565b6000614b4c82614b21565b9050919050565b614b5c81614b41565b82525050565b6000602082019050614b776000830184614b53565b92915050565b614b8681614b41565b8114614b9157600080fd5b50565b600081359050614ba381614b7d565b92915050565b60008060408385031215614bc057614bbf6148b1565b5b6000614bce85828601614b94565b9250506020614bdf85828601614adf565b9150509250929050565b614bf281614abe565b82525050565b6000602082019050614c0d6000830184614be9565b92915050565b614c1c816147bf565b8114614c2757600080fd5b50565b600081359050614c3981614c13565b92915050565b600060208284031215614c5557614c546148b1565b5b6000614c6384828501614c2a565b91505092915050565b6000819050919050565b614c7f81614c6c565b82525050565b6000602082019050614c9a6000830184614c76565b92915050565b600080600060608486031215614cb957614cb86148b1565b5b6000614cc786828701614b94565b9350506020614cd886828701614b94565b9250506040614ce986828701614adf565b9150509250925092565b600060208284031215614d0957614d086148b1565b5b6000614d1784828501614b94565b91505092915050565b614d2981614c6c565b8114614d3457600080fd5b50565b600081359050614d4681614d20565b92915050565b600060208284031215614d6257614d616148b1565b5b6000614d7084828501614d37565b91505092915050565b600080fd5b600080fd5b60008083601f840112614d9957614d98614940565b5b8235905067ffffffffffffffff811115614db657614db5614d79565b5b602083019150836020820283011115614dd257614dd1614d7e565b5b9250929050565b600067ffffffffffffffff821115614df457614df361494a565b5b602082029050602081019050919050565b6000614e18614e1384614dd9565b6149aa565b90508083825260208201905060208402830185811115614e3b57614e3a614d7e565b5b835b81811015614e645780614e508882614adf565b845260208401935050602081019050614e3d565b5050509392505050565b600082601f830112614e8357614e82614940565b5b8135614e93848260208601614e05565b91505092915050565b600080600060408486031215614eb557614eb46148b1565b5b600084013567ffffffffffffffff811115614ed357614ed26148b6565b5b614edf86828701614d83565b9350935050602084013567ffffffffffffffff811115614f0257614f016148b6565b5b614f0e86828701614e6e565b9150509250925092565b60008060408385031215614f2f57614f2e6148b1565b5b6000614f3d85828601614d37565b9250506020614f4e85828601614b94565b9150509250929050565b60008060408385031215614f6f57614f6e6148b1565b5b6000614f7d85828601614adf565b9250506020614f8e85828601614b94565b9150509250929050565b600067ffffffffffffffff821115614fb357614fb261494a565b5b602082029050602081019050919050565b6000614fd7614fd284614f98565b6149aa565b90508083825260208201905060208402830185811115614ffa57614ff9614d7e565b5b835b81811015615023578061500f8882614b94565b845260208401935050602081019050614ffc565b5050509392505050565b600082601f83011261504257615041614940565b5b8135615052848260208601614fc4565b91505092915050565b600080600060608486031215615074576150736148b1565b5b600061508286828701614adf565b935050602084013567ffffffffffffffff8111156150a3576150a26148b6565b5b6150af8682870161502d565b925050604084013567ffffffffffffffff8111156150d0576150cf6148b6565b5b6150dc86828701614e6e565b9150509250925092565b6000602082840312156150fc576150fb6148b1565b5b600082013567ffffffffffffffff81111561511a576151196148b6565b5b61512684828501614e6e565b91505092915050565b60008083601f84011261514557615144614940565b5b8235905067ffffffffffffffff81111561516257615161614d79565b5b60208301915083602082028301111561517e5761517d614d7e565b5b9250929050565b6000806000806000608086880312156151a1576151a06148b1565b5b60006151af88828901614adf565b95505060206151c088828901614adf565b945050604086013567ffffffffffffffff8111156151e1576151e06148b6565b5b6151ed8882890161512f565b9350935050606061520088828901614adf565b9150509295509295909350565b6000819050919050565b600061523261522d61522884614b21565b61520d565b614b21565b9050919050565b600061524482615217565b9050919050565b600061525682615239565b9050919050565b6152668161524b565b82525050565b6000602082019050615281600083018461525d565b92915050565b6000806040838503121561529e5761529d6148b1565b5b60006152ac85828601614b94565b92505060206152bd85828601614c2a565b9150509250929050565b600067ffffffffffffffff8211156152e2576152e161494a565b5b6152eb8261483b565b9050602081019050919050565b600061530b615306846152c7565b6149aa565b90508281526020810184848401111561532757615326614945565b5b6153328482856149f6565b509392505050565b600082601f83011261534f5761534e614940565b5b813561535f8482602086016152f8565b91505092915050565b60008060008060808587031215615382576153816148b1565b5b600061539087828801614b94565b94505060206153a187828801614b94565b93505060406153b287828801614adf565b925050606085013567ffffffffffffffff8111156153d3576153d26148b6565b5b6153df8782880161533a565b91505092959194509250565b60008060408385031215615402576154016148b1565b5b600061541085828601614b94565b925050602061542185828601614b94565b9150509250929050565b7f4e487b7100000000000000000000000000000000000000000000000000000000600052602260045260246000fd5b6000600282049050600182168061547257607f821691505b6020821081036154855761548461542b565b5b50919050565b60008190508160005260206000209050919050565b60006020601f8301049050919050565b600082821b905092915050565b6000600883026154ed7fffffffffffffffffffffffffffffffffffffffffffffffffffffffffffffffff826154b0565b6154f786836154b0565b95508019841693508086168417925050509392505050565b600061552a61552561552084614abe565b61520d565b614abe565b9050919050565b6000819050919050565b6155448361550f565b61555861555082615531565b8484546154bd565b825550505050565b600090565b61556d615560565b61557881848461553b565b505050565b5b8181101561559c57615591600082615565565b60018101905061557e565b5050565b601f8211156155e1576155b28161548b565b6155bb846154a0565b810160208510156155ca578190505b6155de6155d6856154a0565b83018261557d565b50505b505050565b600082821c905092915050565b6000615604600019846008026155e6565b1980831691505092915050565b600061561d83836155f3565b9150826002028217905092915050565b615636826147f5565b67ffffffffffffffff81111561564f5761564e61494a565b5b615659825461545a565b6156648282856155a0565b600060209050601f8311600181146156975760008415615685578287015190505b61568f8582615611565b8655506156f7565b601f1984166156a58661548b565b60005b828110156156cd578489015182556001820191506020850194506020810190506156a8565b868310156156ea57848901516156e6601f8916826155f3565b8355505b6001600288020188555050505b505050505050565b7f617070726f76652069732070726f686962697465640000000000000000000000600082015250565b6000615735601583614800565b9150615740826156ff565b602082019050919050565b6000602082019050818103600083015261576481615728565b9050919050565b7f43616c6c6572206973206e6f742061206169722064726f707065720000000000600082015250565b60006157a1601b83614800565b91506157ac8261576b565b602082019050919050565b600060208201905081810360008301526157d081615794565b9050919050565b7f4e487b7100000000000000000000000000000000000000000000000000000000600052603260045260246000fd5b7f4e487b7100000000000000000000000000000000000000000000000000000000600052601160045260246000fd5b600061584082614abe565b915061584b83614abe565b925082820190508082111561586357615862615806565b5b92915050565b600061587482614abe565b91507fffffffffffffffffffffffffffffffffffffffffffffffffffffffffffffffff82036158a6576158a5615806565b5b600182019050919050565b7f6e65656420746f206d696e74206174206c656173742031204e46540000000000600082015250565b60006158e7601b83614800565b91506158f2826158b1565b602082019050919050565b60006020820190508181036000830152615916816158da565b9050919050565b7f6d6178204e4654206c696d697420657863656564656400000000000000000000600082015250565b6000615953601683614800565b915061595e8261591d565b602082019050919050565b6000602082019050818103600083015261598281615946565b9050919050565b7f416363657373436f6e74726f6c3a2063616e206f6e6c792072656e6f756e636560008201527f20726f6c657320666f722073656c660000000000000000000000000000000000602082015250565b60006159e5602f83614800565b91506159f082615989565b604082019050919050565b60006020820190508181036000830152615a14816159d8565b9050919050565b600081905092915050565b50565b6000615a36600083615a1b565b9150615a4182615a26565b600082019050919050565b6000615a5782615a29565b9150819050919050565b7f43616c6c6572206973206e6f742061206275726e657200000000000000000000600082015250565b6000615a97601683614800565b9150615aa282615a61565b602082019050919050565b60006020820190508181036000830152615ac681615a8a565b9050919050565b7f4f776e657220697320646966666572656e740000000000000000000000000000600082015250565b6000615b03601283614800565b9150615b0e82615acd565b602082019050919050565b60006020820190508181036000830152615b3281615af6565b9050919050565b7f5468652063616c6c657220697320616e6f7468657220636f6e74726163742e00600082015250565b6000615b6f601f83614800565b9150615b7a82615b39565b602082019050919050565b60006020820190508181036000830152615b9e81615b62565b9050919050565b7f74686520636f6e74726163742069732070617573656400000000000000000000600082015250565b6000615bdb601683614800565b9150615be682615ba5565b602082019050919050565b60006020820190508181036000830152615c0a81615bce565b9050919050565b7f6d6178206d696e7420616d6f756e74207065722073657373696f6e206578636560008201527f6564656400000000000000000000000000000000000000000000000000000000602082015250565b6000615c6d602483614800565b9150615c7882615c11565b604082019050919050565b60006020820190508181036000830152615c9c81615c60565b9050919050565b6000615cae82614abe565b9150615cb983614abe565b9250828203905081811115615cd157615cd0615806565b5b92915050565b6000615ce282614abe565b9150615ced83614abe565b9250828202615cfb81614abe565b91508282048414831517615d1257615d11615806565b5b5092915050565b7f696e73756666696369656e742066756e64730000000000000000000000000000600082015250565b6000615d4f601283614800565b9150615d5a82615d19565b602082019050919050565b60006020820190508181036000830152615d7e81615d42565b9050919050565b60008160601b9050919050565b6000615d9d82615d85565b9050919050565b6000615daf82615d92565b9050919050565b615dc7615dc282614b41565b615da4565b82525050565b6000819050919050565b615de8615de382614abe565b615dcd565b82525050565b6000615dfa8285615db6565b601482019150615e0a8284615dd7565b6020820191508190509392505050565b7f75736572206973206e6f7420616c6c6f776c6973746564000000000000000000600082015250565b6000615e50601783614800565b9150615e5b82615e1a565b602082019050919050565b60006020820190508181036000830152615e7f81615e43565b9050919050565b7f6d6178204e465420706572206164647265737320657863656564656400000000600082015250565b6000615ebc601c83614800565b9150615ec782615e86565b602082019050919050565b60006020820190508181036000830152615eeb81615eaf565b9050919050565b6000615eff600083614800565b9150615f0a82615a26565b600082019050919050565b60006020820190508181036000830152615f2e81615ef2565b9050919050565b7f416c6c6f77206c6973742074797065206572726f720000000000000000000000600082015250565b6000615f6b601583614800565b9150615f7682615f35565b602082019050919050565b60006020820190508181036000830152615f9a81615f5e565b9050919050565b7f43616c6c6572206973206e6f742061206d696e74657200000000000000000000600082015250565b6000615fd7601683614800565b9150615fe282615fa1565b602082019050919050565b6000602082019050818103600083015261600681615fca565b9050919050565b7f736574417070726f76616c466f72416c6c2069732070726f6869626974656400600082015250565b6000616043601f83614800565b915061604e8261600d565b602082019050919050565b6000602082019050818103600083015261607281616036565b9050919050565b600061608c616087846149c5565b6149aa565b9050828152602081018484840111156160a8576160a7614945565b5b6160b3848285614811565b509392505050565b600082601f8301126160d0576160cf614940565b5b81516160e0848260208601616079565b91505092915050565b6000602082840312156160ff576160fe6148b1565b5b600082015167ffffffffffffffff81111561611d5761611c6148b6565b5b616129848285016160bb565b91505092915050565b600081905092915050565b7f7b226e616d65223a220000000000000000000000000000000000000000000000600082015250565b6000616173600983616132565b915061617e8261613d565b600982019050919050565b600081546161968161545a565b6161a08186616132565b945060018216600081146161bb57600181146161d057616203565b60ff1983168652811515820286019350616203565b6161d98561548b565b60005b838110156161fb578154818901526001820191506020810190506161dc565b838801955050505b50505092915050565b7f222c000000000000000000000000000000000000000000000000000000000000600082015250565b6000616242600283616132565b915061624d8261620c565b600282019050919050565b7f226465736372697074696f6e223a220000000000000000000000000000000000600082015250565b600061628e600f83616132565b915061629982616258565b600f82019050919050565b7f22696d616765223a202200000000000000000000000000000000000000000000600082015250565b60006162da600a83616132565b91506162e5826162a4565b600a82019050919050565b7f2261747472696275746573223a5b7b2274726169745f74797065223a2274797060008201527f65222c2276616c7565223a220000000000000000000000000000000000000000602082015250565b600061634c602c83616132565b9150616357826162f0565b602c82019050919050565b7f227d5d0000000000000000000000000000000000000000000000000000000000600082015250565b6000616398600383616132565b91506163a382616362565b600382019050919050565b7f7d00000000000000000000000000000000000000000000000000000000000000600082015250565b60006163e4600183616132565b91506163ef826163ae565b600182019050919050565b600061640582616166565b91506164118287616189565b915061641c82616235565b915061642782616281565b91506164338286616189565b915061643e82616235565b9150616449826162cd565b91506164558285616189565b915061646082616235565b915061646b8261633f565b91506164778284616189565b91506164828261638b565b915061648d826163d7565b915081905095945050505050565b7f646174613a6170706c69636174696f6e2f6a736f6e3b6261736536342c000000600082015250565b60006164d1601d83616132565b91506164dc8261649b565b601d82019050919050565b60006164f2826147f5565b6164fc8185616132565b935061650c818560208601614811565b80840191505092915050565b6000616523826164c4565b915061652f82846164e7565b915081905092915050565b600061654682856164e7565b91506165528284616189565b91508190509392505050565b7f4f776e61626c653a206e6577206f776e657220697320746865207a65726f206160008201527f6464726573730000000000000000000000000000000000000000000000000000602082015250565b60006165ba602683614800565b91506165c58261655e565b604082019050919050565b600060208201905081810360008301526165e9816165ad565b9050919050565b7f4f776e61626c653a2063616c6c6572206973206e6f7420746865206f776e6572600082015250565b6000616626602083614800565b9150616631826165f0565b602082019050919050565b6000602082019050818103600083015261665581616619565b9050919050565b7f7472616e736665722069732070726f6869626974656400000000000000000000600082015250565b6000616692601683614800565b915061669d8261665c565b602082019050919050565b600060208201905081810360008301526166c181616685565b9050919050565b600081519050919050565b600082825260208201905092915050565b60006166ef826166c8565b6166f981856166d3565b9350616709818560208601614811565b6167128161483b565b840191505092915050565b60006080820190506167326000830187614b53565b61673f6020830186614b53565b61674c6040830185614be9565b818103606083015261675e81846166e4565b905095945050505050565b600081519050616778816148e7565b92915050565b600060208284031215616794576167936148b1565b5b60006167a284828501616769565b91505092915050565b7f4e487b7100000000000000000000000000000000000000000000000000000000600052601260045260246000fd5b60006167e582614abe565b91506167f083614abe565b925082616800576167ff6167ab565b5b828204905092915050565b600061681782856164e7565b915061682382846164e7565b91508190509392505050565b7f416363657373436f6e74726f6c3a206163636f756e7420000000000000000000600082015250565b6000616865601783616132565b91506168708261682f565b601782019050919050565b7f206973206d697373696e6720726f6c6520000000000000000000000000000000600082015250565b60006168b1601183616132565b91506168bc8261687b565b601182019050919050565b60006168d282616858565b91506168de82856164e7565b91506168e9826168a4565b91506168f582846164e7565b91508190509392505050565b600061690c82614abe565b91506000820361691f5761691e615806565b5b600182039050919050565b7f537472696e67733a20686578206c656e67746820696e73756666696369656e74600082015250565b6000616960602083614800565b915061696b8261692a565b602082019050919050565b6000602082019050818103600083015261698f81616953565b905091905056fe4142434445464748494a4b4c4d4e4f505152535455565758595a6162636465666768696a6b6c6d6e6f707172737475767778797a303132333435363738392b2fa264697066735822122068134b0a53c7a007b536ae17bbf7e801972321bb05cb61f25165aa2f3af0911e64736f6c6343000812003368747470733a2f2f646174612e7a716e2e7774662f74657265716e2f6d657461646174612f",
			"opcodes": "PUSH1 0x80 PUSH1 0x40 MSTORE PUSH1 0x0 PUSH1 0xA SSTORE PUSH2 0x2710 PUSH1 0xB SSTORE PUSH1 0xA PUSH1 0xC SSTORE PUSH2 0x12C PUSH1 0xD SSTORE PUSH1 0x1 PUSH1 0xE PUSH1 0x0 PUSH2 0x100 EXP DUP2 SLOAD DUP2 PUSH1 0xFF MUL NOT AND SWAP1 DUP4 ISZERO ISZERO MUL OR SWAP1 SSTORE POP PUSH1 0x1 PUSH1 0xE PUSH1 0x1 PUSH2 0x100 EXP DUP2 SLOAD DUP2 PUSH1 0xFF MUL NOT AND SWAP1 DUP4 ISZERO ISZERO MUL OR SWAP1 SSTORE POP PUSH1 0x1 PUSH1 0xE PUSH1 0x2 PUSH2 0x100 EXP DUP2 SLOAD DUP2 PUSH1 0xFF MUL NOT AND SWAP1 DUP4 ISZERO ISZERO MUL OR SWAP1 SSTORE POP PUSH1 0x0 PUSH1 0xE PUSH1 0x3 PUSH2 0x100 EXP DUP2 SLOAD DUP2 PUSH1 0xFF MUL NOT AND SWAP1 DUP4 ISZERO ISZERO MUL OR SWAP1 SSTORE POP PUSH1 0x0 PUSH1 0xF SSTORE PUSH1 0x0 PUSH1 0x11 SSTORE PUSH1 0x40 MLOAD DUP1 PUSH1 0x40 ADD PUSH1 0x40 MSTORE DUP1 PUSH1 0x5 DUP2 MSTORE PUSH1 0x20 ADD PUSH32 0x2E6A736F6E000000000000000000000000000000000000000000000000000000 DUP2 MSTORE POP PUSH1 0x15 SWAP1 DUP2 PUSH3 0xD6 SWAP2 SWAP1 PUSH3 0xE2C JUMP JUMPDEST POP PUSH1 0x0 PUSH1 0x16 PUSH1 0x14 PUSH2 0x100 EXP DUP2 SLOAD DUP2 PUSH1 0xFF MUL NOT AND SWAP1 DUP4 ISZERO ISZERO MUL OR SWAP1 SSTORE POP PUSH1 0x0 PUSH1 0x16 PUSH1 0x15 PUSH2 0x100 EXP DUP2 SLOAD DUP2 PUSH1 0xFF MUL NOT AND SWAP1 DUP4 ISZERO ISZERO MUL OR SWAP1 SSTORE POP PUSH1 0x0 PUSH1 0x1B PUSH1 0x0 PUSH2 0x100 EXP DUP2 SLOAD DUP2 PUSH1 0xFF MUL NOT AND SWAP1 DUP4 ISZERO ISZERO MUL OR SWAP1 SSTORE POP CALLVALUE DUP1 ISZERO PUSH3 0x135 JUMPI PUSH1 0x0 DUP1 REVERT JUMPDEST POP PUSH1 0x40 MLOAD DUP1 PUSH1 0x40 ADD PUSH1 0x40 MSTORE DUP1 PUSH1 0x10 DUP2 MSTORE PUSH1 0x20 ADD PUSH32 0x436F6E747261637454656D706C61746500000000000000000000000000000000 DUP2 MSTORE POP PUSH1 0x40 MLOAD DUP1 PUSH1 0x40 ADD PUSH1 0x40 MSTORE DUP1 PUSH1 0x3 DUP2 MSTORE PUSH1 0x20 ADD PUSH32 0x544D500000000000000000000000000000000000000000000000000000000000 DUP2 MSTORE POP PUSH3 0x1C2 PUSH3 0x1B6 PUSH3 0x2CC PUSH1 0x20 SHL PUSH1 0x20 SHR JUMP JUMPDEST PUSH3 0x2D4 PUSH1 0x20 SHL PUSH1 0x20 SHR JUMP JUMPDEST DUP2 PUSH1 0x3 SWAP1 DUP2 PUSH3 0x1D3 SWAP2 SWAP1 PUSH3 0xE2C JUMP JUMPDEST POP DUP1 PUSH1 0x4 SWAP1 DUP2 PUSH3 0x1E5 SWAP2 SWAP1 PUSH3 0xE2C JUMP JUMPDEST POP PUSH3 0x1F6 PUSH3 0x398 PUSH1 0x20 SHL PUSH1 0x20 SHR JUMP JUMPDEST PUSH1 0x1 DUP2 SWAP1 SSTORE POP POP POP PUSH3 0x213 PUSH1 0x0 DUP1 SHL CALLER PUSH3 0x3A1 PUSH1 0x20 SHL PUSH1 0x20 SHR JUMP JUMPDEST PUSH3 0x245 PUSH32 0x9F2DF0FED2C77648DE5860A4CC508CD0818C85B8B8A1AB4CEEEF8D981C8956A6 CALLER PUSH3 0x3A1 PUSH1 0x20 SHL PUSH1 0x20 SHR JUMP JUMPDEST PUSH3 0x277 PUSH32 0x3A2F235C9DAAF33349D300AADFF2F15078A89DF81BCFDD45BA11C8F816BDDC6F CALLER PUSH3 0x3A1 PUSH1 0x20 SHL PUSH1 0x20 SHR JUMP JUMPDEST PUSH3 0x2A1 PUSH1 0x40 MLOAD DUP1 PUSH1 0x60 ADD PUSH1 0x40 MSTORE DUP1 PUSH1 0x25 DUP2 MSTORE PUSH1 0x20 ADD PUSH3 0x7BFC PUSH1 0x25 SWAP2 CODECOPY PUSH3 0x3B7 PUSH1 0x20 SHL PUSH1 0x20 SHR JUMP JUMPDEST PUSH3 0x2B4 CALLER PUSH1 0x5 PUSH3 0x3DC PUSH1 0x20 SHL PUSH1 0x20 SHR JUMP JUMPDEST PUSH3 0x2C6 PUSH1 0x1 PUSH3 0x402 PUSH1 0x20 SHL PUSH1 0x20 SHR JUMP JUMPDEST PUSH3 0x11E0 JUMP JUMPDEST PUSH1 0x0 CALLER SWAP1 POP SWAP1 JUMP JUMPDEST PUSH1 0x0 DUP1 PUSH1 0x0 SWAP1 SLOAD SWAP1 PUSH2 0x100 EXP SWAP1 DIV PUSH20 0xFFFFFFFFFFFFFFFFFFFFFFFFFFFFFFFFFFFFFFFF AND SWAP1 POP DUP2 PUSH1 0x0 DUP1 PUSH2 0x100 EXP DUP2 SLOAD DUP2 PUSH20 0xFFFFFFFFFFFFFFFFFFFFFFFFFFFFFFFFFFFFFFFF MUL NOT AND SWAP1 DUP4 PUSH20 0xFFFFFFFFFFFFFFFFFFFFFFFFFFFFFFFFFFFFFFFF AND MUL OR SWAP1 SSTORE POP DUP2 PUSH20 0xFFFFFFFFFFFFFFFFFFFFFFFFFFFFFFFFFFFFFFFF AND DUP2 PUSH20 0xFFFFFFFFFFFFFFFFFFFFFFFFFFFFFFFFFFFFFFFF AND PUSH32 0x8BE0079C531659141344CD1FD0A4F28419497F9722A3DAAFE3B4186F6B6457E0 PUSH1 0x40 MLOAD PUSH1 0x40 MLOAD DUP1 SWAP2 SUB SWAP1 LOG3 POP POP JUMP JUMPDEST PUSH1 0x0 PUSH1 0x1 SWAP1 POP SWAP1 JUMP JUMPDEST PUSH3 0x3B3 DUP3 DUP3 PUSH3 0x42F PUSH1 0x20 SHL PUSH1 0x20 SHR JUMP JUMPDEST POP POP JUMP JUMPDEST PUSH3 0x3C7 PUSH3 0x521 PUSH1 0x20 SHL PUSH1 0x20 SHR JUMP JUMPDEST DUP1 PUSH1 0x14 SWAP1 DUP2 PUSH3 0x3D8 SWAP2 SWAP1 PUSH3 0xE2C JUMP JUMPDEST POP POP JUMP JUMPDEST PUSH3 0x3FE DUP3 DUP3 PUSH1 0x40 MLOAD DUP1 PUSH1 0x20 ADD PUSH1 0x40 MSTORE DUP1 PUSH1 0x0 DUP2 MSTORE POP PUSH3 0x5B2 PUSH1 0x20 SHL PUSH1 0x20 SHR JUMP JUMPDEST POP POP JUMP JUMPDEST PUSH3 0x412 PUSH3 0x521 PUSH1 0x20 SHL PUSH1 0x20 SHR JUMP JUMPDEST DUP1 PUSH1 0x1B PUSH1 0x0 PUSH2 0x100 EXP DUP2 SLOAD DUP2 PUSH1 0xFF MUL NOT AND SWAP1 DUP4 ISZERO ISZERO MUL OR SWAP1 SSTORE POP POP JUMP JUMPDEST PUSH3 0x441 DUP3 DUP3 PUSH3 0x664 PUSH1 0x20 SHL PUSH1 0x20 SHR JUMP JUMPDEST PUSH3 0x51D JUMPI PUSH1 0x1 PUSH1 0x9 PUSH1 0x0 DUP5 DUP2 MSTORE PUSH1 0x20 ADD SWAP1 DUP2 MSTORE PUSH1 0x20 ADD PUSH1 0x0 KECCAK256 PUSH1 0x0 ADD PUSH1 0x0 DUP4 PUSH20 0xFFFFFFFFFFFFFFFFFFFFFFFFFFFFFFFFFFFFFFFF AND PUSH20 0xFFFFFFFFFFFFFFFFFFFFFFFFFFFFFFFFFFFFFFFF AND DUP2 MSTORE PUSH1 0x20 ADD SWAP1 DUP2 MSTORE PUSH1 0x20 ADD PUSH1 0x0 KECCAK256 PUSH1 0x0 PUSH2 0x100 EXP DUP2 SLOAD DUP2 PUSH1 0xFF MUL NOT AND SWAP1 DUP4 ISZERO ISZERO MUL OR SWAP1 SSTORE POP PUSH3 0x4C2 PUSH3 0x2CC PUSH1 0x20 SHL PUSH1 0x20 SHR JUMP JUMPDEST PUSH20 0xFFFFFFFFFFFFFFFFFFFFFFFFFFFFFFFFFFFFFFFF AND DUP2 PUSH20 0xFFFFFFFFFFFFFFFFFFFFFFFFFFFFFFFFFFFFFFFF AND DUP4 PUSH32 0x2F8788117E7EFF1D82E926EC794901D17C78024A50270940304540A733656F0D PUSH1 0x40 MLOAD PUSH1 0x40 MLOAD DUP1 SWAP2 SUB SWAP1 LOG4 JUMPDEST POP POP JUMP JUMPDEST PUSH3 0x531 PUSH3 0x2CC PUSH1 0x20 SHL PUSH1 0x20 SHR JUMP JUMPDEST PUSH20 0xFFFFFFFFFFFFFFFFFFFFFFFFFFFFFFFFFFFFFFFF AND PUSH3 0x557 PUSH3 0x6CF PUSH1 0x20 SHL PUSH1 0x20 SHR JUMP JUMPDEST PUSH20 0xFFFFFFFFFFFFFFFFFFFFFFFFFFFFFFFFFFFFFFFF AND EQ PUSH3 0x5B0 JUMPI PUSH1 0x40 MLOAD PUSH32 0x8C379A000000000000000000000000000000000000000000000000000000000 DUP2 MSTORE PUSH1 0x4 ADD PUSH3 0x5A7 SWAP1 PUSH3 0xF74 JUMP JUMPDEST PUSH1 0x40 MLOAD DUP1 SWAP2 SUB SWAP1 REVERT JUMPDEST JUMP JUMPDEST PUSH3 0x5C4 DUP4 DUP4 PUSH3 0x6F8 PUSH1 0x20 SHL PUSH1 0x20 SHR JUMP JUMPDEST PUSH1 0x0 DUP4 PUSH20 0xFFFFFFFFFFFFFFFFFFFFFFFFFFFFFFFFFFFFFFFF AND EXTCODESIZE EQ PUSH3 0x65F JUMPI PUSH1 0x0 PUSH1 0x1 SLOAD SWAP1 POP PUSH1 0x0 DUP4 DUP3 SUB SWAP1 POP JUMPDEST PUSH3 0x60E PUSH1 0x0 DUP7 DUP4 DUP1 PUSH1 0x1 ADD SWAP5 POP DUP7 PUSH3 0x8E0 PUSH1 0x20 SHL PUSH1 0x20 SHR JUMP JUMPDEST PUSH3 0x645 JUMPI PUSH1 0x40 MLOAD PUSH32 0xD1A57ED600000000000000000000000000000000000000000000000000000000 DUP2 MSTORE PUSH1 0x4 ADD PUSH1 0x40 MLOAD DUP1 SWAP2 SUB SWAP1 REVERT JUMPDEST DUP2 DUP2 LT PUSH3 0x5F3 JUMPI DUP2 PUSH1 0x1 SLOAD EQ PUSH3 0x65C JUMPI PUSH1 0x0 DUP1 REVERT JUMPDEST POP POP JUMPDEST POP POP POP JUMP JUMPDEST PUSH1 0x0 PUSH1 0x9 PUSH1 0x0 DUP5 DUP2 MSTORE PUSH1 0x20 ADD SWAP1 DUP2 MSTORE PUSH1 0x20 ADD PUSH1 0x0 KECCAK256 PUSH1 0x0 ADD PUSH1 0x0 DUP4 PUSH20 0xFFFFFFFFFFFFFFFFFFFFFFFFFFFFFFFFFFFFFFFF AND PUSH20 0xFFFFFFFFFFFFFFFFFFFFFFFFFFFFFFFFFFFFFFFF AND DUP2 MSTORE PUSH1 0x20 ADD SWAP1 DUP2 MSTORE PUSH1 0x20 ADD PUSH1 0x0 KECCAK256 PUSH1 0x0 SWAP1 SLOAD SWAP1 PUSH2 0x100 EXP SWAP1 DIV PUSH1 0xFF AND SWAP1 POP SWAP3 SWAP2 POP POP JUMP JUMPDEST PUSH1 0x0 DUP1 PUSH1 0x0 SWAP1 SLOAD SWAP1 PUSH2 0x100 EXP SWAP1 DIV PUSH20 0xFFFFFFFFFFFFFFFFFFFFFFFFFFFFFFFFFFFFFFFF AND SWAP1 POP SWAP1 JUMP JUMPDEST PUSH1 0x0 PUSH1 0x1 SLOAD SWAP1 POP PUSH1 0x0 DUP3 SUB PUSH3 0x73A JUMPI PUSH1 0x40 MLOAD PUSH32 0xB562E8DD00000000000000000000000000000000000000000000000000000000 DUP2 MSTORE PUSH1 0x4 ADD PUSH1 0x40 MLOAD DUP1 SWAP2 SUB SWAP1 REVERT JUMPDEST PUSH3 0x74F PUSH1 0x0 DUP5 DUP4 DUP6 PUSH3 0xA41 PUSH1 0x20 SHL PUSH1 0x20 SHR JUMP JUMPDEST PUSH1 0x1 PUSH1 0x40 PUSH1 0x1 SWAP1 SHL OR DUP3 MUL PUSH1 0x6 PUSH1 0x0 DUP6 PUSH20 0xFFFFFFFFFFFFFFFFFFFFFFFFFFFFFFFFFFFFFFFF AND PUSH20 0xFFFFFFFFFFFFFFFFFFFFFFFFFFFFFFFFFFFFFFFF AND DUP2 MSTORE PUSH1 0x20 ADD SWAP1 DUP2 MSTORE PUSH1 0x20 ADD PUSH1 0x0 KECCAK256 PUSH1 0x0 DUP3 DUP3 SLOAD ADD SWAP3 POP POP DUP2 SWAP1 SSTORE POP PUSH3 0x7DE DUP4 PUSH3 0x7C0 PUSH1 0x0 DUP7 PUSH1 0x0 PUSH3 0xB2A PUSH1 0x20 SHL PUSH1 0x20 SHR JUMP JUMPDEST PUSH3 0x7D1 DUP6 PUSH3 0xB5A PUSH1 0x20 SHL PUSH1 0x20 SHR JUMP JUMPDEST OR PUSH3 0xB6A PUSH1 0x20 SHL PUSH1 0x20 SHR JUMP JUMPDEST PUSH1 0x5 PUSH1 0x0 DUP4 DUP2 MSTORE PUSH1 0x20 ADD SWAP1 DUP2 MSTORE PUSH1 0x20 ADD PUSH1 0x0 KECCAK256 DUP2 SWAP1 SSTORE POP PUSH1 0x0 DUP1 DUP4 DUP4 ADD SWAP1 POP PUSH20 0xFFFFFFFFFFFFFFFFFFFFFFFFFFFFFFFFFFFFFFFF DUP6 AND SWAP2 POP DUP3 DUP3 PUSH1 0x0 PUSH32 0xDDF252AD1BE2C89B69C2B068FC378DAA952BA7F163C4A11628F55A4DF523B3EF PUSH1 0x0 DUP1 LOG4 PUSH1 0x1 DUP4 ADD JUMPDEST DUP2 DUP2 EQ PUSH3 0x881 JUMPI DUP1 DUP4 PUSH1 0x0 PUSH32 0xDDF252AD1BE2C89B69C2B068FC378DAA952BA7F163C4A11628F55A4DF523B3EF PUSH1 0x0 DUP1 LOG4 PUSH1 0x1 DUP2 ADD SWAP1 POP PUSH3 0x844 JUMP JUMPDEST POP PUSH1 0x0 DUP3 SUB PUSH3 0x8BD JUMPI PUSH1 0x40 MLOAD PUSH32 0x2E07630000000000000000000000000000000000000000000000000000000000 DUP2 MSTORE PUSH1 0x4 ADD PUSH1 0x40 MLOAD DUP1 SWAP2 SUB SWAP1 REVERT JUMPDEST DUP1 PUSH1 0x1 DUP2 SWAP1 SSTORE POP POP POP PUSH3 0x8DB PUSH1 0x0 DUP5 DUP4 DUP6 PUSH3 0xB95 PUSH1 0x20 SHL PUSH1 0x20 SHR JUMP JUMPDEST POP POP POP JUMP JUMPDEST PUSH1 0x0 DUP4 PUSH20 0xFFFFFFFFFFFFFFFFFFFFFFFFFFFFFFFFFFFFFFFF AND PUSH4 0x150B7A02 PUSH3 0x90E PUSH3 0xB9B PUSH1 0x20 SHL PUSH1 0x20 SHR JUMP JUMPDEST DUP8 DUP7 DUP7 PUSH1 0x40 MLOAD DUP6 PUSH4 0xFFFFFFFF AND PUSH1 0xE0 SHL DUP2 MSTORE PUSH1 0x4 ADD PUSH3 0x932 SWAP5 SWAP4 SWAP3 SWAP2 SWAP1 PUSH3 0x1086 JUMP JUMPDEST PUSH1 0x20 PUSH1 0x40 MLOAD DUP1 DUP4 SUB DUP2 PUSH1 0x0 DUP8 GAS CALL SWAP3 POP POP POP DUP1 ISZERO PUSH3 0x971 JUMPI POP PUSH1 0x40 MLOAD RETURNDATASIZE PUSH1 0x1F NOT PUSH1 0x1F DUP3 ADD AND DUP3 ADD DUP1 PUSH1 0x40 MSTORE POP DUP2 ADD SWAP1 PUSH3 0x96E SWAP2 SWAP1 PUSH3 0x113C JUMP JUMPDEST PUSH1 0x1 JUMPDEST PUSH3 0x9EE JUMPI RETURNDATASIZE DUP1 PUSH1 0x0 DUP2 EQ PUSH3 0x9A4 JUMPI PUSH1 0x40 MLOAD SWAP2 POP PUSH1 0x1F NOT PUSH1 0x3F RETURNDATASIZE ADD AND DUP3 ADD PUSH1 0x40 MSTORE RETURNDATASIZE DUP3 MSTORE RETURNDATASIZE PUSH1 0x0 PUSH1 0x20 DUP5 ADD RETURNDATACOPY PUSH3 0x9A9 JUMP JUMPDEST PUSH1 0x60 SWAP2 POP JUMPDEST POP PUSH1 0x0 DUP2 MLOAD SUB PUSH3 0x9E6 JUMPI PUSH1 0x40 MLOAD PUSH32 0xD1A57ED600000000000000000000000000000000000000000000000000000000 DUP2 MSTORE PUSH1 0x4 ADD PUSH1 0x40 MLOAD DUP1 SWAP2 SUB SWAP1 REVERT JUMPDEST DUP1 MLOAD DUP2 PUSH1 0x20 ADD REVERT JUMPDEST PUSH4 0x150B7A02 PUSH1 0xE0 SHL PUSH28 0xFFFFFFFFFFFFFFFFFFFFFFFFFFFFFFFFFFFFFFFFFFFFFFFFFFFFFFFF NOT AND DUP2 PUSH28 0xFFFFFFFFFFFFFFFFFFFFFFFFFFFFFFFFFFFFFFFFFFFFFFFFFFFFFFFF NOT AND EQ SWAP2 POP POP SWAP5 SWAP4 POP POP POP POP JUMP JUMPDEST PUSH1 0x0 ISZERO ISZERO PUSH1 0x1B PUSH1 0x0 SWAP1 SLOAD SWAP1 PUSH2 0x100 EXP SWAP1 DIV PUSH1 0xFF AND ISZERO ISZERO EQ DUP1 PUSH3 0xA90 JUMPI POP PUSH1 0x0 PUSH20 0xFFFFFFFFFFFFFFFFFFFFFFFFFFFFFFFFFFFFFFFF AND DUP5 PUSH20 0xFFFFFFFFFFFFFFFFFFFFFFFFFFFFFFFFFFFFFFFF AND EQ JUMPDEST DUP1 PUSH3 0xAC9 JUMPI POP PUSH2 0xDEAD PUSH20 0xFFFFFFFFFFFFFFFFFFFFFFFFFFFFFFFFFFFFFFFF AND DUP4 PUSH20 0xFFFFFFFFFFFFFFFFFFFFFFFFFFFFFFFFFFFFFFFF AND EQ JUMPDEST PUSH3 0xB0B JUMPI PUSH1 0x40 MLOAD PUSH32 0x8C379A000000000000000000000000000000000000000000000000000000000 DUP2 MSTORE PUSH1 0x4 ADD PUSH3 0xB02 SWAP1 PUSH3 0x11BE JUMP JUMPDEST PUSH1 0x40 MLOAD DUP1 SWAP2 SUB SWAP1 REVERT JUMPDEST PUSH3 0xB24 DUP5 DUP5 DUP5 DUP5 PUSH3 0xBA3 PUSH1 0x20 SHL PUSH3 0x311C OR PUSH1 0x20 SHR JUMP JUMPDEST POP POP POP POP JUMP JUMPDEST PUSH1 0x0 DUP1 PUSH1 0xE8 DUP4 SWAP1 SHR SWAP1 POP PUSH1 0xE8 PUSH3 0xB49 DUP7 DUP7 DUP5 PUSH3 0xBA9 PUSH1 0x20 SHL PUSH1 0x20 SHR JUMP JUMPDEST PUSH3 0xFFFFFF AND SWAP1 SHL SWAP2 POP POP SWAP4 SWAP3 POP POP POP JUMP JUMPDEST PUSH1 0x0 PUSH1 0x1 DUP3 EQ PUSH1 0xE1 SHL SWAP1 POP SWAP2 SWAP1 POP JUMP JUMPDEST PUSH1 0x0 PUSH20 0xFFFFFFFFFFFFFFFFFFFFFFFFFFFFFFFFFFFFFFFF DUP4 AND SWAP3 POP DUP2 TIMESTAMP PUSH1 0xA0 SHL OR DUP4 OR SWAP1 POP SWAP3 SWAP2 POP POP JUMP JUMPDEST POP POP POP POP JUMP JUMPDEST PUSH1 0x0 CALLER SWAP1 POP SWAP1 JUMP JUMPDEST POP POP POP POP JUMP JUMPDEST PUSH1 0x0 SWAP4 SWAP3 POP POP POP JUMP JUMPDEST PUSH1 0x0 DUP2 MLOAD SWAP1 POP SWAP2 SWAP1 POP JUMP JUMPDEST PUSH32 0x4E487B7100000000000000000000000000000000000000000000000000000000 PUSH1 0x0 MSTORE PUSH1 0x41 PUSH1 0x4 MSTORE PUSH1 0x24 PUSH1 0x0 REVERT JUMPDEST PUSH32 0x4E487B7100000000000000000000000000000000000000000000000000000000 PUSH1 0x0 MSTORE PUSH1 0x22 PUSH1 0x4 MSTORE PUSH1 0x24 PUSH1 0x0 REVERT JUMPDEST PUSH1 0x0 PUSH1 0x2 DUP3 DIV SWAP1 POP PUSH1 0x1 DUP3 AND DUP1 PUSH3 0xC34 JUMPI PUSH1 0x7F DUP3 AND SWAP2 POP JUMPDEST PUSH1 0x20 DUP3 LT DUP2 SUB PUSH3 0xC4A JUMPI PUSH3 0xC49 PUSH3 0xBEC JUMP JUMPDEST JUMPDEST POP SWAP2 SWAP1 POP JUMP JUMPDEST PUSH1 0x0 DUP2 SWAP1 POP DUP2 PUSH1 0x0 MSTORE PUSH1 0x20 PUSH1 0x0 KECCAK256 SWAP1 POP SWAP2 SWAP1 POP JUMP JUMPDEST PUSH1 0x0 PUSH1 0x20 PUSH1 0x1F DUP4 ADD DIV SWAP1 POP SWAP2 SWAP1 POP JUMP JUMPDEST PUSH1 0x0 DUP3 DUP3 SHL SWAP1 POP SWAP3 SWAP2 POP POP JUMP JUMPDEST PUSH1 0x0 PUSH1 0x8 DUP4 MUL PUSH3 0xCB4 PUSH32 0xFFFFFFFFFFFFFFFFFFFFFFFFFFFFFFFFFFFFFFFFFFFFFFFFFFFFFFFFFFFFFFFF DUP3 PUSH3 0xC75 JUMP JUMPDEST PUSH3 0xCC0 DUP7 DUP4 PUSH3 0xC75 JUMP JUMPDEST SWAP6 POP DUP1 NOT DUP5 AND SWAP4 POP DUP1 DUP7 AND DUP5 OR SWAP3 POP POP POP SWAP4 SWAP3 POP POP POP JUMP JUMPDEST PUSH1 0x0 DUP2 SWAP1 POP SWAP2 SWAP1 POP JUMP JUMPDEST PUSH1 0x0 DUP2 SWAP1 POP SWAP2 SWAP1 POP JUMP JUMPDEST PUSH1 0x0 PUSH3 0xD0D PUSH3 0xD07 PUSH3 0xD01 DUP5 PUSH3 0xCD8 JUMP JUMPDEST PUSH3 0xCE2 JUMP JUMPDEST PUSH3 0xCD8 JUMP JUMPDEST SWAP1 POP SWAP2 SWAP1 POP JUMP JUMPDEST PUSH1 0x0 DUP2 SWAP1 POP SWAP2 SWAP1 POP JUMP JUMPDEST PUSH3 0xD29 DUP4 PUSH3 0xCEC JUMP JUMPDEST PUSH3 0xD41 PUSH3 0xD38 DUP3 PUSH3 0xD14 JUMP JUMPDEST DUP5 DUP5 SLOAD PUSH3 0xC82 JUMP JUMPDEST DUP3 SSTORE POP POP POP POP JUMP JUMPDEST PUSH1 0x0 SWAP1 JUMP JUMPDEST PUSH3 0xD58 PUSH3 0xD49 JUMP JUMPDEST PUSH3 0xD65 DUP2 DUP5 DUP5 PUSH3 0xD1E JUMP JUMPDEST POP POP POP JUMP JUMPDEST JUMPDEST DUP2 DUP2 LT ISZERO PUSH3 0xD8D JUMPI PUSH3 0xD81 PUSH1 0x0 DUP3 PUSH3 0xD4E JUMP JUMPDEST PUSH1 0x1 DUP2 ADD SWAP1 POP PUSH3 0xD6B JUMP JUMPDEST POP POP JUMP JUMPDEST PUSH1 0x1F DUP3 GT ISZERO PUSH3 0xDDC JUMPI PUSH3 0xDA6 DUP2 PUSH3 0xC50 JUMP JUMPDEST PUSH3 0xDB1 DUP5 PUSH3 0xC65 JUMP JUMPDEST DUP2 ADD PUSH1 0x20 DUP6 LT ISZERO PUSH3 0xDC1 JUMPI DUP2 SWAP1 POP JUMPDEST PUSH3 0xDD9 PUSH3 0xDD0 DUP6 PUSH3 0xC65 JUMP JUMPDEST DUP4 ADD DUP3 PUSH3 0xD6A JUMP JUMPDEST POP POP JUMPDEST POP POP POP JUMP JUMPDEST PUSH1 0x0 DUP3 DUP3 SHR SWAP1 POP SWAP3 SWAP2 POP POP JUMP JUMPDEST PUSH1 0x0 PUSH3 0xE01 PUSH1 0x0 NOT DUP5 PUSH1 0x8 MUL PUSH3 0xDE1 JUMP JUMPDEST NOT DUP1 DUP4 AND SWAP2 POP POP SWAP3 SWAP2 POP POP JUMP JUMPDEST PUSH1 0x0 PUSH3 0xE1C DUP4 DUP4 PUSH3 0xDEE JUMP JUMPDEST SWAP2 POP DUP3 PUSH1 0x2 MUL DUP3 OR SWAP1 POP SWAP3 SWAP2 POP POP JUMP JUMPDEST PUSH3 0xE37 DUP3 PUSH3 0xBB2 JUMP JUMPDEST PUSH8 0xFFFFFFFFFFFFFFFF DUP2 GT ISZERO PUSH3 0xE53 JUMPI PUSH3 0xE52 PUSH3 0xBBD JUMP JUMPDEST JUMPDEST PUSH3 0xE5F DUP3 SLOAD PUSH3 0xC1B JUMP JUMPDEST PUSH3 0xE6C DUP3 DUP3 DUP6 PUSH3 0xD91 JUMP JUMPDEST PUSH1 0x0 PUSH1 0x20 SWAP1 POP PUSH1 0x1F DUP4 GT PUSH1 0x1 DUP2 EQ PUSH3 0xEA4 JUMPI PUSH1 0x0 DUP5 ISZERO PUSH3 0xE8F JUMPI DUP3 DUP8 ADD MLOAD SWAP1 POP JUMPDEST PUSH3 0xE9B DUP6 DUP3 PUSH3 0xE0E JUMP JUMPDEST DUP7 SSTORE POP PUSH3 0xF0B JUMP JUMPDEST PUSH1 0x1F NOT DUP5 AND PUSH3 0xEB4 DUP7 PUSH3 0xC50 JUMP JUMPDEST PUSH1 0x0 JUMPDEST DUP3 DUP2 LT ISZERO PUSH3 0xEDE JUMPI DUP5 DUP10 ADD MLOAD DUP3 SSTORE PUSH1 0x1 DUP3 ADD SWAP2 POP PUSH1 0x20 DUP6 ADD SWAP5 POP PUSH1 0x20 DUP2 ADD SWAP1 POP PUSH3 0xEB7 JUMP JUMPDEST DUP7 DUP4 LT ISZERO PUSH3 0xEFE JUMPI DUP5 DUP10 ADD MLOAD PUSH3 0xEFA PUSH1 0x1F DUP10 AND DUP3 PUSH3 0xDEE JUMP JUMPDEST DUP4 SSTORE POP JUMPDEST PUSH1 0x1 PUSH1 0x2 DUP9 MUL ADD DUP9 SSTORE POP POP POP JUMPDEST POP POP POP POP POP POP JUMP JUMPDEST PUSH1 0x0 DUP3 DUP3 MSTORE PUSH1 0x20 DUP3 ADD SWAP1 POP SWAP3 SWAP2 POP POP JUMP JUMPDEST PUSH32 0x4F776E61626C653A2063616C6C6572206973206E6F7420746865206F776E6572 PUSH1 0x0 DUP3 ADD MSTORE POP JUMP JUMPDEST PUSH1 0x0 PUSH3 0xF5C PUSH1 0x20 DUP4 PUSH3 0xF13 JUMP JUMPDEST SWAP2 POP PUSH3 0xF69 DUP3 PUSH3 0xF24 JUMP JUMPDEST PUSH1 0x20 DUP3 ADD SWAP1 POP SWAP2 SWAP1 POP JUMP JUMPDEST PUSH1 0x0 PUSH1 0x20 DUP3 ADD SWAP1 POP DUP2 DUP2 SUB PUSH1 0x0 DUP4 ADD MSTORE PUSH3 0xF8F DUP2 PUSH3 0xF4D JUMP JUMPDEST SWAP1 POP SWAP2 SWAP1 POP JUMP JUMPDEST PUSH1 0x0 PUSH20 0xFFFFFFFFFFFFFFFFFFFFFFFFFFFFFFFFFFFFFFFF DUP3 AND SWAP1 POP SWAP2 SWAP1 POP JUMP JUMPDEST PUSH1 0x0 PUSH3 0xFC3 DUP3 PUSH3 0xF96 JUMP JUMPDEST SWAP1 POP SWAP2 SWAP1 POP JUMP JUMPDEST PUSH3 0xFD5 DUP2 PUSH3 0xFB6 JUMP JUMPDEST DUP3 MSTORE POP POP JUMP JUMPDEST PUSH3 0xFE6 DUP2 PUSH3 0xCD8 JUMP JUMPDEST DUP3 MSTORE POP POP JUMP JUMPDEST PUSH1 0x0 DUP2 MLOAD SWAP1 POP SWAP2 SWAP1 POP JUMP JUMPDEST PUSH1 0x0 DUP3 DUP3 MSTORE PUSH1 0x20 DUP3 ADD SWAP1 POP SWAP3 SWAP2 POP POP JUMP JUMPDEST PUSH1 0x0 JUMPDEST DUP4 DUP2 LT ISZERO PUSH3 0x1028 JUMPI DUP1 DUP3 ADD MLOAD DUP2 DUP5 ADD MSTORE PUSH1 0x20 DUP2 ADD SWAP1 POP PUSH3 0x100B JUMP JUMPDEST PUSH1 0x0 DUP5 DUP5 ADD MSTORE POP POP POP POP JUMP JUMPDEST PUSH1 0x0 PUSH1 0x1F NOT PUSH1 0x1F DUP4 ADD AND SWAP1 POP SWAP2 SWAP1 POP JUMP JUMPDEST PUSH1 0x0 PUSH3 0x1052 DUP3 PUSH3 0xFEC JUMP JUMPDEST PUSH3 0x105E DUP2 DUP6 PUSH3 0xFF7 JUMP JUMPDEST SWAP4 POP PUSH3 0x1070 DUP2 DUP6 PUSH1 0x20 DUP7 ADD PUSH3 0x1008 JUMP JUMPDEST PUSH3 0x107B DUP2 PUSH3 0x1034 JUMP JUMPDEST DUP5 ADD SWAP2 POP POP SWAP3 SWAP2 POP POP JUMP JUMPDEST PUSH1 0x0 PUSH1 0x80 DUP3 ADD SWAP1 POP PUSH3 0x109D PUSH1 0x0 DUP4 ADD DUP8 PUSH3 0xFCA JUMP JUMPDEST PUSH3 0x10AC PUSH1 0x20 DUP4 ADD DUP7 PUSH3 0xFCA JUMP JUMPDEST PUSH3 0x10BB PUSH1 0x40 DUP4 ADD DUP6 PUSH3 0xFDB JUMP JUMPDEST DUP2 DUP2 SUB PUSH1 0x60 DUP4 ADD MSTORE PUSH3 0x10CF DUP2 DUP5 PUSH3 0x1045 JUMP JUMPDEST SWAP1 POP SWAP6 SWAP5 POP POP POP POP POP JUMP JUMPDEST PUSH1 0x0 DUP1 REVERT JUMPDEST PUSH1 0x0 PUSH32 0xFFFFFFFF00000000000000000000000000000000000000000000000000000000 DUP3 AND SWAP1 POP SWAP2 SWAP1 POP JUMP JUMPDEST PUSH3 0x1116 DUP2 PUSH3 0x10DF JUMP JUMPDEST DUP2 EQ PUSH3 0x1122 JUMPI PUSH1 0x0 DUP1 REVERT JUMPDEST POP JUMP JUMPDEST PUSH1 0x0 DUP2 MLOAD SWAP1 POP PUSH3 0x1136 DUP2 PUSH3 0x110B JUMP JUMPDEST SWAP3 SWAP2 POP POP JUMP JUMPDEST PUSH1 0x0 PUSH1 0x20 DUP3 DUP5 SUB SLT ISZERO PUSH3 0x1155 JUMPI PUSH3 0x1154 PUSH3 0x10DA JUMP JUMPDEST JUMPDEST PUSH1 0x0 PUSH3 0x1165 DUP5 DUP3 DUP6 ADD PUSH3 0x1125 JUMP JUMPDEST SWAP2 POP POP SWAP3 SWAP2 POP POP JUMP JUMPDEST PUSH32 0x7472616E736665722069732070726F6869626974656400000000000000000000 PUSH1 0x0 DUP3 ADD MSTORE POP JUMP JUMPDEST PUSH1 0x0 PUSH3 0x11A6 PUSH1 0x16 DUP4 PUSH3 0xF13 JUMP JUMPDEST SWAP2 POP PUSH3 0x11B3 DUP3 PUSH3 0x116E JUMP JUMPDEST PUSH1 0x20 DUP3 ADD SWAP1 POP SWAP2 SWAP1 POP JUMP JUMPDEST PUSH1 0x0 PUSH1 0x20 DUP3 ADD SWAP1 POP DUP2 DUP2 SUB PUSH1 0x0 DUP4 ADD MSTORE PUSH3 0x11D9 DUP2 PUSH3 0x1197 JUMP JUMPDEST SWAP1 POP SWAP2 SWAP1 POP JUMP JUMPDEST PUSH2 0x6A0C DUP1 PUSH3 0x11F0 PUSH1 0x0 CODECOPY PUSH1 0x0 RETURN INVALID PUSH1 0x80 PUSH1 0x40 MSTORE PUSH1 0x4 CALLDATASIZE LT PUSH2 0x472 JUMPI PUSH1 0x0 CALLDATALOAD PUSH1 0xE0 SHR DUP1 PUSH4 0x715018A6 GT PUSH2 0x24A JUMPI DUP1 PUSH4 0xBA6269C6 GT PUSH2 0x139 JUMPI DUP1 PUSH4 0xD6DFAD76 GT PUSH2 0xB6 JUMPI DUP1 PUSH4 0xE985E9C5 GT PUSH2 0x7A JUMPI DUP1 PUSH4 0xE985E9C5 EQ PUSH2 0x1113 JUMPI DUP1 PUSH4 0xF138ABFA EQ PUSH2 0x1150 JUMPI DUP1 PUSH4 0xF2FDE38B EQ PUSH2 0x1179 JUMPI DUP1 PUSH4 0xF48824DB EQ PUSH2 0x11A2 JUMPI DUP1 PUSH4 0xFCD1AAC9 EQ PUSH2 0x11DF JUMPI PUSH2 0x472 JUMP JUMPDEST DUP1 PUSH4 0xD6DFAD76 EQ PUSH2 0x1044 JUMPI DUP1 PUSH4 0xD728312A EQ PUSH2 0x106F JUMPI DUP1 PUSH4 0xDA3EF23F EQ PUSH2 0x1098 JUMPI DUP1 PUSH4 0xDDECC4D0 EQ PUSH2 0x10C1 JUMPI DUP1 PUSH4 0xE39E0269 EQ PUSH2 0x10EA JUMPI PUSH2 0x472 JUMP JUMPDEST DUP1 PUSH4 0xC87B56DD GT PUSH2 0xFD JUMPI DUP1 PUSH4 0xC87B56DD EQ PUSH2 0xF4B JUMPI DUP1 PUSH4 0xD04F32D2 EQ PUSH2 0xF88 JUMPI DUP1 PUSH4 0xD5391393 EQ PUSH2 0xFC5 JUMPI DUP1 PUSH4 0xD547741F EQ PUSH2 0xFF0 JUMPI DUP1 PUSH4 0xD5ABEB01 EQ PUSH2 0x1019 JUMPI PUSH2 0x472 JUMP JUMPDEST DUP1 PUSH4 0xBA6269C6 EQ PUSH2 0xE76 JUMPI DUP1 PUSH4 0xBBB89744 EQ PUSH2 0xEA1 JUMPI DUP1 PUSH4 0xBEDB86FB EQ PUSH2 0xECC JUMPI DUP1 PUSH4 0xC6682862 EQ PUSH2 0xEF5 JUMPI DUP1 PUSH4 0xC84C0387 EQ PUSH2 0xF20 JUMPI PUSH2 0x472 JUMP JUMPDEST DUP1 PUSH4 0x9659867E GT PUSH2 0x1C7 JUMPI DUP1 PUSH4 0xA72193B6 GT PUSH2 0x18B JUMPI DUP1 PUSH4 0xA72193B6 EQ PUSH2 0xDB2 JUMPI DUP1 PUSH4 0xA9E2ACD5 EQ PUSH2 0xDDD JUMPI DUP1 PUSH4 0xAABB9A86 EQ PUSH2 0xE06 JUMPI DUP1 PUSH4 0xB5F94D06 EQ PUSH2 0xE31 JUMPI DUP1 PUSH4 0xB88D4FDE EQ PUSH2 0xE5A JUMPI PUSH2 0x472 JUMP JUMPDEST DUP1 PUSH4 0x9659867E EQ PUSH2 0xCEE JUMPI DUP1 PUSH4 0x981EB344 EQ PUSH2 0xD19 JUMPI DUP1 PUSH4 0x99F98898 EQ PUSH2 0xD42 JUMPI DUP1 PUSH4 0xA217FDDF EQ PUSH2 0xD5E JUMPI DUP1 PUSH4 0xA22CB465 EQ PUSH2 0xD89 JUMPI PUSH2 0x472 JUMP JUMPDEST DUP1 PUSH4 0x8DA5CB5B GT PUSH2 0x20E JUMPI DUP1 PUSH4 0x8DA5CB5B EQ PUSH2 0xC07 JUMPI DUP1 PUSH4 0x8E73CF00 EQ PUSH2 0xC32 JUMPI DUP1 PUSH4 0x91D14854 EQ PUSH2 0xC5B JUMPI DUP1 PUSH4 0x942C9273 EQ PUSH2 0xC98 JUMPI DUP1 PUSH4 0x95D89B41 EQ PUSH2 0xCC3 JUMPI PUSH2 0x472 JUMP JUMPDEST DUP1 PUSH4 0x715018A6 EQ PUSH2 0xB48 JUMPI DUP1 PUSH4 0x73EF64FD EQ PUSH2 0xB5F JUMPI DUP1 PUSH4 0x7CB64759 EQ PUSH2 0xB8A JUMPI DUP1 PUSH4 0x7EE3B2AC EQ PUSH2 0xBB3 JUMPI DUP1 PUSH4 0x877984CB EQ PUSH2 0xBDC JUMPI PUSH2 0x472 JUMP JUMPDEST DUP1 PUSH4 0x3511CD54 GT PUSH2 0x366 JUMPI DUP1 PUSH4 0x5978C012 GT PUSH2 0x2E3 JUMPI DUP1 PUSH4 0x6B1A2B7F GT PUSH2 0x2A7 JUMPI DUP1 PUSH4 0x6B1A2B7F EQ PUSH2 0xA72 JUMPI DUP1 PUSH4 0x6B8EE0EC EQ PUSH2 0xA8E JUMPI DUP1 PUSH4 0x6C0360EB EQ PUSH2 0xAB7 JUMPI DUP1 PUSH4 0x6F8B44B0 EQ PUSH2 0xAE2 JUMPI DUP1 PUSH4 0x70A08231 EQ PUSH2 0xB0B JUMPI PUSH2 0x472 JUMP JUMPDEST DUP1 PUSH4 0x5978C012 EQ PUSH2 0x98D JUMPI DUP1 PUSH4 0x599487C3 EQ PUSH2 0x9B6 JUMPI DUP1 PUSH4 0x5C975ABB EQ PUSH2 0x9DF JUMPI DUP1 PUSH4 0x6352211E EQ PUSH2 0xA0A JUMPI DUP1 PUSH4 0x674C02AA EQ PUSH2 0xA47 JUMPI PUSH2 0x472 JUMP JUMPDEST DUP1 PUSH4 0x44A0D68A GT PUSH2 0x32A JUMPI DUP1 PUSH4 0x44A0D68A EQ PUSH2 0x898 JUMPI DUP1 PUSH4 0x47705CBC EQ PUSH2 0x8C1 JUMPI DUP1 PUSH4 0x499A15D4 EQ PUSH2 0x8FE JUMPI DUP1 PUSH4 0x4E6BF204 EQ PUSH2 0x93B JUMPI DUP1 PUSH4 0x55F804B3 EQ PUSH2 0x964 JUMPI PUSH2 0x472 JUMP JUMPDEST DUP1 PUSH4 0x3511CD54 EQ PUSH2 0x7E1 JUMPI DUP1 PUSH4 0x36568ABE EQ PUSH2 0x81E JUMPI DUP1 PUSH4 0x3CCFD60B EQ PUSH2 0x847 JUMPI DUP1 PUSH4 0x3CF40DF3 EQ PUSH2 0x851 JUMPI DUP1 PUSH4 0x42842E0E EQ PUSH2 0x87C JUMPI PUSH2 0x472 JUMP JUMPDEST DUP1 PUSH4 0x17DC10C4 GT PUSH2 0x3F4 JUMPI DUP1 PUSH4 0x248A9CA3 GT PUSH2 0x3B8 JUMPI DUP1 PUSH4 0x248A9CA3 EQ PUSH2 0x6FC JUMPI DUP1 PUSH4 0x279A669E EQ PUSH2 0x739 JUMPI DUP1 PUSH4 0x282C51F3 EQ PUSH2 0x762 JUMPI DUP1 PUSH4 0x2EB4A7AB EQ PUSH2 0x78D JUMPI DUP1 PUSH4 0x2F2FF15D EQ PUSH2 0x7B8 JUMPI PUSH2 0x472 JUMP JUMPDEST DUP1 PUSH4 0x17DC10C4 EQ PUSH2 0x638 JUMPI DUP1 PUSH4 0x18160DDD EQ PUSH2 0x661 JUMPI DUP1 PUSH4 0x1E0FBFA2 EQ PUSH2 0x68C JUMPI DUP1 PUSH4 0x23B872DD EQ PUSH2 0x6B7 JUMPI DUP1 PUSH4 0x23C03085 EQ PUSH2 0x6D3 JUMPI PUSH2 0x472 JUMP JUMPDEST DUP1 PUSH4 0x81812FC GT PUSH2 0x43B JUMPI DUP1 PUSH4 0x81812FC EQ PUSH2 0x55E JUMPI DUP1 PUSH4 0x95EA7B3 EQ PUSH2 0x59B JUMPI DUP1 PUSH4 0x135D088D EQ PUSH2 0x5B7 JUMPI DUP1 PUSH4 0x13FAEDE6 EQ PUSH2 0x5E2 JUMPI DUP1 PUSH4 0x1581B600 EQ PUSH2 0x60D JUMPI PUSH2 0x472 JUMP JUMPDEST DUP1 PUSH3 0x85BB6F EQ PUSH2 0x477 JUMPI DUP1 PUSH4 0x1340A32 EQ PUSH2 0x4A2 JUMPI DUP1 PUSH4 0x1FFC9A7 EQ PUSH2 0x4CD JUMPI DUP1 PUSH4 0x4787CA2 EQ PUSH2 0x50A JUMPI DUP1 PUSH4 0x6FDDE03 EQ PUSH2 0x533 JUMPI JUMPDEST PUSH1 0x0 DUP1 REVERT JUMPDEST CALLVALUE DUP1 ISZERO PUSH2 0x483 JUMPI PUSH1 0x0 DUP1 REVERT JUMPDEST POP PUSH2 0x48C PUSH2 0x1208 JUMP JUMPDEST PUSH1 0x40 MLOAD PUSH2 0x499 SWAP2 SWAP1 PUSH2 0x47DA JUMP JUMPDEST PUSH1 0x40 MLOAD DUP1 SWAP2 SUB SWAP1 RETURN JUMPDEST CALLVALUE DUP1 ISZERO PUSH2 0x4AE JUMPI PUSH1 0x0 DUP1 REVERT JUMPDEST POP PUSH2 0x4B7 PUSH2 0x121B JUMP JUMPDEST PUSH1 0x40 MLOAD PUSH2 0x4C4 SWAP2 SWAP1 PUSH2 0x4885 JUMP JUMPDEST PUSH1 0x40 MLOAD DUP1 SWAP2 SUB SWAP1 RETURN JUMPDEST CALLVALUE DUP1 ISZERO PUSH2 0x4D9 JUMPI PUSH1 0x0 DUP1 REVERT JUMPDEST POP PUSH2 0x4F4 PUSH1 0x4 DUP1 CALLDATASIZE SUB DUP2 ADD SWAP1 PUSH2 0x4EF SWAP2 SWAP1 PUSH2 0x4913 JUMP JUMPDEST PUSH2 0x12A9 JUMP JUMPDEST PUSH1 0x40 MLOAD PUSH2 0x501 SWAP2 SWAP1 PUSH2 0x47DA JUMP JUMPDEST PUSH1 0x40 MLOAD DUP1 SWAP2 SUB SWAP1 RETURN JUMPDEST CALLVALUE DUP1 ISZERO PUSH2 0x516 JUMPI PUSH1 0x0 DUP1 REVERT JUMPDEST POP PUSH2 0x531 PUSH1 0x4 DUP1 CALLDATASIZE SUB DUP2 ADD SWAP1 PUSH2 0x52C SWAP2 SWAP1 PUSH2 0x4A75 JUMP JUMPDEST PUSH2 0x12CB JUMP JUMPDEST STOP JUMPDEST CALLVALUE DUP1 ISZERO PUSH2 0x53F JUMPI PUSH1 0x0 DUP1 REVERT JUMPDEST POP PUSH2 0x548 PUSH2 0x12E6 JUMP JUMPDEST PUSH1 0x40 MLOAD PUSH2 0x555 SWAP2 SWAP1 PUSH2 0x4885 JUMP JUMPDEST PUSH1 0x40 MLOAD DUP1 SWAP2 SUB SWAP1 RETURN JUMPDEST CALLVALUE DUP1 ISZERO PUSH2 0x56A JUMPI PUSH1 0x0 DUP1 REVERT JUMPDEST POP PUSH2 0x585 PUSH1 0x4 DUP1 CALLDATASIZE SUB DUP2 ADD SWAP1 PUSH2 0x580 SWAP2 SWAP1 PUSH2 0x4AF4 JUMP JUMPDEST PUSH2 0x1378 JUMP JUMPDEST PUSH1 0x40 MLOAD PUSH2 0x592 SWAP2 SWAP1 PUSH2 0x4B62 JUMP JUMPDEST PUSH1 0x40 MLOAD DUP1 SWAP2 SUB SWAP1 RETURN JUMPDEST PUSH2 0x5B5 PUSH1 0x4 DUP1 CALLDATASIZE SUB DUP2 ADD SWAP1 PUSH2 0x5B0 SWAP2 SWAP1 PUSH2 0x4BA9 JUMP JUMPDEST PUSH2 0x13F7 JUMP JUMPDEST STOP JUMPDEST CALLVALUE DUP1 ISZERO PUSH2 0x5C3 JUMPI PUSH1 0x0 DUP1 REVERT JUMPDEST POP PUSH2 0x5CC PUSH2 0x145B JUMP JUMPDEST PUSH1 0x40 MLOAD PUSH2 0x5D9 SWAP2 SWAP1 PUSH2 0x4885 JUMP JUMPDEST PUSH1 0x40 MLOAD DUP1 SWAP2 SUB SWAP1 RETURN JUMPDEST CALLVALUE DUP1 ISZERO PUSH2 0x5EE JUMPI PUSH1 0x0 DUP1 REVERT JUMPDEST POP PUSH2 0x5F7 PUSH2 0x14E9 JUMP JUMPDEST PUSH1 0x40 MLOAD PUSH2 0x604 SWAP2 SWAP1 PUSH2 0x4BF8 JUMP JUMPDEST PUSH1 0x40 MLOAD DUP1 SWAP2 SUB SWAP1 RETURN JUMPDEST CALLVALUE DUP1 ISZERO PUSH2 0x619 JUMPI PUSH1 0x0 DUP1 REVERT JUMPDEST POP PUSH2 0x622 PUSH2 0x14EF JUMP JUMPDEST PUSH1 0x40 MLOAD PUSH2 0x62F SWAP2 SWAP1 PUSH2 0x4B62 JUMP JUMPDEST PUSH1 0x40 MLOAD DUP1 SWAP2 SUB SWAP1 RETURN JUMPDEST CALLVALUE DUP1 ISZERO PUSH2 0x644 JUMPI PUSH1 0x0 DUP1 REVERT JUMPDEST POP PUSH2 0x65F PUSH1 0x4 DUP1 CALLDATASIZE SUB DUP2 ADD SWAP1 PUSH2 0x65A SWAP2 SWAP1 PUSH2 0x4C3F JUMP JUMPDEST PUSH2 0x1507 JUMP JUMPDEST STOP JUMPDEST CALLVALUE DUP1 ISZERO PUSH2 0x66D JUMPI PUSH1 0x0 DUP1 REVERT JUMPDEST POP PUSH2 0x676 PUSH2 0x152C JUMP JUMPDEST PUSH1 0x40 MLOAD PUSH2 0x683 SWAP2 SWAP1 PUSH2 0x4BF8 JUMP JUMPDEST PUSH1 0x40 MLOAD DUP1 SWAP2 SUB SWAP1 RETURN JUMPDEST CALLVALUE DUP1 ISZERO PUSH2 0x698 JUMPI PUSH1 0x0 DUP1 REVERT JUMPDEST POP PUSH2 0x6A1 PUSH2 0x1543 JUMP JUMPDEST PUSH1 0x40 MLOAD PUSH2 0x6AE SWAP2 SWAP1 PUSH2 0x4C85 JUMP JUMPDEST PUSH1 0x40 MLOAD DUP1 SWAP2 SUB SWAP1 RETURN JUMPDEST PUSH2 0x6D1 PUSH1 0x4 DUP1 CALLDATASIZE SUB DUP2 ADD SWAP1 PUSH2 0x6CC SWAP2 SWAP1 PUSH2 0x4CA0 JUMP JUMPDEST PUSH2 0x1567 JUMP JUMPDEST STOP JUMPDEST CALLVALUE DUP1 ISZERO PUSH2 0x6DF JUMPI PUSH1 0x0 DUP1 REVERT JUMPDEST POP PUSH2 0x6FA PUSH1 0x4 DUP1 CALLDATASIZE SUB DUP2 ADD SWAP1 PUSH2 0x6F5 SWAP2 SWAP1 PUSH2 0x4CF3 JUMP JUMPDEST PUSH2 0x1889 JUMP JUMPDEST STOP JUMPDEST CALLVALUE DUP1 ISZERO PUSH2 0x708 JUMPI PUSH1 0x0 DUP1 REVERT JUMPDEST POP PUSH2 0x723 PUSH1 0x4 DUP1 CALLDATASIZE SUB DUP2 ADD SWAP1 PUSH2 0x71E SWAP2 SWAP1 PUSH2 0x4D4C JUMP JUMPDEST PUSH2 0x18D5 JUMP JUMPDEST PUSH1 0x40 MLOAD PUSH2 0x730 SWAP2 SWAP1 PUSH2 0x4C85 JUMP JUMPDEST PUSH1 0x40 MLOAD DUP1 SWAP2 SUB SWAP1 RETURN JUMPDEST CALLVALUE DUP1 ISZERO PUSH2 0x745 JUMPI PUSH1 0x0 DUP1 REVERT JUMPDEST POP PUSH2 0x760 PUSH1 0x4 DUP1 CALLDATASIZE SUB DUP2 ADD SWAP1 PUSH2 0x75B SWAP2 SWAP1 PUSH2 0x4E9C JUMP JUMPDEST PUSH2 0x18F5 JUMP JUMPDEST STOP JUMPDEST CALLVALUE DUP1 ISZERO PUSH2 0x76E JUMPI PUSH1 0x0 DUP1 REVERT JUMPDEST POP PUSH2 0x777 PUSH2 0x1AB2 JUMP JUMPDEST PUSH1 0x40 MLOAD PUSH2 0x784 SWAP2 SWAP1 PUSH2 0x4C85 JUMP JUMPDEST PUSH1 0x40 MLOAD DUP1 SWAP2 SUB SWAP1 RETURN JUMPDEST CALLVALUE DUP1 ISZERO PUSH2 0x799 JUMPI PUSH1 0x0 DUP1 REVERT JUMPDEST POP PUSH2 0x7A2 PUSH2 0x1AD6 JUMP JUMPDEST PUSH1 0x40 MLOAD PUSH2 0x7AF SWAP2 SWAP1 PUSH2 0x4C85 JUMP JUMPDEST PUSH1 0x40 MLOAD DUP1 SWAP2 SUB SWAP1 RETURN JUMPDEST CALLVALUE DUP1 ISZERO PUSH2 0x7C4 JUMPI PUSH1 0x0 DUP1 REVERT JUMPDEST POP PUSH2 0x7DF PUSH1 0x4 DUP1 CALLDATASIZE SUB DUP2 ADD SWAP1 PUSH2 0x7DA SWAP2 SWAP1 PUSH2 0x4F18 JUMP JUMPDEST PUSH2 0x1ADC JUMP JUMPDEST STOP JUMPDEST CALLVALUE DUP1 ISZERO PUSH2 0x7ED JUMPI PUSH1 0x0 DUP1 REVERT JUMPDEST POP PUSH2 0x808 PUSH1 0x4 DUP1 CALLDATASIZE SUB DUP2 ADD SWAP1 PUSH2 0x803 SWAP2 SWAP1 PUSH2 0x4F58 JUMP JUMPDEST PUSH2 0x1AFD JUMP JUMPDEST PUSH1 0x40 MLOAD PUSH2 0x815 SWAP2 SWAP1 PUSH2 0x4BF8 JUMP JUMPDEST PUSH1 0x40 MLOAD DUP1 SWAP2 SUB SWAP1 RETURN JUMPDEST CALLVALUE DUP1 ISZERO PUSH2 0x82A JUMPI PUSH1 0x0 DUP1 REVERT JUMPDEST POP PUSH2 0x845 PUSH1 0x4 DUP1 CALLDATASIZE SUB DUP2 ADD SWAP1 PUSH2 0x840 SWAP2 SWAP1 PUSH2 0x4F18 JUMP JUMPDEST PUSH2 0x1B58 JUMP JUMPDEST STOP JUMPDEST PUSH2 0x84F PUSH2 0x1BDB JUMP JUMPDEST STOP JUMPDEST CALLVALUE DUP1 ISZERO PUSH2 0x85D JUMPI PUSH1 0x0 DUP1 REVERT JUMPDEST POP PUSH2 0x866 PUSH2 0x1C70 JUMP JUMPDEST PUSH1 0x40 MLOAD PUSH2 0x873 SWAP2 SWAP1 PUSH2 0x47DA JUMP JUMPDEST PUSH1 0x40 MLOAD DUP1 SWAP2 SUB SWAP1 RETURN JUMPDEST PUSH2 0x896 PUSH1 0x4 DUP1 CALLDATASIZE SUB DUP2 ADD SWAP1 PUSH2 0x891 SWAP2 SWAP1 PUSH2 0x4CA0 JUMP JUMPDEST PUSH2 0x1C83 JUMP JUMPDEST STOP JUMPDEST CALLVALUE DUP1 ISZERO PUSH2 0x8A4 JUMPI PUSH1 0x0 DUP1 REVERT JUMPDEST POP PUSH2 0x8BF PUSH1 0x4 DUP1 CALLDATASIZE SUB DUP2 ADD SWAP1 PUSH2 0x8BA SWAP2 SWAP1 PUSH2 0x4AF4 JUMP JUMPDEST PUSH2 0x1CA3 JUMP JUMPDEST STOP JUMPDEST CALLVALUE DUP1 ISZERO PUSH2 0x8CD JUMPI PUSH1 0x0 DUP1 REVERT JUMPDEST POP PUSH2 0x8E8 PUSH1 0x4 DUP1 CALLDATASIZE SUB DUP2 ADD SWAP1 PUSH2 0x8E3 SWAP2 SWAP1 PUSH2 0x4CF3 JUMP JUMPDEST PUSH2 0x1CB5 JUMP JUMPDEST PUSH1 0x40 MLOAD PUSH2 0x8F5 SWAP2 SWAP1 PUSH2 0x4BF8 JUMP JUMPDEST PUSH1 0x40 MLOAD DUP1 SWAP2 SUB SWAP1 RETURN JUMPDEST CALLVALUE DUP1 ISZERO PUSH2 0x90A JUMPI PUSH1 0x0 DUP1 REVERT JUMPDEST POP PUSH2 0x925 PUSH1 0x4 DUP1 CALLDATASIZE SUB DUP2 ADD SWAP1 PUSH2 0x920 SWAP2 SWAP1 PUSH2 0x4F58 JUMP JUMPDEST PUSH2 0x1D11 JUMP JUMPDEST PUSH1 0x40 MLOAD PUSH2 0x932 SWAP2 SWAP1 PUSH2 0x4BF8 JUMP JUMPDEST PUSH1 0x40 MLOAD DUP1 SWAP2 SUB SWAP1 RETURN JUMPDEST CALLVALUE DUP1 ISZERO PUSH2 0x947 JUMPI PUSH1 0x0 DUP1 REVERT JUMPDEST POP PUSH2 0x962 PUSH1 0x4 DUP1 CALLDATASIZE SUB DUP2 ADD SWAP1 PUSH2 0x95D SWAP2 SWAP1 PUSH2 0x505B JUMP JUMPDEST PUSH2 0x1D36 JUMP JUMPDEST STOP JUMPDEST CALLVALUE DUP1 ISZERO PUSH2 0x970 JUMPI PUSH1 0x0 DUP1 REVERT JUMPDEST POP PUSH2 0x98B PUSH1 0x4 DUP1 CALLDATASIZE SUB DUP2 ADD SWAP1 PUSH2 0x986 SWAP2 SWAP1 PUSH2 0x4A75 JUMP JUMPDEST PUSH2 0x1DFA JUMP JUMPDEST STOP JUMPDEST CALLVALUE DUP1 ISZERO PUSH2 0x999 JUMPI PUSH1 0x0 DUP1 REVERT JUMPDEST POP PUSH2 0x9B4 PUSH1 0x4 DUP1 CALLDATASIZE SUB DUP2 ADD SWAP1 PUSH2 0x9AF SWAP2 SWAP1 PUSH2 0x50E6 JUMP JUMPDEST PUSH2 0x1E15 JUMP JUMPDEST STOP JUMPDEST CALLVALUE DUP1 ISZERO PUSH2 0x9C2 JUMPI PUSH1 0x0 DUP1 REVERT JUMPDEST POP PUSH2 0x9DD PUSH1 0x4 DUP1 CALLDATASIZE SUB DUP2 ADD SWAP1 PUSH2 0x9D8 SWAP2 SWAP1 PUSH2 0x4A75 JUMP JUMPDEST PUSH2 0x1F40 JUMP JUMPDEST STOP JUMPDEST CALLVALUE DUP1 ISZERO PUSH2 0x9EB JUMPI PUSH1 0x0 DUP1 REVERT JUMPDEST POP PUSH2 0x9F4 PUSH2 0x1F5B JUMP JUMPDEST PUSH1 0x40 MLOAD PUSH2 0xA01 SWAP2 SWAP1 PUSH2 0x47DA JUMP JUMPDEST PUSH1 0x40 MLOAD DUP1 SWAP2 SUB SWAP1 RETURN JUMPDEST CALLVALUE DUP1 ISZERO PUSH2 0xA16 JUMPI PUSH1 0x0 DUP1 REVERT JUMPDEST POP PUSH2 0xA31 PUSH1 0x4 DUP1 CALLDATASIZE SUB DUP2 ADD SWAP1 PUSH2 0xA2C SWAP2 SWAP1 PUSH2 0x4AF4 JUMP JUMPDEST PUSH2 0x1F6E JUMP JUMPDEST PUSH1 0x40 MLOAD PUSH2 0xA3E SWAP2 SWAP1 PUSH2 0x4B62 JUMP JUMPDEST PUSH1 0x40 MLOAD DUP1 SWAP2 SUB SWAP1 RETURN JUMPDEST CALLVALUE DUP1 ISZERO PUSH2 0xA53 JUMPI PUSH1 0x0 DUP1 REVERT JUMPDEST POP PUSH2 0xA5C PUSH2 0x1F80 JUMP JUMPDEST PUSH1 0x40 MLOAD PUSH2 0xA69 SWAP2 SWAP1 PUSH2 0x47DA JUMP JUMPDEST PUSH1 0x40 MLOAD DUP1 SWAP2 SUB SWAP1 RETURN JUMPDEST PUSH2 0xA8C PUSH1 0x4 DUP1 CALLDATASIZE SUB DUP2 ADD SWAP1 PUSH2 0xA87 SWAP2 SWAP1 PUSH2 0x5185 JUMP JUMPDEST PUSH2 0x1F93 JUMP JUMPDEST STOP JUMPDEST CALLVALUE DUP1 ISZERO PUSH2 0xA9A JUMPI PUSH1 0x0 DUP1 REVERT JUMPDEST POP PUSH2 0xAB5 PUSH1 0x4 DUP1 CALLDATASIZE SUB DUP2 ADD SWAP1 PUSH2 0xAB0 SWAP2 SWAP1 PUSH2 0x4C3F JUMP JUMPDEST PUSH2 0x258C JUMP JUMPDEST STOP JUMPDEST CALLVALUE DUP1 ISZERO PUSH2 0xAC3 JUMPI PUSH1 0x0 DUP1 REVERT JUMPDEST POP PUSH2 0xACC PUSH2 0x25B1 JUMP JUMPDEST PUSH1 0x40 MLOAD PUSH2 0xAD9 SWAP2 SWAP1 PUSH2 0x4885 JUMP JUMPDEST PUSH1 0x40 MLOAD DUP1 SWAP2 SUB SWAP1 RETURN JUMPDEST CALLVALUE DUP1 ISZERO PUSH2 0xAEE JUMPI PUSH1 0x0 DUP1 REVERT JUMPDEST POP PUSH2 0xB09 PUSH1 0x4 DUP1 CALLDATASIZE SUB DUP2 ADD SWAP1 PUSH2 0xB04 SWAP2 SWAP1 PUSH2 0x4AF4 JUMP JUMPDEST PUSH2 0x263F JUMP JUMPDEST STOP JUMPDEST CALLVALUE DUP1 ISZERO PUSH2 0xB17 JUMPI PUSH1 0x0 DUP1 REVERT JUMPDEST POP PUSH2 0xB32 PUSH1 0x4 DUP1 CALLDATASIZE SUB DUP2 ADD SWAP1 PUSH2 0xB2D SWAP2 SWAP1 PUSH2 0x4CF3 JUMP JUMPDEST PUSH2 0x2651 JUMP JUMPDEST PUSH1 0x40 MLOAD PUSH2 0xB3F SWAP2 SWAP1 PUSH2 0x4BF8 JUMP JUMPDEST PUSH1 0x40 MLOAD DUP1 SWAP2 SUB SWAP1 RETURN JUMPDEST CALLVALUE DUP1 ISZERO PUSH2 0xB54 JUMPI PUSH1 0x0 DUP1 REVERT JUMPDEST POP PUSH2 0xB5D PUSH2 0x2709 JUMP JUMPDEST STOP JUMPDEST CALLVALUE DUP1 ISZERO PUSH2 0xB6B JUMPI PUSH1 0x0 DUP1 REVERT JUMPDEST POP PUSH2 0xB74 PUSH2 0x271D JUMP JUMPDEST PUSH1 0x40 MLOAD PUSH2 0xB81 SWAP2 SWAP1 PUSH2 0x4BF8 JUMP JUMPDEST PUSH1 0x40 MLOAD DUP1 SWAP2 SUB SWAP1 RETURN JUMPDEST CALLVALUE DUP1 ISZERO PUSH2 0xB96 JUMPI PUSH1 0x0 DUP1 REVERT JUMPDEST POP PUSH2 0xBB1 PUSH1 0x4 DUP1 CALLDATASIZE SUB DUP2 ADD SWAP1 PUSH2 0xBAC SWAP2 SWAP1 PUSH2 0x4D4C JUMP JUMPDEST PUSH2 0x2723 JUMP JUMPDEST STOP JUMPDEST CALLVALUE DUP1 ISZERO PUSH2 0xBBF JUMPI PUSH1 0x0 DUP1 REVERT JUMPDEST POP PUSH2 0xBDA PUSH1 0x4 DUP1 CALLDATASIZE SUB DUP2 ADD SWAP1 PUSH2 0xBD5 SWAP2 SWAP1 PUSH2 0x4AF4 JUMP JUMPDEST PUSH2 0x2735 JUMP JUMPDEST STOP JUMPDEST CALLVALUE DUP1 ISZERO PUSH2 0xBE8 JUMPI PUSH1 0x0 DUP1 REVERT JUMPDEST POP PUSH2 0xBF1 PUSH2 0x2795 JUMP JUMPDEST PUSH1 0x40 MLOAD PUSH2 0xBFE SWAP2 SWAP1 PUSH2 0x526C JUMP JUMPDEST PUSH1 0x40 MLOAD DUP1 SWAP2 SUB SWAP1 RETURN JUMPDEST CALLVALUE DUP1 ISZERO PUSH2 0xC13 JUMPI PUSH1 0x0 DUP1 REVERT JUMPDEST POP PUSH2 0xC1C PUSH2 0x27BB JUMP JUMPDEST PUSH1 0x40 MLOAD PUSH2 0xC29 SWAP2 SWAP1 PUSH2 0x4B62 JUMP JUMPDEST PUSH1 0x40 MLOAD DUP1 SWAP2 SUB SWAP1 RETURN JUMPDEST CALLVALUE DUP1 ISZERO PUSH2 0xC3E JUMPI PUSH1 0x0 DUP1 REVERT JUMPDEST POP PUSH2 0xC59 PUSH1 0x4 DUP1 CALLDATASIZE SUB DUP2 ADD SWAP1 PUSH2 0xC54 SWAP2 SWAP1 PUSH2 0x4C3F JUMP JUMPDEST PUSH2 0x27E4 JUMP JUMPDEST STOP JUMPDEST CALLVALUE DUP1 ISZERO PUSH2 0xC67 JUMPI PUSH1 0x0 DUP1 REVERT JUMPDEST POP PUSH2 0xC82 PUSH1 0x4 DUP1 CALLDATASIZE SUB DUP2 ADD SWAP1 PUSH2 0xC7D SWAP2 SWAP1 PUSH2 0x4F18 JUMP JUMPDEST PUSH2 0x2809 JUMP JUMPDEST PUSH1 0x40 MLOAD PUSH2 0xC8F SWAP2 SWAP1 PUSH2 0x47DA JUMP JUMPDEST PUSH1 0x40 MLOAD DUP1 SWAP2 SUB SWAP1 RETURN JUMPDEST CALLVALUE DUP1 ISZERO PUSH2 0xCA4 JUMPI PUSH1 0x0 DUP1 REVERT JUMPDEST POP PUSH2 0xCAD PUSH2 0x2874 JUMP JUMPDEST PUSH1 0x40 MLOAD PUSH2 0xCBA SWAP2 SWAP1 PUSH2 0x4885 JUMP JUMPDEST PUSH1 0x40 MLOAD DUP1 SWAP2 SUB SWAP1 RETURN JUMPDEST CALLVALUE DUP1 ISZERO PUSH2 0xCCF JUMPI PUSH1 0x0 DUP1 REVERT JUMPDEST POP PUSH2 0xCD8 PUSH2 0x2902 JUMP JUMPDEST PUSH1 0x40 MLOAD PUSH2 0xCE5 SWAP2 SWAP1 PUSH2 0x4885 JUMP JUMPDEST PUSH1 0x40 MLOAD DUP1 SWAP2 SUB SWAP1 RETURN JUMPDEST CALLVALUE DUP1 ISZERO PUSH2 0xCFA JUMPI PUSH1 0x0 DUP1 REVERT JUMPDEST POP PUSH2 0xD03 PUSH2 0x2994 JUMP JUMPDEST PUSH1 0x40 MLOAD PUSH2 0xD10 SWAP2 SWAP1 PUSH2 0x47DA JUMP JUMPDEST PUSH1 0x40 MLOAD DUP1 SWAP2 SUB SWAP1 RETURN JUMPDEST CALLVALUE DUP1 ISZERO PUSH2 0xD25 JUMPI PUSH1 0x0 DUP1 REVERT JUMPDEST POP PUSH2 0xD40 PUSH1 0x4 DUP1 CALLDATASIZE SUB DUP2 ADD SWAP1 PUSH2 0xD3B SWAP2 SWAP1 PUSH2 0x4A75 JUMP JUMPDEST PUSH2 0x29A7 JUMP JUMPDEST STOP JUMPDEST PUSH2 0xD5C PUSH1 0x4 DUP1 CALLDATASIZE SUB DUP2 ADD SWAP1 PUSH2 0xD57 SWAP2 SWAP1 PUSH2 0x4BA9 JUMP JUMPDEST PUSH2 0x29C2 JUMP JUMPDEST STOP JUMPDEST CALLVALUE DUP1 ISZERO PUSH2 0xD6A JUMPI PUSH1 0x0 DUP1 REVERT JUMPDEST POP PUSH2 0xD73 PUSH2 0x2A9C JUMP JUMPDEST PUSH1 0x40 MLOAD PUSH2 0xD80 SWAP2 SWAP1 PUSH2 0x4C85 JUMP JUMPDEST PUSH1 0x40 MLOAD DUP1 SWAP2 SUB SWAP1 RETURN JUMPDEST CALLVALUE DUP1 ISZERO PUSH2 0xD95 JUMPI PUSH1 0x0 DUP1 REVERT JUMPDEST POP PUSH2 0xDB0 PUSH1 0x4 DUP1 CALLDATASIZE SUB DUP2 ADD SWAP1 PUSH2 0xDAB SWAP2 SWAP1 PUSH2 0x5287 JUMP JUMPDEST PUSH2 0x2AA3 JUMP JUMPDEST STOP JUMPDEST CALLVALUE DUP1 ISZERO PUSH2 0xDBE JUMPI PUSH1 0x0 DUP1 REVERT JUMPDEST POP PUSH2 0xDC7 PUSH2 0x2B07 JUMP JUMPDEST PUSH1 0x40 MLOAD PUSH2 0xDD4 SWAP2 SWAP1 PUSH2 0x4BF8 JUMP JUMPDEST PUSH1 0x40 MLOAD DUP1 SWAP2 SUB SWAP1 RETURN JUMPDEST CALLVALUE DUP1 ISZERO PUSH2 0xDE9 JUMPI PUSH1 0x0 DUP1 REVERT JUMPDEST POP PUSH2 0xE04 PUSH1 0x4 DUP1 CALLDATASIZE SUB DUP2 ADD SWAP1 PUSH2 0xDFF SWAP2 SWAP1 PUSH2 0x4AF4 JUMP JUMPDEST PUSH2 0x2B0D JUMP JUMPDEST STOP JUMPDEST CALLVALUE DUP1 ISZERO PUSH2 0xE12 JUMPI PUSH1 0x0 DUP1 REVERT JUMPDEST POP PUSH2 0xE1B PUSH2 0x2B1F JUMP JUMPDEST PUSH1 0x40 MLOAD PUSH2 0xE28 SWAP2 SWAP1 PUSH2 0x4885 JUMP JUMPDEST PUSH1 0x40 MLOAD DUP1 SWAP2 SUB SWAP1 RETURN JUMPDEST CALLVALUE DUP1 ISZERO PUSH2 0xE3D JUMPI PUSH1 0x0 DUP1 REVERT JUMPDEST POP PUSH2 0xE58 PUSH1 0x4 DUP1 CALLDATASIZE SUB DUP2 ADD SWAP1 PUSH2 0xE53 SWAP2 SWAP1 PUSH2 0x4AF4 JUMP JUMPDEST PUSH2 0x2BAD JUMP JUMPDEST STOP JUMPDEST PUSH2 0xE74 PUSH1 0x4 DUP1 CALLDATASIZE SUB DUP2 ADD SWAP1 PUSH2 0xE6F SWAP2 SWAP1 PUSH2 0x5368 JUMP JUMPDEST PUSH2 0x2BBF JUMP JUMPDEST STOP JUMPDEST CALLVALUE DUP1 ISZERO PUSH2 0xE82 JUMPI PUSH1 0x0 DUP1 REVERT JUMPDEST POP PUSH2 0xE8B PUSH2 0x2C32 JUMP JUMPDEST PUSH1 0x40 MLOAD PUSH2 0xE98 SWAP2 SWAP1 PUSH2 0x47DA JUMP JUMPDEST PUSH1 0x40 MLOAD DUP1 SWAP2 SUB SWAP1 RETURN JUMPDEST CALLVALUE DUP1 ISZERO PUSH2 0xEAD JUMPI PUSH1 0x0 DUP1 REVERT JUMPDEST POP PUSH2 0xEB6 PUSH2 0x2C45 JUMP JUMPDEST PUSH1 0x40 MLOAD PUSH2 0xEC3 SWAP2 SWAP1 PUSH2 0x4BF8 JUMP JUMPDEST PUSH1 0x40 MLOAD DUP1 SWAP2 SUB SWAP1 RETURN JUMPDEST CALLVALUE DUP1 ISZERO PUSH2 0xED8 JUMPI PUSH1 0x0 DUP1 REVERT JUMPDEST POP PUSH2 0xEF3 PUSH1 0x4 DUP1 CALLDATASIZE SUB DUP2 ADD SWAP1 PUSH2 0xEEE SWAP2 SWAP1 PUSH2 0x4C3F JUMP JUMPDEST PUSH2 0x2C4B JUMP JUMPDEST STOP JUMPDEST CALLVALUE DUP1 ISZERO PUSH2 0xF01 JUMPI PUSH1 0x0 DUP1 REVERT JUMPDEST POP PUSH2 0xF0A PUSH2 0x2C70 JUMP JUMPDEST PUSH1 0x40 MLOAD PUSH2 0xF17 SWAP2 SWAP1 PUSH2 0x4885 JUMP JUMPDEST PUSH1 0x40 MLOAD DUP1 SWAP2 SUB SWAP1 RETURN JUMPDEST CALLVALUE DUP1 ISZERO PUSH2 0xF2C JUMPI PUSH1 0x0 DUP1 REVERT JUMPDEST POP PUSH2 0xF35 PUSH2 0x2CFE JUMP JUMPDEST PUSH1 0x40 MLOAD PUSH2 0xF42 SWAP2 SWAP1 PUSH2 0x4BF8 JUMP JUMPDEST PUSH1 0x40 MLOAD DUP1 SWAP2 SUB SWAP1 RETURN JUMPDEST CALLVALUE DUP1 ISZERO PUSH2 0xF57 JUMPI PUSH1 0x0 DUP1 REVERT JUMPDEST POP PUSH2 0xF72 PUSH1 0x4 DUP1 CALLDATASIZE SUB DUP2 ADD SWAP1 PUSH2 0xF6D SWAP2 SWAP1 PUSH2 0x4AF4 JUMP JUMPDEST PUSH2 0x2D04 JUMP JUMPDEST PUSH1 0x40 MLOAD PUSH2 0xF7F SWAP2 SWAP1 PUSH2 0x4885 JUMP JUMPDEST PUSH1 0x40 MLOAD DUP1 SWAP2 SUB SWAP1 RETURN JUMPDEST CALLVALUE DUP1 ISZERO PUSH2 0xF94 JUMPI PUSH1 0x0 DUP1 REVERT JUMPDEST POP PUSH2 0xFAF PUSH1 0x4 DUP1 CALLDATASIZE SUB DUP2 ADD SWAP1 PUSH2 0xFAA SWAP2 SWAP1 PUSH2 0x4CF3 JUMP JUMPDEST PUSH2 0x2E6F JUMP JUMPDEST PUSH1 0x40 MLOAD PUSH2 0xFBC SWAP2 SWAP1 PUSH2 0x4BF8 JUMP JUMPDEST PUSH1 0x40 MLOAD DUP1 SWAP2 SUB SWAP1 RETURN JUMPDEST CALLVALUE DUP1 ISZERO PUSH2 0xFD1 JUMPI PUSH1 0x0 DUP1 REVERT JUMPDEST POP PUSH2 0xFDA PUSH2 0x2ECB JUMP JUMPDEST PUSH1 0x40 MLOAD PUSH2 0xFE7 SWAP2 SWAP1 PUSH2 0x4C85 JUMP JUMPDEST PUSH1 0x40 MLOAD DUP1 SWAP2 SUB SWAP1 RETURN JUMPDEST CALLVALUE DUP1 ISZERO PUSH2 0xFFC JUMPI PUSH1 0x0 DUP1 REVERT JUMPDEST POP PUSH2 0x1017 PUSH1 0x4 DUP1 CALLDATASIZE SUB DUP2 ADD SWAP1 PUSH2 0x1012 SWAP2 SWAP1 PUSH2 0x4F18 JUMP JUMPDEST PUSH2 0x2EEF JUMP JUMPDEST STOP JUMPDEST CALLVALUE DUP1 ISZERO PUSH2 0x1025 JUMPI PUSH1 0x0 DUP1 REVERT JUMPDEST POP PUSH2 0x102E PUSH2 0x2F10 JUMP JUMPDEST PUSH1 0x40 MLOAD PUSH2 0x103B SWAP2 SWAP1 PUSH2 0x4BF8 JUMP JUMPDEST PUSH1 0x40 MLOAD DUP1 SWAP2 SUB SWAP1 RETURN JUMPDEST CALLVALUE DUP1 ISZERO PUSH2 0x1050 JUMPI PUSH1 0x0 DUP1 REVERT JUMPDEST POP PUSH2 0x1059 PUSH2 0x2F16 JUMP JUMPDEST PUSH1 0x40 MLOAD PUSH2 0x1066 SWAP2 SWAP1 PUSH2 0x47DA JUMP JUMPDEST PUSH1 0x40 MLOAD DUP1 SWAP2 SUB SWAP1 RETURN JUMPDEST CALLVALUE DUP1 ISZERO PUSH2 0x107B JUMPI PUSH1 0x0 DUP1 REVERT JUMPDEST POP PUSH2 0x1096 PUSH1 0x4 DUP1 CALLDATASIZE SUB DUP2 ADD SWAP1 PUSH2 0x1091 SWAP2 SWAP1 PUSH2 0x4AF4 JUMP JUMPDEST PUSH2 0x2F29 JUMP JUMPDEST STOP JUMPDEST CALLVALUE DUP1 ISZERO PUSH2 0x10A4 JUMPI PUSH1 0x0 DUP1 REVERT JUMPDEST POP PUSH2 0x10BF PUSH1 0x4 DUP1 CALLDATASIZE SUB DUP2 ADD SWAP1 PUSH2 0x10BA SWAP2 SWAP1 PUSH2 0x4A75 JUMP JUMPDEST PUSH2 0x2F3B JUMP JUMPDEST STOP JUMPDEST CALLVALUE DUP1 ISZERO PUSH2 0x10CD JUMPI PUSH1 0x0 DUP1 REVERT JUMPDEST POP PUSH2 0x10E8 PUSH1 0x4 DUP1 CALLDATASIZE SUB DUP2 ADD SWAP1 PUSH2 0x10E3 SWAP2 SWAP1 PUSH2 0x4A75 JUMP JUMPDEST PUSH2 0x2F56 JUMP JUMPDEST STOP JUMPDEST CALLVALUE DUP1 ISZERO PUSH2 0x10F6 JUMPI PUSH1 0x0 DUP1 REVERT JUMPDEST POP PUSH2 0x1111 PUSH1 0x4 DUP1 CALLDATASIZE SUB DUP2 ADD SWAP1 PUSH2 0x110C SWAP2 SWAP1 PUSH2 0x4C3F JUMP JUMPDEST PUSH2 0x2F71 JUMP JUMPDEST STOP JUMPDEST CALLVALUE DUP1 ISZERO PUSH2 0x111F JUMPI PUSH1 0x0 DUP1 REVERT JUMPDEST POP PUSH2 0x113A PUSH1 0x4 DUP1 CALLDATASIZE SUB DUP2 ADD SWAP1 PUSH2 0x1135 SWAP2 SWAP1 PUSH2 0x53EB JUMP JUMPDEST PUSH2 0x2F96 JUMP JUMPDEST PUSH1 0x40 MLOAD PUSH2 0x1147 SWAP2 SWAP1 PUSH2 0x47DA JUMP JUMPDEST PUSH1 0x40 MLOAD DUP1 SWAP2 SUB SWAP1 RETURN JUMPDEST CALLVALUE DUP1 ISZERO PUSH2 0x115C JUMPI PUSH1 0x0 DUP1 REVERT JUMPDEST POP PUSH2 0x1177 PUSH1 0x4 DUP1 CALLDATASIZE SUB DUP2 ADD SWAP1 PUSH2 0x1172 SWAP2 SWAP1 PUSH2 0x4C3F JUMP JUMPDEST PUSH2 0x302A JUMP JUMPDEST STOP JUMPDEST CALLVALUE DUP1 ISZERO PUSH2 0x1185 JUMPI PUSH1 0x0 DUP1 REVERT JUMPDEST POP PUSH2 0x11A0 PUSH1 0x4 DUP1 CALLDATASIZE SUB DUP2 ADD SWAP1 PUSH2 0x119B SWAP2 SWAP1 PUSH2 0x4CF3 JUMP JUMPDEST PUSH2 0x304F JUMP JUMPDEST STOP JUMPDEST CALLVALUE DUP1 ISZERO PUSH2 0x11AE JUMPI PUSH1 0x0 DUP1 REVERT JUMPDEST POP PUSH2 0x11C9 PUSH1 0x4 DUP1 CALLDATASIZE SUB DUP2 ADD SWAP1 PUSH2 0x11C4 SWAP2 SWAP1 PUSH2 0x4F58 JUMP JUMPDEST PUSH2 0x30D2 JUMP JUMPDEST PUSH1 0x40 MLOAD PUSH2 0x11D6 SWAP2 SWAP1 PUSH2 0x4BF8 JUMP JUMPDEST PUSH1 0x40 MLOAD DUP1 SWAP2 SUB SWAP1 RETURN JUMPDEST CALLVALUE DUP1 ISZERO PUSH2 0x11EB JUMPI PUSH1 0x0 DUP1 REVERT JUMPDEST POP PUSH2 0x1206 PUSH1 0x4 DUP1 CALLDATASIZE SUB DUP2 ADD SWAP1 PUSH2 0x1201 SWAP2 SWAP1 PUSH2 0x4C3F JUMP JUMPDEST PUSH2 0x30F7 JUMP JUMPDEST STOP JUMPDEST PUSH1 0xE PUSH1 0x3 SWAP1 SLOAD SWAP1 PUSH2 0x100 EXP SWAP1 DIV PUSH1 0xFF AND DUP2 JUMP JUMPDEST PUSH1 0x1A DUP1 SLOAD PUSH2 0x1228 SWAP1 PUSH2 0x545A JUMP JUMPDEST DUP1 PUSH1 0x1F ADD PUSH1 0x20 DUP1 SWAP2 DIV MUL PUSH1 0x20 ADD PUSH1 0x40 MLOAD SWAP1 DUP2 ADD PUSH1 0x40 MSTORE DUP1 SWAP3 SWAP2 SWAP1 DUP2 DUP2 MSTORE PUSH1 0x20 ADD DUP3 DUP1 SLOAD PUSH2 0x1254 SWAP1 PUSH2 0x545A JUMP JUMPDEST DUP1 ISZERO PUSH2 0x12A1 JUMPI DUP1 PUSH1 0x1F LT PUSH2 0x1276 JUMPI PUSH2 0x100 DUP1 DUP4 SLOAD DIV MUL DUP4 MSTORE SWAP2 PUSH1 0x20 ADD SWAP2 PUSH2 0x12A1 JUMP JUMPDEST DUP3 ADD SWAP2 SWAP1 PUSH1 0x0 MSTORE PUSH1 0x20 PUSH1 0x0 KECCAK256 SWAP1 JUMPDEST DUP2 SLOAD DUP2 MSTORE SWAP1 PUSH1 0x1 ADD SWAP1 PUSH1 0x20 ADD DUP1 DUP4 GT PUSH2 0x1284 JUMPI DUP3 SWAP1 SUB PUSH1 0x1F AND DUP3 ADD SWAP2 JUMPDEST POP POP POP POP POP DUP2 JUMP JUMPDEST PUSH1 0x0 PUSH2 0x12B4 DUP3 PUSH2 0x3122 JUMP JUMPDEST DUP1 PUSH2 0x12C4 JUMPI POP PUSH2 0x12C3 DUP3 PUSH2 0x319C JUMP JUMPDEST JUMPDEST SWAP1 POP SWAP2 SWAP1 POP JUMP JUMPDEST PUSH2 0x12D3 PUSH2 0x322E JUMP JUMPDEST DUP1 PUSH1 0x17 SWAP1 DUP2 PUSH2 0x12E2 SWAP2 SWAP1 PUSH2 0x562D JUMP JUMPDEST POP POP JUMP JUMPDEST PUSH1 0x60 PUSH1 0x3 DUP1 SLOAD PUSH2 0x12F5 SWAP1 PUSH2 0x545A JUMP JUMPDEST DUP1 PUSH1 0x1F ADD PUSH1 0x20 DUP1 SWAP2 DIV MUL PUSH1 0x20 ADD PUSH1 0x40 MLOAD SWAP1 DUP2 ADD PUSH1 0x40 MSTORE DUP1 SWAP3 SWAP2 SWAP1 DUP2 DUP2 MSTORE PUSH1 0x20 ADD DUP3 DUP1 SLOAD PUSH2 0x1321 SWAP1 PUSH2 0x545A JUMP JUMPDEST DUP1 ISZERO PUSH2 0x136E JUMPI DUP1 PUSH1 0x1F LT PUSH2 0x1343 JUMPI PUSH2 0x100 DUP1 DUP4 SLOAD DIV MUL DUP4 MSTORE SWAP2 PUSH1 0x20 ADD SWAP2 PUSH2 0x136E JUMP JUMPDEST DUP3 ADD SWAP2 SWAP1 PUSH1 0x0 MSTORE PUSH1 0x20 PUSH1 0x0 KECCAK256 SWAP1 JUMPDEST DUP2 SLOAD DUP2 MSTORE SWAP1 PUSH1 0x1 ADD SWAP1 PUSH1 0x20 ADD DUP1 DUP4 GT PUSH2 0x1351 JUMPI DUP3 SWAP1 SUB PUSH1 0x1F AND DUP3 ADD SWAP2 JUMPDEST POP POP POP POP POP SWAP1 POP SWAP1 JUMP JUMPDEST PUSH1 0x0 PUSH2 0x1383 DUP3 PUSH2 0x32AC JUMP JUMPDEST PUSH2 0x13B9 JUMPI PUSH1 0x40 MLOAD PUSH32 0xCF4700E400000000000000000000000000000000000000000000000000000000 DUP2 MSTORE PUSH1 0x4 ADD PUSH1 0x40 MLOAD DUP1 SWAP2 SUB SWAP1 REVERT JUMPDEST PUSH1 0x7 PUSH1 0x0 DUP4 DUP2 MSTORE PUSH1 0x20 ADD SWAP1 DUP2 MSTORE PUSH1 0x20 ADD PUSH1 0x0 KECCAK256 PUSH1 0x0 ADD PUSH1 0x0 SWAP1 SLOAD SWAP1 PUSH2 0x100 EXP SWAP1 DIV PUSH20 0xFFFFFFFFFFFFFFFFFFFFFFFFFFFFFFFFFFFFFFFF AND SWAP1 POP SWAP2 SWAP1 POP JUMP JUMPDEST PUSH1 0x0 ISZERO ISZERO PUSH1 0x1B PUSH1 0x0 SWAP1 SLOAD SWAP1 PUSH2 0x100 EXP SWAP1 DIV PUSH1 0xFF AND ISZERO ISZERO EQ PUSH2 0x144D JUMPI PUSH1 0x40 MLOAD PUSH32 0x8C379A000000000000000000000000000000000000000000000000000000000 DUP2 MSTORE PUSH1 0x4 ADD PUSH2 0x1444 SWAP1 PUSH2 0x574B JUMP JUMPDEST PUSH1 0x40 MLOAD DUP1 SWAP2 SUB SWAP1 REVERT JUMPDEST PUSH2 0x1457 DUP3 DUP3 PUSH2 0x330B JUMP JUMPDEST POP POP JUMP JUMPDEST PUSH1 0x17 DUP1 SLOAD PUSH2 0x1468 SWAP1 PUSH2 0x545A JUMP JUMPDEST DUP1 PUSH1 0x1F ADD PUSH1 0x20 DUP1 SWAP2 DIV MUL PUSH1 0x20 ADD PUSH1 0x40 MLOAD SWAP1 DUP2 ADD PUSH1 0x40 MSTORE DUP1 SWAP3 SWAP2 SWAP1 DUP2 DUP2 MSTORE PUSH1 0x20 ADD DUP3 DUP1 SLOAD PUSH2 0x1494 SWAP1 PUSH2 0x545A JUMP JUMPDEST DUP1 ISZERO PUSH2 0x14E1 JUMPI DUP1 PUSH1 0x1F LT PUSH2 0x14B6 JUMPI PUSH2 0x100 DUP1 DUP4 SLOAD DIV MUL DUP4 MSTORE SWAP2 PUSH1 0x20 ADD SWAP2 PUSH2 0x14E1 JUMP JUMPDEST DUP3 ADD SWAP2 SWAP1 PUSH1 0x0 MSTORE PUSH1 0x20 PUSH1 0x0 KECCAK256 SWAP1 JUMPDEST DUP2 SLOAD DUP2 MSTORE SWAP1 PUSH1 0x1 ADD SWAP1 PUSH1 0x20 ADD DUP1 DUP4 GT PUSH2 0x14C4 JUMPI DUP3 SWAP1 SUB PUSH1 0x1F AND DUP3 ADD SWAP2 JUMPDEST POP POP POP POP POP DUP2 JUMP JUMPDEST PUSH1 0xA SLOAD DUP2 JUMP JUMPDEST PUSH20 0xDECF4B112D4120B6998E5020A6B4819E490F7DB6 DUP2 JUMP JUMPDEST PUSH2 0x150F PUSH2 0x322E JUMP JUMPDEST DUP1 PUSH1 0xE PUSH1 0x1 PUSH2 0x100 EXP DUP2 SLOAD DUP2 PUSH1 0xFF MUL NOT AND SWAP1 DUP4 ISZERO ISZERO MUL OR SWAP1 SSTORE POP POP JUMP JUMPDEST PUSH1 0x0 PUSH2 0x1536 PUSH2 0x344F JUMP JUMPDEST PUSH1 0x2 SLOAD PUSH1 0x1 SLOAD SUB SUB SWAP1 POP SWAP1 JUMP JUMPDEST PUSH32 0x3A2F235C9DAAF33349D300AADFF2F15078A89DF81BCFDD45BA11C8F816BDDC6F DUP2 JUMP JUMPDEST PUSH1 0x0 PUSH2 0x1572 DUP3 PUSH2 0x3458 JUMP JUMPDEST SWAP1 POP DUP4 PUSH20 0xFFFFFFFFFFFFFFFFFFFFFFFFFFFFFFFFFFFFFFFF AND DUP2 PUSH20 0xFFFFFFFFFFFFFFFFFFFFFFFFFFFFFFFFFFFFFFFF AND EQ PUSH2 0x15D9 JUMPI PUSH1 0x40 MLOAD PUSH32 0xA114810000000000000000000000000000000000000000000000000000000000 DUP2 MSTORE PUSH1 0x4 ADD PUSH1 0x40 MLOAD DUP1 SWAP2 SUB SWAP1 REVERT JUMPDEST PUSH1 0x0 DUP1 PUSH2 0x15E5 DUP5 PUSH2 0x3524 JUMP JUMPDEST SWAP2 POP SWAP2 POP PUSH2 0x15FB DUP2 DUP8 PUSH2 0x15F6 PUSH2 0x354B JUMP JUMPDEST PUSH2 0x3553 JUMP JUMPDEST PUSH2 0x1647 JUMPI PUSH2 0x1610 DUP7 PUSH2 0x160B PUSH2 0x354B JUMP JUMPDEST PUSH2 0x2F96 JUMP JUMPDEST PUSH2 0x1646 JUMPI PUSH1 0x40 MLOAD PUSH32 0x59C896BE00000000000000000000000000000000000000000000000000000000 DUP2 MSTORE PUSH1 0x4 ADD PUSH1 0x40 MLOAD DUP1 SWAP2 SUB SWAP1 REVERT JUMPDEST JUMPDEST PUSH1 0x0 PUSH20 0xFFFFFFFFFFFFFFFFFFFFFFFFFFFFFFFFFFFFFFFF AND DUP6 PUSH20 0xFFFFFFFFFFFFFFFFFFFFFFFFFFFFFFFFFFFFFFFF AND SUB PUSH2 0x16AD JUMPI PUSH1 0x40 MLOAD PUSH32 0xEA553B3400000000000000000000000000000000000000000000000000000000 DUP2 MSTORE PUSH1 0x4 ADD PUSH1 0x40 MLOAD DUP1 SWAP2 SUB SWAP1 REVERT JUMPDEST PUSH2 0x16BA DUP7 DUP7 DUP7 PUSH1 0x1 PUSH2 0x3597 JUMP JUMPDEST DUP1 ISZERO PUSH2 0x16C5 JUMPI PUSH1 0x0 DUP3 SSTORE JUMPDEST PUSH1 0x6 PUSH1 0x0 DUP8 PUSH20 0xFFFFFFFFFFFFFFFFFFFFFFFFFFFFFFFFFFFFFFFF AND PUSH20 0xFFFFFFFFFFFFFFFFFFFFFFFFFFFFFFFFFFFFFFFF AND DUP2 MSTORE PUSH1 0x20 ADD SWAP1 DUP2 MSTORE PUSH1 0x20 ADD PUSH1 0x0 KECCAK256 PUSH1 0x0 DUP2 SLOAD PUSH1 0x1 SWAP1 SUB SWAP2 SWAP1 POP DUP2 SWAP1 SSTORE POP PUSH1 0x6 PUSH1 0x0 DUP7 PUSH20 0xFFFFFFFFFFFFFFFFFFFFFFFFFFFFFFFFFFFFFFFF AND PUSH20 0xFFFFFFFFFFFFFFFFFFFFFFFFFFFFFFFFFFFFFFFF AND DUP2 MSTORE PUSH1 0x20 ADD SWAP1 DUP2 MSTORE PUSH1 0x20 ADD PUSH1 0x0 KECCAK256 PUSH1 0x0 DUP2 SLOAD PUSH1 0x1 ADD SWAP2 SWAP1 POP DUP2 SWAP1 SSTORE POP PUSH2 0x1793 DUP6 PUSH2 0x176F DUP9 DUP9 DUP8 PUSH2 0x366E JUMP JUMPDEST PUSH29 0x200000000000000000000000000000000000000000000000000000000 OR PUSH2 0x3696 JUMP JUMPDEST PUSH1 0x5 PUSH1 0x0 DUP7 DUP2 MSTORE PUSH1 0x20 ADD SWAP1 DUP2 MSTORE PUSH1 0x20 ADD PUSH1 0x0 KECCAK256 DUP2 SWAP1 SSTORE POP PUSH1 0x0 PUSH29 0x200000000000000000000000000000000000000000000000000000000 DUP5 AND SUB PUSH2 0x1819 JUMPI PUSH1 0x0 PUSH1 0x1 DUP6 ADD SWAP1 POP PUSH1 0x0 PUSH1 0x5 PUSH1 0x0 DUP4 DUP2 MSTORE PUSH1 0x20 ADD SWAP1 DUP2 MSTORE PUSH1 0x20 ADD PUSH1 0x0 KECCAK256 SLOAD SUB PUSH2 0x1817 JUMPI PUSH1 0x1 SLOAD DUP2 EQ PUSH2 0x1816 JUMPI DUP4 PUSH1 0x5 PUSH1 0x0 DUP4 DUP2 MSTORE PUSH1 0x20 ADD SWAP1 DUP2 MSTORE PUSH1 0x20 ADD PUSH1 0x0 KECCAK256 DUP2 SWAP1 SSTORE POP JUMPDEST JUMPDEST POP JUMPDEST DUP4 DUP6 PUSH20 0xFFFFFFFFFFFFFFFFFFFFFFFFFFFFFFFFFFFFFFFF AND DUP8 PUSH20 0xFFFFFFFFFFFFFFFFFFFFFFFFFFFFFFFFFFFFFFFF AND PUSH32 0xDDF252AD1BE2C89B69C2B068FC378DAA952BA7F163C4A11628F55A4DF523B3EF PUSH1 0x40 MLOAD PUSH1 0x40 MLOAD DUP1 SWAP2 SUB SWAP1 LOG4 PUSH2 0x1881 DUP7 DUP7 DUP7 PUSH1 0x1 PUSH2 0x36C1 JUMP JUMPDEST POP POP POP POP POP POP JUMP JUMPDEST PUSH2 0x1891 PUSH2 0x322E JUMP JUMPDEST DUP1 PUSH1 0x16 PUSH1 0x0 PUSH2 0x100 EXP DUP2 SLOAD DUP2 PUSH20 0xFFFFFFFFFFFFFFFFFFFFFFFFFFFFFFFFFFFFFFFF MUL NOT AND SWAP1 DUP4 PUSH20 0xFFFFFFFFFFFFFFFFFFFFFFFFFFFFFFFFFFFFFFFF AND MUL OR SWAP1 SSTORE POP POP JUMP JUMPDEST PUSH1 0x0 PUSH1 0x9 PUSH1 0x0 DUP4 DUP2 MSTORE PUSH1 0x20 ADD SWAP1 DUP2 MSTORE PUSH1 0x20 ADD PUSH1 0x0 KECCAK256 PUSH1 0x1 ADD SLOAD SWAP1 POP SWAP2 SWAP1 POP JUMP JUMPDEST PUSH2 0x191F PUSH32 0x3A2F235C9DAAF33349D300AADFF2F15078A89DF81BCFDD45BA11C8F816BDDC6F CALLER PUSH2 0x2809 JUMP JUMPDEST PUSH2 0x195E JUMPI PUSH1 0x40 MLOAD PUSH32 0x8C379A000000000000000000000000000000000000000000000000000000000 DUP2 MSTORE PUSH1 0x4 ADD PUSH2 0x1955 SWAP1 PUSH2 0x57B7 JUMP JUMPDEST PUSH1 0x40 MLOAD DUP1 SWAP2 SUB SWAP1 REVERT JUMPDEST PUSH1 0x0 DUP1 JUMPDEST DUP3 MLOAD DUP2 LT ISZERO PUSH2 0x19A6 JUMPI DUP3 DUP2 DUP2 MLOAD DUP2 LT PUSH2 0x197E JUMPI PUSH2 0x197D PUSH2 0x57D7 JUMP JUMPDEST JUMPDEST PUSH1 0x20 MUL PUSH1 0x20 ADD ADD MLOAD DUP3 PUSH2 0x1991 SWAP2 SWAP1 PUSH2 0x5835 JUMP JUMPDEST SWAP2 POP DUP1 DUP1 PUSH2 0x199E SWAP1 PUSH2 0x5869 JUMP JUMPDEST SWAP2 POP POP PUSH2 0x1962 JUMP JUMPDEST POP DUP1 PUSH1 0x0 LT PUSH2 0x19EA JUMPI PUSH1 0x40 MLOAD PUSH32 0x8C379A000000000000000000000000000000000000000000000000000000000 DUP2 MSTORE PUSH1 0x4 ADD PUSH2 0x19E1 SWAP1 PUSH2 0x58FD JUMP JUMPDEST PUSH1 0x40 MLOAD DUP1 SWAP2 SUB SWAP1 REVERT JUMPDEST PUSH1 0xB SLOAD DUP2 PUSH2 0x19F6 PUSH2 0x152C JUMP JUMPDEST PUSH2 0x1A00 SWAP2 SWAP1 PUSH2 0x5835 JUMP JUMPDEST GT ISZERO PUSH2 0x1A41 JUMPI PUSH1 0x40 MLOAD PUSH32 0x8C379A000000000000000000000000000000000000000000000000000000000 DUP2 MSTORE PUSH1 0x4 ADD PUSH2 0x1A38 SWAP1 PUSH2 0x5969 JUMP JUMPDEST PUSH1 0x40 MLOAD DUP1 SWAP2 SUB SWAP1 REVERT JUMPDEST PUSH1 0x0 JUMPDEST DUP3 MLOAD DUP2 LT ISZERO PUSH2 0x1AAB JUMPI PUSH2 0x1A98 DUP6 DUP6 DUP4 DUP2 DUP2 LT PUSH2 0x1A63 JUMPI PUSH2 0x1A62 PUSH2 0x57D7 JUMP JUMPDEST JUMPDEST SWAP1 POP PUSH1 0x20 MUL ADD PUSH1 0x20 DUP2 ADD SWAP1 PUSH2 0x1A78 SWAP2 SWAP1 PUSH2 0x4CF3 JUMP JUMPDEST DUP5 DUP4 DUP2 MLOAD DUP2 LT PUSH2 0x1A8B JUMPI PUSH2 0x1A8A PUSH2 0x57D7 JUMP JUMPDEST JUMPDEST PUSH1 0x20 MUL PUSH1 0x20 ADD ADD MLOAD PUSH2 0x36C7 JUMP JUMPDEST DUP1 DUP1 PUSH2 0x1AA3 SWAP1 PUSH2 0x5869 JUMP JUMPDEST SWAP2 POP POP PUSH2 0x1A44 JUMP JUMPDEST POP POP POP POP POP JUMP JUMPDEST PUSH32 0x3C11D16CBAFFD01DF69CE1C404F6340EE057498F5F00246190EA54220576A848 DUP2 JUMP JUMPDEST PUSH1 0x10 SLOAD DUP2 JUMP JUMPDEST PUSH2 0x1AE5 DUP3 PUSH2 0x18D5 JUMP JUMPDEST PUSH2 0x1AEE DUP2 PUSH2 0x36E5 JUMP JUMPDEST PUSH2 0x1AF8 DUP4 DUP4 PUSH2 0x36F9 JUMP JUMPDEST POP POP POP JUMP JUMPDEST PUSH1 0x0 PUSH1 0x12 PUSH1 0x0 DUP5 DUP2 MSTORE PUSH1 0x20 ADD SWAP1 DUP2 MSTORE PUSH1 0x20 ADD PUSH1 0x0 KECCAK256 PUSH1 0x0 DUP4 PUSH20 0xFFFFFFFFFFFFFFFFFFFFFFFFFFFFFFFFFFFFFFFF AND PUSH20 0xFFFFFFFFFFFFFFFFFFFFFFFFFFFFFFFFFFFFFFFF AND DUP2 MSTORE PUSH1 0x20 ADD SWAP1 DUP2 MSTORE PUSH1 0x20 ADD PUSH1 0x0 KECCAK256 SLOAD SWAP1 POP SWAP3 SWAP2 POP POP JUMP JUMPDEST PUSH2 0x1B60 PUSH2 0x37DA JUMP JUMPDEST PUSH20 0xFFFFFFFFFFFFFFFFFFFFFFFFFFFFFFFFFFFFFFFF AND DUP2 PUSH20 0xFFFFFFFFFFFFFFFFFFFFFFFFFFFFFFFFFFFFFFFF AND EQ PUSH2 0x1BCD JUMPI PUSH1 0x40 MLOAD PUSH32 0x8C379A000000000000000000000000000000000000000000000000000000000 DUP2 MSTORE PUSH1 0x4 ADD PUSH2 0x1BC4 SWAP1 PUSH2 0x59FB JUMP JUMPDEST PUSH1 0x40 MLOAD DUP1 SWAP2 SUB SWAP1 REVERT JUMPDEST PUSH2 0x1BD7 DUP3 DUP3 PUSH2 0x37E2 JUMP JUMPDEST POP POP JUMP JUMPDEST PUSH2 0x1BE3 PUSH2 0x322E JUMP JUMPDEST PUSH1 0x0 PUSH20 0xDECF4B112D4120B6998E5020A6B4819E490F7DB6 PUSH20 0xFFFFFFFFFFFFFFFFFFFFFFFFFFFFFFFFFFFFFFFF AND SELFBALANCE PUSH1 0x40 MLOAD PUSH2 0x1C1D SWAP1 PUSH2 0x5A4C JUMP JUMPDEST PUSH1 0x0 PUSH1 0x40 MLOAD DUP1 DUP4 SUB DUP2 DUP6 DUP8 GAS CALL SWAP3 POP POP POP RETURNDATASIZE DUP1 PUSH1 0x0 DUP2 EQ PUSH2 0x1C5A JUMPI PUSH1 0x40 MLOAD SWAP2 POP PUSH1 0x1F NOT PUSH1 0x3F RETURNDATASIZE ADD AND DUP3 ADD PUSH1 0x40 MSTORE RETURNDATASIZE DUP3 MSTORE RETURNDATASIZE PUSH1 0x0 PUSH1 0x20 DUP5 ADD RETURNDATACOPY PUSH2 0x1C5F JUMP JUMPDEST PUSH1 0x60 SWAP2 POP JUMPDEST POP POP SWAP1 POP DUP1 PUSH2 0x1C6D JUMPI PUSH1 0x0 DUP1 REVERT JUMPDEST POP JUMP JUMPDEST PUSH1 0x1B PUSH1 0x0 SWAP1 SLOAD SWAP1 PUSH2 0x100 EXP SWAP1 DIV PUSH1 0xFF AND DUP2 JUMP JUMPDEST PUSH2 0x1C9E DUP4 DUP4 DUP4 PUSH1 0x40 MLOAD DUP1 PUSH1 0x20 ADD PUSH1 0x40 MSTORE DUP1 PUSH1 0x0 DUP2 MSTORE POP PUSH2 0x2BBF JUMP JUMPDEST POP POP POP JUMP JUMPDEST PUSH2 0x1CAB PUSH2 0x322E JUMP JUMPDEST DUP1 PUSH1 0xA DUP2 SWAP1 SSTORE POP POP JUMP JUMPDEST PUSH1 0x0 PUSH1 0x12 PUSH1 0x0 PUSH1 0x11 SLOAD DUP2 MSTORE PUSH1 0x20 ADD SWAP1 DUP2 MSTORE PUSH1 0x20 ADD PUSH1 0x0 KECCAK256 PUSH1 0x0 DUP4 PUSH20 0xFFFFFFFFFFFFFFFFFFFFFFFFFFFFFFFFFFFFFFFF AND PUSH20 0xFFFFFFFFFFFFFFFFFFFFFFFFFFFFFFFFFFFFFFFF AND DUP2 MSTORE PUSH1 0x20 ADD SWAP1 DUP2 MSTORE PUSH1 0x20 ADD PUSH1 0x0 KECCAK256 SLOAD SWAP1 POP SWAP2 SWAP1 POP JUMP JUMPDEST PUSH1 0x13 PUSH1 0x20 MSTORE DUP2 PUSH1 0x0 MSTORE PUSH1 0x40 PUSH1 0x0 KECCAK256 PUSH1 0x20 MSTORE DUP1 PUSH1 0x0 MSTORE PUSH1 0x40 PUSH1 0x0 KECCAK256 PUSH1 0x0 SWAP2 POP SWAP2 POP POP SLOAD DUP2 JUMP JUMPDEST PUSH2 0x1D3E PUSH2 0x322E JUMP JUMPDEST DUP1 MLOAD DUP3 MLOAD EQ PUSH2 0x1D4C JUMPI PUSH1 0x0 DUP1 REVERT JUMPDEST PUSH1 0x0 JUMPDEST DUP3 MLOAD DUP2 LT ISZERO PUSH2 0x1DF4 JUMPI DUP2 DUP2 DUP2 MLOAD DUP2 LT PUSH2 0x1D6B JUMPI PUSH2 0x1D6A PUSH2 0x57D7 JUMP JUMPDEST JUMPDEST PUSH1 0x20 MUL PUSH1 0x20 ADD ADD MLOAD PUSH1 0x13 PUSH1 0x0 DUP7 DUP2 MSTORE PUSH1 0x20 ADD SWAP1 DUP2 MSTORE PUSH1 0x20 ADD PUSH1 0x0 KECCAK256 PUSH1 0x0 DUP6 DUP5 DUP2 MLOAD DUP2 LT PUSH2 0x1D9B JUMPI PUSH2 0x1D9A PUSH2 0x57D7 JUMP JUMPDEST JUMPDEST PUSH1 0x20 MUL PUSH1 0x20 ADD ADD MLOAD PUSH20 0xFFFFFFFFFFFFFFFFFFFFFFFFFFFFFFFFFFFFFFFF AND PUSH20 0xFFFFFFFFFFFFFFFFFFFFFFFFFFFFFFFFFFFFFFFF AND DUP2 MSTORE PUSH1 0x20 ADD SWAP1 DUP2 MSTORE PUSH1 0x20 ADD PUSH1 0x0 KECCAK256 DUP2 SWAP1 SSTORE POP DUP1 DUP1 PUSH2 0x1DEC SWAP1 PUSH2 0x5869 JUMP JUMPDEST SWAP2 POP POP PUSH2 0x1D4F JUMP JUMPDEST POP POP POP POP JUMP JUMPDEST PUSH2 0x1E02 PUSH2 0x322E JUMP JUMPDEST DUP1 PUSH1 0x14 SWAP1 DUP2 PUSH2 0x1E11 SWAP2 SWAP1 PUSH2 0x562D JUMP JUMPDEST POP POP JUMP JUMPDEST PUSH2 0x1E3F PUSH32 0x3C11D16CBAFFD01DF69CE1C404F6340EE057498F5F00246190EA54220576A848 CALLER PUSH2 0x2809 JUMP JUMPDEST PUSH2 0x1E7E JUMPI PUSH1 0x40 MLOAD PUSH32 0x8C379A000000000000000000000000000000000000000000000000000000000 DUP2 MSTORE PUSH1 0x4 ADD PUSH2 0x1E75 SWAP1 PUSH2 0x5AAD JUMP JUMPDEST PUSH1 0x40 MLOAD DUP1 SWAP2 SUB SWAP1 REVERT JUMPDEST PUSH1 0x0 JUMPDEST DUP2 MLOAD DUP2 LT ISZERO PUSH2 0x1F3C JUMPI PUSH1 0x0 DUP3 DUP3 DUP2 MLOAD DUP2 LT PUSH2 0x1E9F JUMPI PUSH2 0x1E9E PUSH2 0x57D7 JUMP JUMPDEST JUMPDEST PUSH1 0x20 MUL PUSH1 0x20 ADD ADD MLOAD SWAP1 POP PUSH2 0x1EB2 DUP2 PUSH2 0x1F6E JUMP JUMPDEST PUSH20 0xFFFFFFFFFFFFFFFFFFFFFFFFFFFFFFFFFFFFFFFF AND CALLER PUSH20 0xFFFFFFFFFFFFFFFFFFFFFFFFFFFFFFFFFFFFFFFF AND EQ PUSH2 0x1F1F JUMPI PUSH1 0x40 MLOAD PUSH32 0x8C379A000000000000000000000000000000000000000000000000000000000 DUP2 MSTORE PUSH1 0x4 ADD PUSH2 0x1F16 SWAP1 PUSH2 0x5B19 JUMP JUMPDEST PUSH1 0x40 MLOAD DUP1 SWAP2 SUB SWAP1 REVERT JUMPDEST PUSH2 0x1F28 DUP2 PUSH2 0x38C4 JUMP JUMPDEST POP DUP1 DUP1 PUSH2 0x1F34 SWAP1 PUSH2 0x5869 JUMP JUMPDEST SWAP2 POP POP PUSH2 0x1E81 JUMP JUMPDEST POP POP JUMP JUMPDEST PUSH2 0x1F48 PUSH2 0x322E JUMP JUMPDEST DUP1 PUSH1 0x19 SWAP1 DUP2 PUSH2 0x1F57 SWAP2 SWAP1 PUSH2 0x562D JUMP JUMPDEST POP POP JUMP JUMPDEST PUSH1 0xE PUSH1 0x0 SWAP1 SLOAD SWAP1 PUSH2 0x100 EXP SWAP1 DIV PUSH1 0xFF AND DUP2 JUMP JUMPDEST PUSH1 0x0 PUSH2 0x1F79 DUP3 PUSH2 0x3458 JUMP JUMPDEST SWAP1 POP SWAP2 SWAP1 POP JUMP JUMPDEST PUSH1 0xE PUSH1 0x1 SWAP1 SLOAD SWAP1 PUSH2 0x100 EXP SWAP1 DIV PUSH1 0xFF AND DUP2 JUMP JUMPDEST CALLER PUSH20 0xFFFFFFFFFFFFFFFFFFFFFFFFFFFFFFFFFFFFFFFF AND ORIGIN PUSH20 0xFFFFFFFFFFFFFFFFFFFFFFFFFFFFFFFFFFFFFFFF AND EQ PUSH2 0x2001 JUMPI PUSH1 0x40 MLOAD PUSH32 0x8C379A000000000000000000000000000000000000000000000000000000000 DUP2 MSTORE PUSH1 0x4 ADD PUSH2 0x1FF8 SWAP1 PUSH2 0x5B85 JUMP JUMPDEST PUSH1 0x40 MLOAD DUP1 SWAP2 SUB SWAP1 REVERT JUMPDEST PUSH1 0xE PUSH1 0x0 SWAP1 SLOAD SWAP1 PUSH2 0x100 EXP SWAP1 DIV PUSH1 0xFF AND ISZERO PUSH2 0x2051 JUMPI PUSH1 0x40 MLOAD PUSH32 0x8C379A000000000000000000000000000000000000000000000000000000000 DUP2 MSTORE PUSH1 0x4 ADD PUSH2 0x2048 SWAP1 PUSH2 0x5BF1 JUMP JUMPDEST PUSH1 0x40 MLOAD DUP1 SWAP2 SUB SWAP1 REVERT JUMPDEST DUP5 PUSH1 0x0 LT PUSH2 0x2094 JUMPI PUSH1 0x40 MLOAD PUSH32 0x8C379A000000000000000000000000000000000000000000000000000000000 DUP2 MSTORE PUSH1 0x4 ADD PUSH2 0x208B SWAP1 PUSH2 0x58FD JUMP JUMPDEST PUSH1 0x40 MLOAD DUP1 SWAP2 SUB SWAP1 REVERT JUMPDEST PUSH1 0xC SLOAD DUP6 GT ISZERO PUSH2 0x20D9 JUMPI PUSH1 0x40 MLOAD PUSH32 0x8C379A000000000000000000000000000000000000000000000000000000000 DUP2 MSTORE PUSH1 0x4 ADD PUSH2 0x20D0 SWAP1 PUSH2 0x5C83 JUMP JUMPDEST PUSH1 0x40 MLOAD DUP1 SWAP2 SUB SWAP1 REVERT JUMPDEST PUSH1 0xB SLOAD DUP6 PUSH1 0x1 PUSH2 0x20E7 PUSH2 0x38D2 JUMP JUMPDEST PUSH2 0x20F1 SWAP2 SWAP1 PUSH2 0x5CA3 JUMP JUMPDEST PUSH2 0x20FB SWAP2 SWAP1 PUSH2 0x5835 JUMP JUMPDEST GT ISZERO PUSH2 0x213C JUMPI PUSH1 0x40 MLOAD PUSH32 0x8C379A000000000000000000000000000000000000000000000000000000000 DUP2 MSTORE PUSH1 0x4 ADD PUSH2 0x2133 SWAP1 PUSH2 0x5969 JUMP JUMPDEST PUSH1 0x40 MLOAD DUP1 SWAP2 SUB SWAP1 REVERT JUMPDEST CALLVALUE DUP6 PUSH1 0xA SLOAD PUSH2 0x214B SWAP2 SWAP1 PUSH2 0x5CD7 JUMP JUMPDEST GT ISZERO PUSH2 0x218C JUMPI PUSH1 0x40 MLOAD PUSH32 0x8C379A000000000000000000000000000000000000000000000000000000000 DUP2 MSTORE PUSH1 0x4 ADD PUSH2 0x2183 SWAP1 PUSH2 0x5D65 JUMP JUMPDEST PUSH1 0x40 MLOAD DUP1 SWAP2 SUB SWAP1 REVERT JUMPDEST PUSH1 0x0 PUSH1 0x1 ISZERO ISZERO PUSH1 0xE PUSH1 0x1 SWAP1 SLOAD SWAP1 PUSH2 0x100 EXP SWAP1 DIV PUSH1 0xFF AND ISZERO ISZERO SUB PUSH2 0x2371 JUMPI PUSH1 0x0 PUSH1 0xF SLOAD SUB PUSH2 0x2276 JUMPI PUSH1 0x0 CALLER DUP7 PUSH1 0x40 MLOAD PUSH1 0x20 ADD PUSH2 0x21C8 SWAP3 SWAP2 SWAP1 PUSH2 0x5DEE JUMP JUMPDEST PUSH1 0x40 MLOAD PUSH1 0x20 DUP2 DUP4 SUB SUB DUP2 MSTORE SWAP1 PUSH1 0x40 MSTORE DUP1 MLOAD SWAP1 PUSH1 0x20 ADD KECCAK256 SWAP1 POP PUSH2 0x222E DUP6 DUP6 DUP1 DUP1 PUSH1 0x20 MUL PUSH1 0x20 ADD PUSH1 0x40 MLOAD SWAP1 DUP2 ADD PUSH1 0x40 MSTORE DUP1 SWAP4 SWAP3 SWAP2 SWAP1 DUP2 DUP2 MSTORE PUSH1 0x20 ADD DUP4 DUP4 PUSH1 0x20 MUL DUP1 DUP3 DUP5 CALLDATACOPY PUSH1 0x0 DUP2 DUP5 ADD MSTORE PUSH1 0x1F NOT PUSH1 0x1F DUP3 ADD AND SWAP1 POP DUP1 DUP4 ADD SWAP3 POP POP POP POP POP POP POP PUSH1 0x10 SLOAD DUP4 PUSH2 0x38DC JUMP JUMPDEST PUSH2 0x226D JUMPI PUSH1 0x40 MLOAD PUSH32 0x8C379A000000000000000000000000000000000000000000000000000000000 DUP2 MSTORE PUSH1 0x4 ADD PUSH2 0x2264 SWAP1 PUSH2 0x5E66 JUMP JUMPDEST PUSH1 0x40 MLOAD DUP1 SWAP2 SUB SWAP1 REVERT JUMPDEST DUP6 SWAP2 POP POP PUSH2 0x236C JUMP JUMPDEST PUSH1 0x1 PUSH1 0xF SLOAD SUB PUSH2 0x236B JUMPI PUSH1 0x0 PUSH1 0x13 PUSH1 0x0 PUSH1 0x11 SLOAD DUP2 MSTORE PUSH1 0x20 ADD SWAP1 DUP2 MSTORE PUSH1 0x20 ADD PUSH1 0x0 KECCAK256 PUSH1 0x0 CALLER PUSH20 0xFFFFFFFFFFFFFFFFFFFFFFFFFFFFFFFFFFFFFFFF AND PUSH20 0xFFFFFFFFFFFFFFFFFFFFFFFFFFFFFFFFFFFFFFFF AND DUP2 MSTORE PUSH1 0x20 ADD SWAP1 DUP2 MSTORE PUSH1 0x20 ADD PUSH1 0x0 KECCAK256 SLOAD SUB PUSH2 0x2315 JUMPI PUSH1 0x40 MLOAD PUSH32 0x8C379A000000000000000000000000000000000000000000000000000000000 DUP2 MSTORE PUSH1 0x4 ADD PUSH2 0x230C SWAP1 PUSH2 0x5E66 JUMP JUMPDEST PUSH1 0x40 MLOAD DUP1 SWAP2 SUB SWAP1 REVERT JUMPDEST PUSH1 0x13 PUSH1 0x0 PUSH1 0x11 SLOAD DUP2 MSTORE PUSH1 0x20 ADD SWAP1 DUP2 MSTORE PUSH1 0x20 ADD PUSH1 0x0 KECCAK256 PUSH1 0x0 CALLER PUSH20 0xFFFFFFFFFFFFFFFFFFFFFFFFFFFFFFFFFFFFFFFF AND PUSH20 0xFFFFFFFFFFFFFFFFFFFFFFFFFFFFFFFFFFFFFFFF AND DUP2 MSTORE PUSH1 0x20 ADD SWAP1 DUP2 MSTORE PUSH1 0x20 ADD PUSH1 0x0 KECCAK256 SLOAD SWAP1 POP JUMPDEST JUMPDEST PUSH2 0x2377 JUMP JUMPDEST PUSH1 0xD SLOAD SWAP1 POP JUMPDEST PUSH1 0x1 ISZERO ISZERO PUSH1 0xE PUSH1 0x2 SWAP1 SLOAD SWAP1 PUSH2 0x100 EXP SWAP1 DIV PUSH1 0xFF AND ISZERO ISZERO SUB PUSH2 0x249C JUMPI PUSH1 0x12 PUSH1 0x0 PUSH1 0x11 SLOAD DUP2 MSTORE PUSH1 0x20 ADD SWAP1 DUP2 MSTORE PUSH1 0x20 ADD PUSH1 0x0 KECCAK256 PUSH1 0x0 CALLER PUSH20 0xFFFFFFFFFFFFFFFFFFFFFFFFFFFFFFFFFFFFFFFF AND PUSH20 0xFFFFFFFFFFFFFFFFFFFFFFFFFFFFFFFFFFFFFFFF AND DUP2 MSTORE PUSH1 0x20 ADD SWAP1 DUP2 MSTORE PUSH1 0x20 ADD PUSH1 0x0 KECCAK256 SLOAD DUP2 PUSH2 0x23F0 SWAP2 SWAP1 PUSH2 0x5CA3 JUMP JUMPDEST DUP7 GT ISZERO PUSH2 0x2432 JUMPI PUSH1 0x40 MLOAD PUSH32 0x8C379A000000000000000000000000000000000000000000000000000000000 DUP2 MSTORE PUSH1 0x4 ADD PUSH2 0x2429 SWAP1 PUSH2 0x5ED2 JUMP JUMPDEST PUSH1 0x40 MLOAD DUP1 SWAP2 SUB SWAP1 REVERT JUMPDEST DUP6 PUSH1 0x12 PUSH1 0x0 PUSH1 0x11 SLOAD DUP2 MSTORE PUSH1 0x20 ADD SWAP1 DUP2 MSTORE PUSH1 0x20 ADD PUSH1 0x0 KECCAK256 PUSH1 0x0 CALLER PUSH20 0xFFFFFFFFFFFFFFFFFFFFFFFFFFFFFFFFFFFFFFFF AND PUSH20 0xFFFFFFFFFFFFFFFFFFFFFFFFFFFFFFFFFFFFFFFF AND DUP2 MSTORE PUSH1 0x20 ADD SWAP1 DUP2 MSTORE PUSH1 0x20 ADD PUSH1 0x0 KECCAK256 PUSH1 0x0 DUP3 DUP3 SLOAD PUSH2 0x2494 SWAP2 SWAP1 PUSH2 0x5835 JUMP JUMPDEST SWAP3 POP POP DUP2 SWAP1 SSTORE POP JUMPDEST PUSH1 0x1 ISZERO ISZERO PUSH1 0xE PUSH1 0x3 SWAP1 SLOAD SWAP1 PUSH2 0x100 EXP SWAP1 DIV PUSH1 0xFF AND ISZERO ISZERO SUB PUSH2 0x257A JUMPI PUSH1 0x1 DUP7 EQ PUSH2 0x24FA JUMPI PUSH1 0x40 MLOAD PUSH32 0x8C379A000000000000000000000000000000000000000000000000000000000 DUP2 MSTORE PUSH1 0x4 ADD PUSH2 0x24F1 SWAP1 PUSH2 0x5F15 JUMP JUMPDEST PUSH1 0x40 MLOAD DUP1 SWAP2 SUB SWAP1 REVERT JUMPDEST PUSH2 0x2503 DUP3 PUSH2 0x1F6E JUMP JUMPDEST PUSH20 0xFFFFFFFFFFFFFFFFFFFFFFFFFFFFFFFFFFFFFFFF AND CALLER PUSH20 0xFFFFFFFFFFFFFFFFFFFFFFFFFFFFFFFFFFFFFFFF AND EQ PUSH2 0x2570 JUMPI PUSH1 0x40 MLOAD PUSH32 0x8C379A000000000000000000000000000000000000000000000000000000000 DUP2 MSTORE PUSH1 0x4 ADD PUSH2 0x2567 SWAP1 PUSH2 0x5B19 JUMP JUMPDEST PUSH1 0x40 MLOAD DUP1 SWAP2 SUB SWAP1 REVERT JUMPDEST PUSH2 0x2579 DUP3 PUSH2 0x38C4 JUMP JUMPDEST JUMPDEST PUSH2 0x2584 CALLER DUP8 PUSH2 0x36C7 JUMP JUMPDEST POP POP POP POP POP POP JUMP JUMPDEST PUSH2 0x2594 PUSH2 0x322E JUMP JUMPDEST DUP1 PUSH1 0x16 PUSH1 0x15 PUSH2 0x100 EXP DUP2 SLOAD DUP2 PUSH1 0xFF MUL NOT AND SWAP1 DUP4 ISZERO ISZERO MUL OR SWAP1 SSTORE POP POP JUMP JUMPDEST PUSH1 0x14 DUP1 SLOAD PUSH2 0x25BE SWAP1 PUSH2 0x545A JUMP JUMPDEST DUP1 PUSH1 0x1F ADD PUSH1 0x20 DUP1 SWAP2 DIV MUL PUSH1 0x20 ADD PUSH1 0x40 MLOAD SWAP1 DUP2 ADD PUSH1 0x40 MSTORE DUP1 SWAP3 SWAP2 SWAP1 DUP2 DUP2 MSTORE PUSH1 0x20 ADD DUP3 DUP1 SLOAD PUSH2 0x25EA SWAP1 PUSH2 0x545A JUMP JUMPDEST DUP1 ISZERO PUSH2 0x2637 JUMPI DUP1 PUSH1 0x1F LT PUSH2 0x260C JUMPI PUSH2 0x100 DUP1 DUP4 SLOAD DIV MUL DUP4 MSTORE SWAP2 PUSH1 0x20 ADD SWAP2 PUSH2 0x2637 JUMP JUMPDEST DUP3 ADD SWAP2 SWAP1 PUSH1 0x0 MSTORE PUSH1 0x20 PUSH1 0x0 KECCAK256 SWAP1 JUMPDEST DUP2 SLOAD DUP2 MSTORE SWAP1 PUSH1 0x1 ADD SWAP1 PUSH1 0x20 ADD DUP1 DUP4 GT PUSH2 0x261A JUMPI DUP3 SWAP1 SUB PUSH1 0x1F AND DUP3 ADD SWAP2 JUMPDEST POP POP POP POP POP DUP2 JUMP JUMPDEST PUSH2 0x2647 PUSH2 0x322E JUMP JUMPDEST DUP1 PUSH1 0xB DUP2 SWAP1 SSTORE POP POP JUMP JUMPDEST PUSH1 0x0 DUP1 PUSH20 0xFFFFFFFFFFFFFFFFFFFFFFFFFFFFFFFFFFFFFFFF AND DUP3 PUSH20 0xFFFFFFFFFFFFFFFFFFFFFFFFFFFFFFFFFFFFFFFF AND SUB PUSH2 0x26B8 JUMPI PUSH1 0x40 MLOAD PUSH32 0x8F4EB60400000000000000000000000000000000000000000000000000000000 DUP2 MSTORE PUSH1 0x4 ADD PUSH1 0x40 MLOAD DUP1 SWAP2 SUB SWAP1 REVERT JUMPDEST PUSH8 0xFFFFFFFFFFFFFFFF PUSH1 0x6 PUSH1 0x0 DUP5 PUSH20 0xFFFFFFFFFFFFFFFFFFFFFFFFFFFFFFFFFFFFFFFF AND PUSH20 0xFFFFFFFFFFFFFFFFFFFFFFFFFFFFFFFFFFFFFFFF AND DUP2 MSTORE PUSH1 0x20 ADD SWAP1 DUP2 MSTORE PUSH1 0x20 ADD PUSH1 0x0 KECCAK256 SLOAD AND SWAP1 POP SWAP2 SWAP1 POP JUMP JUMPDEST PUSH2 0x2711 PUSH2 0x322E JUMP JUMPDEST PUSH2 0x271B PUSH1 0x0 PUSH2 0x38F3 JUMP JUMPDEST JUMP JUMPDEST PUSH1 0xD SLOAD DUP2 JUMP JUMPDEST PUSH2 0x272B PUSH2 0x322E JUMP JUMPDEST DUP1 PUSH1 0x10 DUP2 SWAP1 SSTORE POP POP JUMP JUMPDEST PUSH2 0x273D PUSH2 0x322E JUMP JUMPDEST PUSH1 0x0 DUP2 EQ DUP1 PUSH2 0x274C JUMPI POP PUSH1 0x1 DUP2 EQ JUMPDEST PUSH2 0x278B JUMPI PUSH1 0x40 MLOAD PUSH32 0x8C379A000000000000000000000000000000000000000000000000000000000 DUP2 MSTORE PUSH1 0x4 ADD PUSH2 0x2782 SWAP1 PUSH2 0x5F81 JUMP JUMPDEST PUSH1 0x40 MLOAD DUP1 SWAP2 SUB SWAP1 REVERT JUMPDEST DUP1 PUSH1 0xF DUP2 SWAP1 SSTORE POP POP JUMP JUMPDEST PUSH1 0x16 PUSH1 0x0 SWAP1 SLOAD SWAP1 PUSH2 0x100 EXP SWAP1 DIV PUSH20 0xFFFFFFFFFFFFFFFFFFFFFFFFFFFFFFFFFFFFFFFF AND DUP2 JUMP JUMPDEST PUSH1 0x0 DUP1 PUSH1 0x0 SWAP1 SLOAD SWAP1 PUSH2 0x100 EXP SWAP1 DIV PUSH20 0xFFFFFFFFFFFFFFFFFFFFFFFFFFFFFFFFFFFFFFFF AND SWAP1 POP SWAP1 JUMP JUMPDEST PUSH2 0x27EC PUSH2 0x322E JUMP JUMPDEST DUP1 PUSH1 0xE PUSH1 0x2 PUSH2 0x100 EXP DUP2 SLOAD DUP2 PUSH1 0xFF MUL NOT AND SWAP1 DUP4 ISZERO ISZERO MUL OR SWAP1 SSTORE POP POP JUMP JUMPDEST PUSH1 0x0 PUSH1 0x9 PUSH1 0x0 DUP5 DUP2 MSTORE PUSH1 0x20 ADD SWAP1 DUP2 MSTORE PUSH1 0x20 ADD PUSH1 0x0 KECCAK256 PUSH1 0x0 ADD PUSH1 0x0 DUP4 PUSH20 0xFFFFFFFFFFFFFFFFFFFFFFFFFFFFFFFFFFFFFFFF AND PUSH20 0xFFFFFFFFFFFFFFFFFFFFFFFFFFFFFFFFFFFFFFFF AND DUP2 MSTORE PUSH1 0x20 ADD SWAP1 DUP2 MSTORE PUSH1 0x20 ADD PUSH1 0x0 KECCAK256 PUSH1 0x0 SWAP1 SLOAD SWAP1 PUSH2 0x100 EXP SWAP1 DIV PUSH1 0xFF AND SWAP1 POP SWAP3 SWAP2 POP POP JUMP JUMPDEST PUSH1 0x19 DUP1 SLOAD PUSH2 0x2881 SWAP1 PUSH2 0x545A JUMP JUMPDEST DUP1 PUSH1 0x1F ADD PUSH1 0x20 DUP1 SWAP2 DIV MUL PUSH1 0x20 ADD PUSH1 0x40 MLOAD SWAP1 DUP2 ADD PUSH1 0x40 MSTORE DUP1 SWAP3 SWAP2 SWAP1 DUP2 DUP2 MSTORE PUSH1 0x20 ADD DUP3 DUP1 SLOAD PUSH2 0x28AD SWAP1 PUSH2 0x545A JUMP JUMPDEST DUP1 ISZERO PUSH2 0x28FA JUMPI DUP1 PUSH1 0x1F LT PUSH2 0x28CF JUMPI PUSH2 0x100 DUP1 DUP4 SLOAD DIV MUL DUP4 MSTORE SWAP2 PUSH1 0x20 ADD SWAP2 PUSH2 0x28FA JUMP JUMPDEST DUP3 ADD SWAP2 SWAP1 PUSH1 0x0 MSTORE PUSH1 0x20 PUSH1 0x0 KECCAK256 SWAP1 JUMPDEST DUP2 SLOAD DUP2 MSTORE SWAP1 PUSH1 0x1 ADD SWAP1 PUSH1 0x20 ADD DUP1 DUP4 GT PUSH2 0x28DD JUMPI DUP3 SWAP1 SUB PUSH1 0x1F AND DUP3 ADD SWAP2 JUMPDEST POP POP POP POP POP DUP2 JUMP JUMPDEST PUSH1 0x60 PUSH1 0x4 DUP1 SLOAD PUSH2 0x2911 SWAP1 PUSH2 0x545A JUMP JUMPDEST DUP1 PUSH1 0x1F ADD PUSH1 0x20 DUP1 SWAP2 DIV MUL PUSH1 0x20 ADD PUSH1 0x40 MLOAD SWAP1 DUP2 ADD PUSH1 0x40 MSTORE DUP1 SWAP3 SWAP2 SWAP1 DUP2 DUP2 MSTORE PUSH1 0x20 ADD DUP3 DUP1 SLOAD PUSH2 0x293D SWAP1 PUSH2 0x545A JUMP JUMPDEST DUP1 ISZERO PUSH2 0x298A JUMPI DUP1 PUSH1 0x1F LT PUSH2 0x295F JUMPI PUSH2 0x100 DUP1 DUP4 SLOAD DIV MUL DUP4 MSTORE SWAP2 PUSH1 0x20 ADD SWAP2 PUSH2 0x298A JUMP JUMPDEST DUP3 ADD SWAP2 SWAP1 PUSH1 0x0 MSTORE PUSH1 0x20 PUSH1 0x0 KECCAK256 SWAP1 JUMPDEST DUP2 SLOAD DUP2 MSTORE SWAP1 PUSH1 0x1 ADD SWAP1 PUSH1 0x20 ADD DUP1 DUP4 GT PUSH2 0x296D JUMPI DUP3 SWAP1 SUB PUSH1 0x1F AND DUP3 ADD SWAP2 JUMPDEST POP POP POP POP POP SWAP1 POP SWAP1 JUMP JUMPDEST PUSH1 0xE PUSH1 0x2 SWAP1 SLOAD SWAP1 PUSH2 0x100 EXP SWAP1 DIV PUSH1 0xFF AND DUP2 JUMP JUMPDEST PUSH2 0x29AF PUSH2 0x322E JUMP JUMPDEST DUP1 PUSH1 0x18 SWAP1 DUP2 PUSH2 0x29BE SWAP2 SWAP1 PUSH2 0x562D JUMP JUMPDEST POP POP JUMP JUMPDEST PUSH2 0x29EC PUSH32 0x9F2DF0FED2C77648DE5860A4CC508CD0818C85B8B8A1AB4CEEEF8D981C8956A6 CALLER PUSH2 0x2809 JUMP JUMPDEST PUSH2 0x2A2B JUMPI PUSH1 0x40 MLOAD PUSH32 0x8C379A000000000000000000000000000000000000000000000000000000000 DUP2 MSTORE PUSH1 0x4 ADD PUSH2 0x2A22 SWAP1 PUSH2 0x5FED JUMP JUMPDEST PUSH1 0x40 MLOAD DUP1 SWAP2 SUB SWAP1 REVERT JUMPDEST PUSH1 0xB SLOAD DUP2 PUSH1 0x1 PUSH2 0x2A39 PUSH2 0x38D2 JUMP JUMPDEST PUSH2 0x2A43 SWAP2 SWAP1 PUSH2 0x5CA3 JUMP JUMPDEST PUSH2 0x2A4D SWAP2 SWAP1 PUSH2 0x5835 JUMP JUMPDEST GT ISZERO PUSH2 0x2A8E JUMPI PUSH1 0x40 MLOAD PUSH32 0x8C379A000000000000000000000000000000000000000000000000000000000 DUP2 MSTORE PUSH1 0x4 ADD PUSH2 0x2A85 SWAP1 PUSH2 0x5969 JUMP JUMPDEST PUSH1 0x40 MLOAD DUP1 SWAP2 SUB SWAP1 REVERT JUMPDEST PUSH2 0x2A98 DUP3 DUP3 PUSH2 0x36C7 JUMP JUMPDEST POP POP JUMP JUMPDEST PUSH1 0x0 DUP1 SHL DUP2 JUMP JUMPDEST PUSH1 0x0 ISZERO ISZERO PUSH1 0x1B PUSH1 0x0 SWAP1 SLOAD SWAP1 PUSH2 0x100 EXP SWAP1 DIV PUSH1 0xFF AND ISZERO ISZERO EQ PUSH2 0x2AF9 JUMPI PUSH1 0x40 MLOAD PUSH32 0x8C379A000000000000000000000000000000000000000000000000000000000 DUP2 MSTORE PUSH1 0x4 ADD PUSH2 0x2AF0 SWAP1 PUSH2 0x6059 JUMP JUMPDEST PUSH1 0x40 MLOAD DUP1 SWAP2 SUB SWAP1 REVERT JUMPDEST PUSH2 0x2B03 DUP3 DUP3 PUSH2 0x39B7 JUMP JUMPDEST POP POP JUMP JUMPDEST PUSH1 0xF SLOAD DUP2 JUMP JUMPDEST PUSH2 0x2B15 PUSH2 0x322E JUMP JUMPDEST DUP1 PUSH1 0xC DUP2 SWAP1 SSTORE POP POP JUMP JUMPDEST PUSH1 0x18 DUP1 SLOAD PUSH2 0x2B2C SWAP1 PUSH2 0x545A JUMP JUMPDEST DUP1 PUSH1 0x1F ADD PUSH1 0x20 DUP1 SWAP2 DIV MUL PUSH1 0x20 ADD PUSH1 0x40 MLOAD SWAP1 DUP2 ADD PUSH1 0x40 MSTORE DUP1 SWAP3 SWAP2 SWAP1 DUP2 DUP2 MSTORE PUSH1 0x20 ADD DUP3 DUP1 SLOAD PUSH2 0x2B58 SWAP1 PUSH2 0x545A JUMP JUMPDEST DUP1 ISZERO PUSH2 0x2BA5 JUMPI DUP1 PUSH1 0x1F LT PUSH2 0x2B7A JUMPI PUSH2 0x100 DUP1 DUP4 SLOAD DIV MUL DUP4 MSTORE SWAP2 PUSH1 0x20 ADD SWAP2 PUSH2 0x2BA5 JUMP JUMPDEST DUP3 ADD SWAP2 SWAP1 PUSH1 0x0 MSTORE PUSH1 0x20 PUSH1 0x0 KECCAK256 SWAP1 JUMPDEST DUP2 SLOAD DUP2 MSTORE SWAP1 PUSH1 0x1 ADD SWAP1 PUSH1 0x20 ADD DUP1 DUP4 GT PUSH2 0x2B88 JUMPI DUP3 SWAP1 SUB PUSH1 0x1F AND DUP3 ADD SWAP2 JUMPDEST POP POP POP POP POP DUP2 JUMP JUMPDEST PUSH2 0x2BB5 PUSH2 0x322E JUMP JUMPDEST DUP1 PUSH1 0xD DUP2 SWAP1 SSTORE POP POP JUMP JUMPDEST PUSH2 0x2BCA DUP5 DUP5 DUP5 PUSH2 0x1567 JUMP JUMPDEST PUSH1 0x0 DUP4 PUSH20 0xFFFFFFFFFFFFFFFFFFFFFFFFFFFFFFFFFFFFFFFF AND EXTCODESIZE EQ PUSH2 0x2C2C JUMPI PUSH2 0x2BF5 DUP5 DUP5 DUP5 DUP5 PUSH2 0x3AC2 JUMP JUMPDEST PUSH2 0x2C2B JUMPI PUSH1 0x40 MLOAD PUSH32 0xD1A57ED600000000000000000000000000000000000000000000000000000000 DUP2 MSTORE PUSH1 0x4 ADD PUSH1 0x40 MLOAD DUP1 SWAP2 SUB SWAP1 REVERT JUMPDEST JUMPDEST POP POP POP POP JUMP JUMPDEST PUSH1 0x16 PUSH1 0x14 SWAP1 SLOAD SWAP1 PUSH2 0x100 EXP SWAP1 DIV PUSH1 0xFF AND DUP2 JUMP JUMPDEST PUSH1 0xC SLOAD DUP2 JUMP JUMPDEST PUSH2 0x2C53 PUSH2 0x322E JUMP JUMPDEST DUP1 PUSH1 0xE PUSH1 0x0 PUSH2 0x100 EXP DUP2 SLOAD DUP2 PUSH1 0xFF MUL NOT AND SWAP1 DUP4 ISZERO ISZERO MUL OR SWAP1 SSTORE POP POP JUMP JUMPDEST PUSH1 0x15 DUP1 SLOAD PUSH2 0x2C7D SWAP1 PUSH2 0x545A JUMP JUMPDEST DUP1 PUSH1 0x1F ADD PUSH1 0x20 DUP1 SWAP2 DIV MUL PUSH1 0x20 ADD PUSH1 0x40 MLOAD SWAP1 DUP2 ADD PUSH1 0x40 MSTORE DUP1 SWAP3 SWAP2 SWAP1 DUP2 DUP2 MSTORE PUSH1 0x20 ADD DUP3 DUP1 SLOAD PUSH2 0x2CA9 SWAP1 PUSH2 0x545A JUMP JUMPDEST DUP1 ISZERO PUSH2 0x2CF6 JUMPI DUP1 PUSH1 0x1F LT PUSH2 0x2CCB JUMPI PUSH2 0x100 DUP1 DUP4 SLOAD DIV MUL DUP4 MSTORE SWAP2 PUSH1 0x20 ADD SWAP2 PUSH2 0x2CF6 JUMP JUMPDEST DUP3 ADD SWAP2 SWAP1 PUSH1 0x0 MSTORE PUSH1 0x20 PUSH1 0x0 KECCAK256 SWAP1 JUMPDEST DUP2 SLOAD DUP2 MSTORE SWAP1 PUSH1 0x1 ADD SWAP1 PUSH1 0x20 ADD DUP1 DUP4 GT PUSH2 0x2CD9 JUMPI DUP3 SWAP1 SUB PUSH1 0x1F AND DUP3 ADD SWAP2 JUMPDEST POP POP POP POP POP DUP2 JUMP JUMPDEST PUSH1 0x11 SLOAD DUP2 JUMP JUMPDEST PUSH1 0x60 PUSH1 0x1 ISZERO ISZERO PUSH1 0x16 PUSH1 0x14 SWAP1 SLOAD SWAP1 PUSH2 0x100 EXP SWAP1 DIV PUSH1 0xFF AND ISZERO ISZERO SUB PUSH2 0x2DC9 JUMPI PUSH1 0x16 PUSH1 0x0 SWAP1 SLOAD SWAP1 PUSH2 0x100 EXP SWAP1 DIV PUSH20 0xFFFFFFFFFFFFFFFFFFFFFFFFFFFFFFFFFFFFFFFF AND PUSH20 0xFFFFFFFFFFFFFFFFFFFFFFFFFFFFFFFFFFFFFFFF AND PUSH4 0xC87B56DD DUP4 PUSH1 0x40 MLOAD DUP3 PUSH4 0xFFFFFFFF AND PUSH1 0xE0 SHL DUP2 MSTORE PUSH1 0x4 ADD PUSH2 0x2D7C SWAP2 SWAP1 PUSH2 0x4BF8 JUMP JUMPDEST PUSH1 0x0 PUSH1 0x40 MLOAD DUP1 DUP4 SUB DUP2 DUP7 GAS STATICCALL ISZERO DUP1 ISZERO PUSH2 0x2D99 JUMPI RETURNDATASIZE PUSH1 0x0 DUP1 RETURNDATACOPY RETURNDATASIZE PUSH1 0x0 REVERT JUMPDEST POP POP POP POP PUSH1 0x40 MLOAD RETURNDATASIZE PUSH1 0x0 DUP3 RETURNDATACOPY RETURNDATASIZE PUSH1 0x1F NOT PUSH1 0x1F DUP3 ADD AND DUP3 ADD DUP1 PUSH1 0x40 MSTORE POP DUP2 ADD SWAP1 PUSH2 0x2DC2 SWAP2 SWAP1 PUSH2 0x60E9 JUMP JUMPDEST SWAP1 POP PUSH2 0x2E6A JUMP JUMPDEST PUSH1 0x1 ISZERO ISZERO PUSH1 0x16 PUSH1 0x15 SWAP1 SLOAD SWAP1 PUSH2 0x100 EXP SWAP1 DIV PUSH1 0xFF AND ISZERO ISZERO SUB PUSH2 0x2E3C JUMPI PUSH2 0x2E16 PUSH1 0x18 PUSH1 0x19 PUSH1 0x17 PUSH1 0x1A PUSH1 0x40 MLOAD PUSH1 0x20 ADD PUSH2 0x2E02 SWAP5 SWAP4 SWAP3 SWAP2 SWAP1 PUSH2 0x63FA JUMP JUMPDEST PUSH1 0x40 MLOAD PUSH1 0x20 DUP2 DUP4 SUB SUB DUP2 MSTORE SWAP1 PUSH1 0x40 MSTORE PUSH2 0x3C12 JUMP JUMPDEST PUSH1 0x40 MLOAD PUSH1 0x20 ADD PUSH2 0x2E26 SWAP2 SWAP1 PUSH2 0x6518 JUMP JUMPDEST PUSH1 0x40 MLOAD PUSH1 0x20 DUP2 DUP4 SUB SUB DUP2 MSTORE SWAP1 PUSH1 0x40 MSTORE SWAP1 POP PUSH2 0x2E6A JUMP JUMPDEST PUSH2 0x2E45 DUP3 PUSH2 0x3D8A JUMP JUMPDEST PUSH1 0x15 PUSH1 0x40 MLOAD PUSH1 0x20 ADD PUSH2 0x2E58 SWAP3 SWAP2 SWAP1 PUSH2 0x653A JUMP JUMPDEST PUSH1 0x40 MLOAD PUSH1 0x20 DUP2 DUP4 SUB SUB DUP2 MSTORE SWAP1 PUSH1 0x40 MSTORE SWAP1 POP JUMPDEST SWAP2 SWAP1 POP JUMP JUMPDEST PUSH1 0x0 PUSH1 0x13 PUSH1 0x0 PUSH1 0x11 SLOAD DUP2 MSTORE PUSH1 0x20 ADD SWAP1 DUP2 MSTORE PUSH1 0x20 ADD PUSH1 0x0 KECCAK256 PUSH1 0x0 DUP4 PUSH20 0xFFFFFFFFFFFFFFFFFFFFFFFFFFFFFFFFFFFFFFFF AND PUSH20 0xFFFFFFFFFFFFFFFFFFFFFFFFFFFFFFFFFFFFFFFF AND DUP2 MSTORE PUSH1 0x20 ADD SWAP1 DUP2 MSTORE PUSH1 0x20 ADD PUSH1 0x0 KECCAK256 SLOAD SWAP1 POP SWAP2 SWAP1 POP JUMP JUMPDEST PUSH32 0x9F2DF0FED2C77648DE5860A4CC508CD0818C85B8B8A1AB4CEEEF8D981C8956A6 DUP2 JUMP JUMPDEST PUSH2 0x2EF8 DUP3 PUSH2 0x18D5 JUMP JUMPDEST PUSH2 0x2F01 DUP2 PUSH2 0x36E5 JUMP JUMPDEST PUSH2 0x2F0B DUP4 DUP4 PUSH2 0x37E2 JUMP JUMPDEST POP POP POP JUMP JUMPDEST PUSH1 0xB SLOAD DUP2 JUMP JUMPDEST PUSH1 0x16 PUSH1 0x15 SWAP1 SLOAD SWAP1 PUSH2 0x100 EXP SWAP1 DIV PUSH1 0xFF AND DUP2 JUMP JUMPDEST PUSH2 0x2F31 PUSH2 0x322E JUMP JUMPDEST DUP1 PUSH1 0x11 DUP2 SWAP1 SSTORE POP POP JUMP JUMPDEST PUSH2 0x2F43 PUSH2 0x322E JUMP JUMPDEST DUP1 PUSH1 0x15 SWAP1 DUP2 PUSH2 0x2F52 SWAP2 SWAP1 PUSH2 0x562D JUMP JUMPDEST POP POP JUMP JUMPDEST PUSH2 0x2F5E PUSH2 0x322E JUMP JUMPDEST DUP1 PUSH1 0x1A SWAP1 DUP2 PUSH2 0x2F6D SWAP2 SWAP1 PUSH2 0x562D JUMP JUMPDEST POP POP JUMP JUMPDEST PUSH2 0x2F79 PUSH2 0x322E JUMP JUMPDEST DUP1 PUSH1 0xE PUSH1 0x3 PUSH2 0x100 EXP DUP2 SLOAD DUP2 PUSH1 0xFF MUL NOT AND SWAP1 DUP4 ISZERO ISZERO MUL OR SWAP1 SSTORE POP POP JUMP JUMPDEST PUSH1 0x0 PUSH1 0x8 PUSH1 0x0 DUP5 PUSH20 0xFFFFFFFFFFFFFFFFFFFFFFFFFFFFFFFFFFFFFFFF AND PUSH20 0xFFFFFFFFFFFFFFFFFFFFFFFFFFFFFFFFFFFFFFFF AND DUP2 MSTORE PUSH1 0x20 ADD SWAP1 DUP2 MSTORE PUSH1 0x20 ADD PUSH1 0x0 KECCAK256 PUSH1 0x0 DUP4 PUSH20 0xFFFFFFFFFFFFFFFFFFFFFFFFFFFFFFFFFFFFFFFF AND PUSH20 0xFFFFFFFFFFFFFFFFFFFFFFFFFFFFFFFFFFFFFFFF AND DUP2 MSTORE PUSH1 0x20 ADD SWAP1 DUP2 MSTORE PUSH1 0x20 ADD PUSH1 0x0 KECCAK256 PUSH1 0x0 SWAP1 SLOAD SWAP1 PUSH2 0x100 EXP SWAP1 DIV PUSH1 0xFF AND SWAP1 POP SWAP3 SWAP2 POP POP JUMP JUMPDEST PUSH2 0x3032 PUSH2 0x322E JUMP JUMPDEST DUP1 PUSH1 0x16 PUSH1 0x14 PUSH2 0x100 EXP DUP2 SLOAD DUP2 PUSH1 0xFF MUL NOT AND SWAP1 DUP4 ISZERO ISZERO MUL OR SWAP1 SSTORE POP POP JUMP JUMPDEST PUSH2 0x3057 PUSH2 0x322E JUMP JUMPDEST PUSH1 0x0 PUSH20 0xFFFFFFFFFFFFFFFFFFFFFFFFFFFFFFFFFFFFFFFF AND DUP2 PUSH20 0xFFFFFFFFFFFFFFFFFFFFFFFFFFFFFFFFFFFFFFFF AND SUB PUSH2 0x30C6 JUMPI PUSH1 0x40 MLOAD PUSH32 0x8C379A000000000000000000000000000000000000000000000000000000000 DUP2 MSTORE PUSH1 0x4 ADD PUSH2 0x30BD SWAP1 PUSH2 0x65D0 JUMP JUMPDEST PUSH1 0x40 MLOAD DUP1 SWAP2 SUB SWAP1 REVERT JUMPDEST PUSH2 0x30CF DUP2 PUSH2 0x38F3 JUMP JUMPDEST POP JUMP JUMPDEST PUSH1 0x12 PUSH1 0x20 MSTORE DUP2 PUSH1 0x0 MSTORE PUSH1 0x40 PUSH1 0x0 KECCAK256 PUSH1 0x20 MSTORE DUP1 PUSH1 0x0 MSTORE PUSH1 0x40 PUSH1 0x0 KECCAK256 PUSH1 0x0 SWAP2 POP SWAP2 POP POP SLOAD DUP2 JUMP JUMPDEST PUSH2 0x30FF PUSH2 0x322E JUMP JUMPDEST DUP1 PUSH1 0x1B PUSH1 0x0 PUSH2 0x100 EXP DUP2 SLOAD DUP2 PUSH1 0xFF MUL NOT AND SWAP1 DUP4 ISZERO ISZERO MUL OR SWAP1 SSTORE POP POP JUMP JUMPDEST POP POP POP POP JUMP JUMPDEST PUSH1 0x0 PUSH32 0x7965DB0B00000000000000000000000000000000000000000000000000000000 PUSH28 0xFFFFFFFFFFFFFFFFFFFFFFFFFFFFFFFFFFFFFFFFFFFFFFFFFFFFFFFF NOT AND DUP3 PUSH28 0xFFFFFFFFFFFFFFFFFFFFFFFFFFFFFFFFFFFFFFFFFFFFFFFFFFFFFFFF NOT AND EQ DUP1 PUSH2 0x3195 JUMPI POP PUSH2 0x3194 DUP3 PUSH2 0x3E28 JUMP JUMPDEST JUMPDEST SWAP1 POP SWAP2 SWAP1 POP JUMP JUMPDEST PUSH1 0x0 PUSH4 0x1FFC9A7 PUSH1 0xE0 SHL DUP3 PUSH28 0xFFFFFFFFFFFFFFFFFFFFFFFFFFFFFFFFFFFFFFFFFFFFFFFFFFFFFFFF NOT AND EQ DUP1 PUSH2 0x31F7 JUMPI POP PUSH4 0x80AC58CD PUSH1 0xE0 SHL DUP3 PUSH28 0xFFFFFFFFFFFFFFFFFFFFFFFFFFFFFFFFFFFFFFFFFFFFFFFFFFFFFFFF NOT AND EQ JUMPDEST DUP1 PUSH2 0x3227 JUMPI POP PUSH4 0x5B5E139F PUSH1 0xE0 SHL DUP3 PUSH28 0xFFFFFFFFFFFFFFFFFFFFFFFFFFFFFFFFFFFFFFFFFFFFFFFFFFFFFFFF NOT AND EQ JUMPDEST SWAP1 POP SWAP2 SWAP1 POP JUMP JUMPDEST PUSH2 0x3236 PUSH2 0x37DA JUMP JUMPDEST PUSH20 0xFFFFFFFFFFFFFFFFFFFFFFFFFFFFFFFFFFFFFFFF AND PUSH2 0x3254 PUSH2 0x27BB JUMP JUMPDEST PUSH20 0xFFFFFFFFFFFFFFFFFFFFFFFFFFFFFFFFFFFFFFFF AND EQ PUSH2 0x32AA JUMPI PUSH1 0x40 MLOAD PUSH32 0x8C379A000000000000000000000000000000000000000000000000000000000 DUP2 MSTORE PUSH1 0x4 ADD PUSH2 0x32A1 SWAP1 PUSH2 0x663C JUMP JUMPDEST PUSH1 0x40 MLOAD DUP1 SWAP2 SUB SWAP1 REVERT JUMPDEST JUMP JUMPDEST PUSH1 0x0 DUP2 PUSH2 0x32B7 PUSH2 0x344F JUMP JUMPDEST GT ISZERO DUP1 ISZERO PUSH2 0x32C6 JUMPI POP PUSH1 0x1 SLOAD DUP3 LT JUMPDEST DUP1 ISZERO PUSH2 0x3304 JUMPI POP PUSH1 0x0 PUSH29 0x100000000000000000000000000000000000000000000000000000000 PUSH1 0x5 PUSH1 0x0 DUP6 DUP2 MSTORE PUSH1 0x20 ADD SWAP1 DUP2 MSTORE PUSH1 0x20 ADD PUSH1 0x0 KECCAK256 SLOAD AND EQ JUMPDEST SWAP1 POP SWAP2 SWAP1 POP JUMP JUMPDEST PUSH1 0x0 PUSH2 0x3316 DUP3 PUSH2 0x1F6E JUMP JUMPDEST SWAP1 POP DUP1 PUSH20 0xFFFFFFFFFFFFFFFFFFFFFFFFFFFFFFFFFFFFFFFF AND PUSH2 0x3337 PUSH2 0x354B JUMP JUMPDEST PUSH20 0xFFFFFFFFFFFFFFFFFFFFFFFFFFFFFFFFFFFFFFFF AND EQ PUSH2 0x339A JUMPI PUSH2 0x3363 DUP2 PUSH2 0x335E PUSH2 0x354B JUMP JUMPDEST PUSH2 0x2F96 JUMP JUMPDEST PUSH2 0x3399 JUMPI PUSH1 0x40 MLOAD PUSH32 0xCFB3B94200000000000000000000000000000000000000000000000000000000 DUP2 MSTORE PUSH1 0x4 ADD PUSH1 0x40 MLOAD DUP1 SWAP2 SUB SWAP1 REVERT JUMPDEST JUMPDEST DUP3 PUSH1 0x7 PUSH1 0x0 DUP5 DUP2 MSTORE PUSH1 0x20 ADD SWAP1 DUP2 MSTORE PUSH1 0x20 ADD PUSH1 0x0 KECCAK256 PUSH1 0x0 ADD PUSH1 0x0 PUSH2 0x100 EXP DUP2 SLOAD DUP2 PUSH20 0xFFFFFFFFFFFFFFFFFFFFFFFFFFFFFFFFFFFFFFFF MUL NOT AND SWAP1 DUP4 PUSH20 0xFFFFFFFFFFFFFFFFFFFFFFFFFFFFFFFFFFFFFFFF AND MUL OR SWAP1 SSTORE POP DUP2 DUP4 PUSH20 0xFFFFFFFFFFFFFFFFFFFFFFFFFFFFFFFFFFFFFFFF AND DUP3 PUSH20 0xFFFFFFFFFFFFFFFFFFFFFFFFFFFFFFFFFFFFFFFF AND PUSH32 0x8C5BE1E5EBEC7D5BD14F71427D1E84F3DD0314C0F7B2291E5B200AC8C7C3B925 PUSH1 0x40 MLOAD PUSH1 0x40 MLOAD DUP1 SWAP2 SUB SWAP1 LOG4 POP POP POP JUMP JUMPDEST PUSH1 0x0 PUSH1 0x1 SWAP1 POP SWAP1 JUMP JUMPDEST PUSH1 0x0 DUP1 DUP3 SWAP1 POP DUP1 PUSH2 0x3467 PUSH2 0x344F JUMP JUMPDEST GT PUSH2 0x34ED JUMPI PUSH1 0x1 SLOAD DUP2 LT ISZERO PUSH2 0x34EC JUMPI PUSH1 0x0 PUSH1 0x5 PUSH1 0x0 DUP4 DUP2 MSTORE PUSH1 0x20 ADD SWAP1 DUP2 MSTORE PUSH1 0x20 ADD PUSH1 0x0 KECCAK256 SLOAD SWAP1 POP PUSH1 0x0 PUSH29 0x100000000000000000000000000000000000000000000000000000000 DUP3 AND SUB PUSH2 0x34EA JUMPI JUMPDEST PUSH1 0x0 DUP2 SUB PUSH2 0x34E0 JUMPI PUSH1 0x5 PUSH1 0x0 DUP4 PUSH1 0x1 SWAP1 SUB SWAP4 POP DUP4 DUP2 MSTORE PUSH1 0x20 ADD SWAP1 DUP2 MSTORE PUSH1 0x20 ADD PUSH1 0x0 KECCAK256 SLOAD SWAP1 POP PUSH2 0x34B6 JUMP JUMPDEST DUP1 SWAP3 POP POP POP PUSH2 0x351F JUMP JUMPDEST POP JUMPDEST JUMPDEST PUSH1 0x40 MLOAD PUSH32 0xDF2D9B4200000000000000000000000000000000000000000000000000000000 DUP2 MSTORE PUSH1 0x4 ADD PUSH1 0x40 MLOAD DUP1 SWAP2 SUB SWAP1 REVERT JUMPDEST SWAP2 SWAP1 POP JUMP JUMPDEST PUSH1 0x0 DUP1 PUSH1 0x0 PUSH1 0x7 PUSH1 0x0 DUP6 DUP2 MSTORE PUSH1 0x20 ADD SWAP1 DUP2 MSTORE PUSH1 0x20 ADD PUSH1 0x0 KECCAK256 SWAP1 POP DUP1 SWAP3 POP DUP3 SLOAD SWAP2 POP POP SWAP2 POP SWAP2 JUMP JUMPDEST PUSH1 0x0 CALLER SWAP1 POP SWAP1 JUMP JUMPDEST PUSH1 0x0 PUSH20 0xFFFFFFFFFFFFFFFFFFFFFFFFFFFFFFFFFFFFFFFF DUP4 AND SWAP3 POP PUSH20 0xFFFFFFFFFFFFFFFFFFFFFFFFFFFFFFFFFFFFFFFF DUP3 AND SWAP2 POP DUP4 DUP3 EQ DUP4 DUP4 EQ OR SWAP1 POP SWAP4 SWAP3 POP POP POP JUMP JUMPDEST PUSH1 0x0 ISZERO ISZERO PUSH1 0x1B PUSH1 0x0 SWAP1 SLOAD SWAP1 PUSH2 0x100 EXP SWAP1 DIV PUSH1 0xFF AND ISZERO ISZERO EQ DUP1 PUSH2 0x35E5 JUMPI POP PUSH1 0x0 PUSH20 0xFFFFFFFFFFFFFFFFFFFFFFFFFFFFFFFFFFFFFFFF AND DUP5 PUSH20 0xFFFFFFFFFFFFFFFFFFFFFFFFFFFFFFFFFFFFFFFF AND EQ JUMPDEST DUP1 PUSH2 0x361D JUMPI POP PUSH2 0xDEAD PUSH20 0xFFFFFFFFFFFFFFFFFFFFFFFFFFFFFFFFFFFFFFFF AND DUP4 PUSH20 0xFFFFFFFFFFFFFFFFFFFFFFFFFFFFFFFFFFFFFFFF AND EQ JUMPDEST PUSH2 0x365C JUMPI PUSH1 0x40 MLOAD PUSH32 0x8C379A000000000000000000000000000000000000000000000000000000000 DUP2 MSTORE PUSH1 0x4 ADD PUSH2 0x3653 SWAP1 PUSH2 0x66A8 JUMP JUMPDEST PUSH1 0x40 MLOAD DUP1 SWAP2 SUB SWAP1 REVERT JUMPDEST PUSH2 0x3668 DUP5 DUP5 DUP5 DUP5 PUSH2 0x311C JUMP JUMPDEST POP POP POP POP JUMP JUMPDEST PUSH1 0x0 DUP1 PUSH1 0xE8 DUP4 SWAP1 SHR SWAP1 POP PUSH1 0xE8 PUSH2 0x3685 DUP7 DUP7 DUP5 PUSH2 0x3E92 JUMP JUMPDEST PUSH3 0xFFFFFF AND SWAP1 SHL SWAP2 POP POP SWAP4 SWAP3 POP POP POP JUMP JUMPDEST PUSH1 0x0 PUSH20 0xFFFFFFFFFFFFFFFFFFFFFFFFFFFFFFFFFFFFFFFF DUP4 AND SWAP3 POP DUP2 TIMESTAMP PUSH1 0xA0 SHL OR DUP4 OR SWAP1 POP SWAP3 SWAP2 POP POP JUMP JUMPDEST POP POP POP POP JUMP JUMPDEST PUSH2 0x36E1 DUP3 DUP3 PUSH1 0x40 MLOAD DUP1 PUSH1 0x20 ADD PUSH1 0x40 MSTORE DUP1 PUSH1 0x0 DUP2 MSTORE POP PUSH2 0x3E9B JUMP JUMPDEST POP POP JUMP JUMPDEST PUSH2 0x36F6 DUP2 PUSH2 0x36F1 PUSH2 0x37DA JUMP JUMPDEST PUSH2 0x3F39 JUMP JUMPDEST POP JUMP JUMPDEST PUSH2 0x3703 DUP3 DUP3 PUSH2 0x2809 JUMP JUMPDEST PUSH2 0x37D6 JUMPI PUSH1 0x1 PUSH1 0x9 PUSH1 0x0 DUP5 DUP2 MSTORE PUSH1 0x20 ADD SWAP1 DUP2 MSTORE PUSH1 0x20 ADD PUSH1 0x0 KECCAK256 PUSH1 0x0 ADD PUSH1 0x0 DUP4 PUSH20 0xFFFFFFFFFFFFFFFFFFFFFFFFFFFFFFFFFFFFFFFF AND PUSH20 0xFFFFFFFFFFFFFFFFFFFFFFFFFFFFFFFFFFFFFFFF AND DUP2 MSTORE PUSH1 0x20 ADD SWAP1 DUP2 MSTORE PUSH1 0x20 ADD PUSH1 0x0 KECCAK256 PUSH1 0x0 PUSH2 0x100 EXP DUP2 SLOAD DUP2 PUSH1 0xFF MUL NOT AND SWAP1 DUP4 ISZERO ISZERO MUL OR SWAP1 SSTORE POP PUSH2 0x377B PUSH2 0x37DA JUMP JUMPDEST PUSH20 0xFFFFFFFFFFFFFFFFFFFFFFFFFFFFFFFFFFFFFFFF AND DUP2 PUSH20 0xFFFFFFFFFFFFFFFFFFFFFFFFFFFFFFFFFFFFFFFF AND DUP4 PUSH32 0x2F8788117E7EFF1D82E926EC794901D17C78024A50270940304540A733656F0D PUSH1 0x40 MLOAD PUSH1 0x40 MLOAD DUP1 SWAP2 SUB SWAP1 LOG4 JUMPDEST POP POP JUMP JUMPDEST PUSH1 0x0 CALLER SWAP1 POP SWAP1 JUMP JUMPDEST PUSH2 0x37EC DUP3 DUP3 PUSH2 0x2809 JUMP JUMPDEST ISZERO PUSH2 0x38C0 JUMPI PUSH1 0x0 PUSH1 0x9 PUSH1 0x0 DUP5 DUP2 MSTORE PUSH1 0x20 ADD SWAP1 DUP2 MSTORE PUSH1 0x20 ADD PUSH1 0x0 KECCAK256 PUSH1 0x0 ADD PUSH1 0x0 DUP4 PUSH20 0xFFFFFFFFFFFFFFFFFFFFFFFFFFFFFFFFFFFFFFFF AND PUSH20 0xFFFFFFFFFFFFFFFFFFFFFFFFFFFFFFFFFFFFFFFF AND DUP2 MSTORE PUSH1 0x20 ADD SWAP1 DUP2 MSTORE PUSH1 0x20 ADD PUSH1 0x0 KECCAK256 PUSH1 0x0 PUSH2 0x100 EXP DUP2 SLOAD DUP2 PUSH1 0xFF MUL NOT AND SWAP1 DUP4 ISZERO ISZERO MUL OR SWAP1 SSTORE POP PUSH2 0x3865 PUSH2 0x37DA JUMP JUMPDEST PUSH20 0xFFFFFFFFFFFFFFFFFFFFFFFFFFFFFFFFFFFFFFFF AND DUP2 PUSH20 0xFFFFFFFFFFFFFFFFFFFFFFFFFFFFFFFFFFFFFFFF AND DUP4 PUSH32 0xF6391F5C32D9C69D2A47EA670B442974B53935D1EDC7FD64EB21E047A839171B PUSH1 0x40 MLOAD PUSH1 0x40 MLOAD DUP1 SWAP2 SUB SWAP1 LOG4 JUMPDEST POP POP JUMP JUMPDEST PUSH2 0x38CF DUP2 PUSH1 0x0 PUSH2 0x3FBE JUMP JUMPDEST POP JUMP JUMPDEST PUSH1 0x0 PUSH1 0x1 SLOAD SWAP1 POP SWAP1 JUMP JUMPDEST PUSH1 0x0 DUP3 PUSH2 0x38E9 DUP6 DUP5 PUSH2 0x4210 JUMP JUMPDEST EQ SWAP1 POP SWAP4 SWAP3 POP POP POP JUMP JUMPDEST PUSH1 0x0 DUP1 PUSH1 0x0 SWAP1 SLOAD SWAP1 PUSH2 0x100 EXP SWAP1 DIV PUSH20 0xFFFFFFFFFFFFFFFFFFFFFFFFFFFFFFFFFFFFFFFF AND SWAP1 POP DUP2 PUSH1 0x0 DUP1 PUSH2 0x100 EXP DUP2 SLOAD DUP2 PUSH20 0xFFFFFFFFFFFFFFFFFFFFFFFFFFFFFFFFFFFFFFFF MUL NOT AND SWAP1 DUP4 PUSH20 0xFFFFFFFFFFFFFFFFFFFFFFFFFFFFFFFFFFFFFFFF AND MUL OR SWAP1 SSTORE POP DUP2 PUSH20 0xFFFFFFFFFFFFFFFFFFFFFFFFFFFFFFFFFFFFFFFF AND DUP2 PUSH20 0xFFFFFFFFFFFFFFFFFFFFFFFFFFFFFFFFFFFFFFFF AND PUSH32 0x8BE0079C531659141344CD1FD0A4F28419497F9722A3DAAFE3B4186F6B6457E0 PUSH1 0x40 MLOAD PUSH1 0x40 MLOAD DUP1 SWAP2 SUB SWAP1 LOG3 POP POP JUMP JUMPDEST DUP1 PUSH1 0x8 PUSH1 0x0 PUSH2 0x39C4 PUSH2 0x354B JUMP JUMPDEST PUSH20 0xFFFFFFFFFFFFFFFFFFFFFFFFFFFFFFFFFFFFFFFF AND PUSH20 0xFFFFFFFFFFFFFFFFFFFFFFFFFFFFFFFFFFFFFFFF AND DUP2 MSTORE PUSH1 0x20 ADD SWAP1 DUP2 MSTORE PUSH1 0x20 ADD PUSH1 0x0 KECCAK256 PUSH1 0x0 DUP5 PUSH20 0xFFFFFFFFFFFFFFFFFFFFFFFFFFFFFFFFFFFFFFFF AND PUSH20 0xFFFFFFFFFFFFFFFFFFFFFFFFFFFFFFFFFFFFFFFF AND DUP2 MSTORE PUSH1 0x20 ADD SWAP1 DUP2 MSTORE PUSH1 0x20 ADD PUSH1 0x0 KECCAK256 PUSH1 0x0 PUSH2 0x100 EXP DUP2 SLOAD DUP2 PUSH1 0xFF MUL NOT AND SWAP1 DUP4 ISZERO ISZERO MUL OR SWAP1 SSTORE POP DUP2 PUSH20 0xFFFFFFFFFFFFFFFFFFFFFFFFFFFFFFFFFFFFFFFF AND PUSH2 0x3A71 PUSH2 0x354B JUMP JUMPDEST PUSH20 0xFFFFFFFFFFFFFFFFFFFFFFFFFFFFFFFFFFFFFFFF AND PUSH32 0x17307EAB39AB6107E8899845AD3D59BD9653F200F220920489CA2B5937696C31 DUP4 PUSH1 0x40 MLOAD PUSH2 0x3AB6 SWAP2 SWAP1 PUSH2 0x47DA JUMP JUMPDEST PUSH1 0x40 MLOAD DUP1 SWAP2 SUB SWAP1 LOG3 POP POP JUMP JUMPDEST PUSH1 0x0 DUP4 PUSH20 0xFFFFFFFFFFFFFFFFFFFFFFFFFFFFFFFFFFFFFFFF AND PUSH4 0x150B7A02 PUSH2 0x3AE8 PUSH2 0x354B JUMP JUMPDEST DUP8 DUP7 DUP7 PUSH1 0x40 MLOAD DUP6 PUSH4 0xFFFFFFFF AND PUSH1 0xE0 SHL DUP2 MSTORE PUSH1 0x4 ADD PUSH2 0x3B0A SWAP5 SWAP4 SWAP3 SWAP2 SWAP1 PUSH2 0x671D JUMP JUMPDEST PUSH1 0x20 PUSH1 0x40 MLOAD DUP1 DUP4 SUB DUP2 PUSH1 0x0 DUP8 GAS CALL SWAP3 POP POP POP DUP1 ISZERO PUSH2 0x3B46 JUMPI POP PUSH1 0x40 MLOAD RETURNDATASIZE PUSH1 0x1F NOT PUSH1 0x1F DUP3 ADD AND DUP3 ADD DUP1 PUSH1 0x40 MSTORE POP DUP2 ADD SWAP1 PUSH2 0x3B43 SWAP2 SWAP1 PUSH2 0x677E JUMP JUMPDEST PUSH1 0x1 JUMPDEST PUSH2 0x3BBF JUMPI RETURNDATASIZE DUP1 PUSH1 0x0 DUP2 EQ PUSH2 0x3B76 JUMPI PUSH1 0x40 MLOAD SWAP2 POP PUSH1 0x1F NOT PUSH1 0x3F RETURNDATASIZE ADD AND DUP3 ADD PUSH1 0x40 MSTORE RETURNDATASIZE DUP3 MSTORE RETURNDATASIZE PUSH1 0x0 PUSH1 0x20 DUP5 ADD RETURNDATACOPY PUSH2 0x3B7B JUMP JUMPDEST PUSH1 0x60 SWAP2 POP JUMPDEST POP PUSH1 0x0 DUP2 MLOAD SUB PUSH2 0x3BB7 JUMPI PUSH1 0x40 MLOAD PUSH32 0xD1A57ED600000000000000000000000000000000000000000000000000000000 DUP2 MSTORE PUSH1 0x4 ADD PUSH1 0x40 MLOAD DUP1 SWAP2 SUB SWAP1 REVERT JUMPDEST DUP1 MLOAD DUP2 PUSH1 0x20 ADD REVERT JUMPDEST PUSH4 0x150B7A02 PUSH1 0xE0 SHL PUSH28 0xFFFFFFFFFFFFFFFFFFFFFFFFFFFFFFFFFFFFFFFFFFFFFFFFFFFFFFFF NOT AND DUP2 PUSH28 0xFFFFFFFFFFFFFFFFFFFFFFFFFFFFFFFFFFFFFFFFFFFFFFFFFFFFFFFF NOT AND EQ SWAP2 POP POP SWAP5 SWAP4 POP POP POP POP JUMP JUMPDEST PUSH1 0x60 PUSH1 0x0 DUP3 MLOAD SUB PUSH2 0x3C34 JUMPI PUSH1 0x40 MLOAD DUP1 PUSH1 0x20 ADD PUSH1 0x40 MSTORE DUP1 PUSH1 0x0 DUP2 MSTORE POP SWAP1 POP PUSH2 0x3D85 JUMP JUMPDEST PUSH1 0x0 PUSH1 0x40 MLOAD DUP1 PUSH1 0x60 ADD PUSH1 0x40 MSTORE DUP1 PUSH1 0x40 DUP2 MSTORE PUSH1 0x20 ADD PUSH2 0x6997 PUSH1 0x40 SWAP2 CODECOPY SWAP1 POP PUSH1 0x0 PUSH1 0x3 PUSH1 0x2 DUP6 MLOAD PUSH2 0x3C63 SWAP2 SWAP1 PUSH2 0x5835 JUMP JUMPDEST PUSH2 0x3C6D SWAP2 SWAP1 PUSH2 0x67DA JUMP JUMPDEST PUSH1 0x4 PUSH2 0x3C79 SWAP2 SWAP1 PUSH2 0x5CD7 JUMP JUMPDEST SWAP1 POP PUSH1 0x0 PUSH1 0x20 DUP3 PUSH2 0x3C8A SWAP2 SWAP1 PUSH2 0x5835 JUMP JUMPDEST PUSH8 0xFFFFFFFFFFFFFFFF DUP2 GT ISZERO PUSH2 0x3CA3 JUMPI PUSH2 0x3CA2 PUSH2 0x494A JUMP JUMPDEST JUMPDEST PUSH1 0x40 MLOAD SWAP1 DUP1 DUP3 MSTORE DUP1 PUSH1 0x1F ADD PUSH1 0x1F NOT AND PUSH1 0x20 ADD DUP3 ADD PUSH1 0x40 MSTORE DUP1 ISZERO PUSH2 0x3CD5 JUMPI DUP2 PUSH1 0x20 ADD PUSH1 0x1 DUP3 MUL DUP1 CALLDATASIZE DUP4 CALLDATACOPY DUP1 DUP3 ADD SWAP2 POP POP SWAP1 POP JUMPDEST POP SWAP1 POP DUP2 DUP2 MSTORE PUSH1 0x1 DUP4 ADD DUP6 DUP7 MLOAD DUP2 ADD PUSH1 0x20 DUP5 ADD JUMPDEST DUP2 DUP4 LT ISZERO PUSH2 0x3D44 JUMPI PUSH1 0x3 DUP4 ADD SWAP3 POP DUP3 MLOAD PUSH1 0x3F DUP2 PUSH1 0x12 SHR AND DUP6 ADD MLOAD DUP3 MSTORE8 PUSH1 0x1 DUP3 ADD SWAP2 POP PUSH1 0x3F DUP2 PUSH1 0xC SHR AND DUP6 ADD MLOAD DUP3 MSTORE8 PUSH1 0x1 DUP3 ADD SWAP2 POP PUSH1 0x3F DUP2 PUSH1 0x6 SHR AND DUP6 ADD MLOAD DUP3 MSTORE8 PUSH1 0x1 DUP3 ADD SWAP2 POP PUSH1 0x3F DUP2 AND DUP6 ADD MLOAD DUP3 MSTORE8 PUSH1 0x1 DUP3 ADD SWAP2 POP POP PUSH2 0x3CE9 JUMP JUMPDEST PUSH1 0x3 DUP10 MLOAD MOD PUSH1 0x1 DUP2 EQ PUSH2 0x3D5E JUMPI PUSH1 0x2 DUP2 EQ PUSH2 0x3D6E JUMPI PUSH2 0x3D79 JUMP JUMPDEST PUSH2 0x3D3D PUSH1 0xF0 SHL PUSH1 0x2 DUP4 SUB MSTORE PUSH2 0x3D79 JUMP JUMPDEST PUSH1 0x3D PUSH1 0xF8 SHL PUSH1 0x1 DUP4 SUB MSTORE JUMPDEST POP POP POP POP POP DUP1 SWAP4 POP POP POP POP JUMPDEST SWAP2 SWAP1 POP JUMP JUMPDEST PUSH1 0x60 PUSH2 0x3D95 DUP3 PUSH2 0x32AC JUMP JUMPDEST PUSH2 0x3DCB JUMPI PUSH1 0x40 MLOAD PUSH32 0xA14C4B5000000000000000000000000000000000000000000000000000000000 DUP2 MSTORE PUSH1 0x4 ADD PUSH1 0x40 MLOAD DUP1 SWAP2 SUB SWAP1 REVERT JUMPDEST PUSH1 0x0 PUSH2 0x3DD5 PUSH2 0x4266 JUMP JUMPDEST SWAP1 POP PUSH1 0x0 DUP2 MLOAD SUB PUSH2 0x3DF5 JUMPI PUSH1 0x40 MLOAD DUP1 PUSH1 0x20 ADD PUSH1 0x40 MSTORE DUP1 PUSH1 0x0 DUP2 MSTORE POP PUSH2 0x3E20 JUMP JUMPDEST DUP1 PUSH2 0x3DFF DUP5 PUSH2 0x42F8 JUMP JUMPDEST PUSH1 0x40 MLOAD PUSH1 0x20 ADD PUSH2 0x3E10 SWAP3 SWAP2 SWAP1 PUSH2 0x680B JUMP JUMPDEST PUSH1 0x40 MLOAD PUSH1 0x20 DUP2 DUP4 SUB SUB DUP2 MSTORE SWAP1 PUSH1 0x40 MSTORE JUMPDEST SWAP2 POP POP SWAP2 SWAP1 POP JUMP JUMPDEST PUSH1 0x0 PUSH32 0x1FFC9A700000000000000000000000000000000000000000000000000000000 PUSH28 0xFFFFFFFFFFFFFFFFFFFFFFFFFFFFFFFFFFFFFFFFFFFFFFFFFFFFFFFF NOT AND DUP3 PUSH28 0xFFFFFFFFFFFFFFFFFFFFFFFFFFFFFFFFFFFFFFFFFFFFFFFFFFFFFFFF NOT AND EQ SWAP1 POP SWAP2 SWAP1 POP JUMP JUMPDEST PUSH1 0x0 SWAP4 SWAP3 POP POP POP JUMP JUMPDEST PUSH2 0x3EA5 DUP4 DUP4 PUSH2 0x4348 JUMP JUMPDEST PUSH1 0x0 DUP4 PUSH20 0xFFFFFFFFFFFFFFFFFFFFFFFFFFFFFFFFFFFFFFFF AND EXTCODESIZE EQ PUSH2 0x3F34 JUMPI PUSH1 0x0 PUSH1 0x1 SLOAD SWAP1 POP PUSH1 0x0 DUP4 DUP3 SUB SWAP1 POP JUMPDEST PUSH2 0x3EE6 PUSH1 0x0 DUP7 DUP4 DUP1 PUSH1 0x1 ADD SWAP5 POP DUP7 PUSH2 0x3AC2 JUMP JUMPDEST PUSH2 0x3F1C JUMPI PUSH1 0x40 MLOAD PUSH32 0xD1A57ED600000000000000000000000000000000000000000000000000000000 DUP2 MSTORE PUSH1 0x4 ADD PUSH1 0x40 MLOAD DUP1 SWAP2 SUB SWAP1 REVERT JUMPDEST DUP2 DUP2 LT PUSH2 0x3ED3 JUMPI DUP2 PUSH1 0x1 SLOAD EQ PUSH2 0x3F31 JUMPI PUSH1 0x0 DUP1 REVERT JUMPDEST POP POP JUMPDEST POP POP POP JUMP JUMPDEST PUSH2 0x3F43 DUP3 DUP3 PUSH2 0x2809 JUMP JUMPDEST PUSH2 0x3FBA JUMPI PUSH2 0x3F50 DUP2 PUSH2 0x4504 JUMP JUMPDEST PUSH2 0x3F5E DUP4 PUSH1 0x0 SHR PUSH1 0x20 PUSH2 0x4531 JUMP JUMPDEST PUSH1 0x40 MLOAD PUSH1 0x20 ADD PUSH2 0x3F6F SWAP3 SWAP2 SWAP1 PUSH2 0x68C7 JUMP JUMPDEST PUSH1 0x40 MLOAD PUSH1 0x20 DUP2 DUP4 SUB SUB DUP2 MSTORE SWAP1 PUSH1 0x40 MSTORE PUSH1 0x40 MLOAD PUSH32 0x8C379A000000000000000000000000000000000000000000000000000000000 DUP2 MSTORE PUSH1 0x4 ADD PUSH2 0x3FB1 SWAP2 SWAP1 PUSH2 0x4885 JUMP JUMPDEST PUSH1 0x40 MLOAD DUP1 SWAP2 SUB SWAP1 REVERT JUMPDEST POP POP JUMP JUMPDEST PUSH1 0x0 PUSH2 0x3FC9 DUP4 PUSH2 0x3458 JUMP JUMPDEST SWAP1 POP PUSH1 0x0 DUP2 SWAP1 POP PUSH1 0x0 DUP1 PUSH2 0x3FDC DUP7 PUSH2 0x3524 JUMP JUMPDEST SWAP2 POP SWAP2 POP DUP5 ISZERO PUSH2 0x4045 JUMPI PUSH2 0x3FF8 DUP2 DUP5 PUSH2 0x3FF3 PUSH2 0x354B JUMP JUMPDEST PUSH2 0x3553 JUMP JUMPDEST PUSH2 0x4044 JUMPI PUSH2 0x400D DUP4 PUSH2 0x4008 PUSH2 0x354B JUMP JUMPDEST PUSH2 0x2F96 JUMP JUMPDEST PUSH2 0x4043 JUMPI PUSH1 0x40 MLOAD PUSH32 0x59C896BE00000000000000000000000000000000000000000000000000000000 DUP2 MSTORE PUSH1 0x4 ADD PUSH1 0x40 MLOAD DUP1 SWAP2 SUB SWAP1 REVERT JUMPDEST JUMPDEST JUMPDEST PUSH2 0x4053 DUP4 PUSH1 0x0 DUP9 PUSH1 0x1 PUSH2 0x3597 JUMP JUMPDEST DUP1 ISZERO PUSH2 0x405E JUMPI PUSH1 0x0 DUP3 SSTORE JUMPDEST PUSH1 0x1 PUSH1 0x80 PUSH1 0x1 SWAP1 SHL SUB PUSH1 0x6 PUSH1 0x0 DUP6 PUSH20 0xFFFFFFFFFFFFFFFFFFFFFFFFFFFFFFFFFFFFFFFF AND PUSH20 0xFFFFFFFFFFFFFFFFFFFFFFFFFFFFFFFFFFFFFFFF AND DUP2 MSTORE PUSH1 0x20 ADD SWAP1 DUP2 MSTORE PUSH1 0x20 ADD PUSH1 0x0 KECCAK256 PUSH1 0x0 DUP3 DUP3 SLOAD ADD SWAP3 POP POP DUP2 SWAP1 SSTORE POP PUSH2 0x4106 DUP4 PUSH2 0x40C3 DUP6 PUSH1 0x0 DUP9 PUSH2 0x366E JUMP JUMPDEST PUSH29 0x200000000000000000000000000000000000000000000000000000000 PUSH29 0x100000000000000000000000000000000000000000000000000000000 OR OR PUSH2 0x3696 JUMP JUMPDEST PUSH1 0x5 PUSH1 0x0 DUP9 DUP2 MSTORE PUSH1 0x20 ADD SWAP1 DUP2 MSTORE PUSH1 0x20 ADD PUSH1 0x0 KECCAK256 DUP2 SWAP1 SSTORE POP PUSH1 0x0 PUSH29 0x200000000000000000000000000000000000000000000000000000000 DUP6 AND SUB PUSH2 0x418C JUMPI PUSH1 0x0 PUSH1 0x1 DUP8 ADD SWAP1 POP PUSH1 0x0 PUSH1 0x5 PUSH1 0x0 DUP4 DUP2 MSTORE PUSH1 0x20 ADD SWAP1 DUP2 MSTORE PUSH1 0x20 ADD PUSH1 0x0 KECCAK256 SLOAD SUB PUSH2 0x418A JUMPI PUSH1 0x1 SLOAD DUP2 EQ PUSH2 0x4189 JUMPI DUP5 PUSH1 0x5 PUSH1 0x0 DUP4 DUP2 MSTORE PUSH1 0x20 ADD SWAP1 DUP2 MSTORE PUSH1 0x20 ADD PUSH1 0x0 KECCAK256 DUP2 SWAP1 SSTORE POP JUMPDEST JUMPDEST POP JUMPDEST DUP6 PUSH1 0x0 PUSH20 0xFFFFFFFFFFFFFFFFFFFFFFFFFFFFFFFFFFFFFFFF AND DUP5 PUSH20 0xFFFFFFFFFFFFFFFFFFFFFFFFFFFFFFFFFFFFFFFF AND PUSH32 0xDDF252AD1BE2C89B69C2B068FC378DAA952BA7F163C4A11628F55A4DF523B3EF PUSH1 0x40 MLOAD PUSH1 0x40 MLOAD DUP1 SWAP2 SUB SWAP1 LOG4 PUSH2 0x41F6 DUP4 PUSH1 0x0 DUP9 PUSH1 0x1 PUSH2 0x36C1 JUMP JUMPDEST PUSH1 0x2 PUSH1 0x0 DUP2 SLOAD DUP1 SWAP3 SWAP2 SWAP1 PUSH1 0x1 ADD SWAP2 SWAP1 POP SSTORE POP POP POP POP POP POP POP JUMP JUMPDEST PUSH1 0x0 DUP1 DUP3 SWAP1 POP PUSH1 0x0 JUMPDEST DUP5 MLOAD DUP2 LT ISZERO PUSH2 0x425B JUMPI PUSH2 0x4246 DUP3 DUP7 DUP4 DUP2 MLOAD DUP2 LT PUSH2 0x4239 JUMPI PUSH2 0x4238 PUSH2 0x57D7 JUMP JUMPDEST JUMPDEST PUSH1 0x20 MUL PUSH1 0x20 ADD ADD MLOAD PUSH2 0x476D JUMP JUMPDEST SWAP2 POP DUP1 DUP1 PUSH2 0x4253 SWAP1 PUSH2 0x5869 JUMP JUMPDEST SWAP2 POP POP PUSH2 0x4219 JUMP JUMPDEST POP DUP1 SWAP2 POP POP SWAP3 SWAP2 POP POP JUMP JUMPDEST PUSH1 0x60 PUSH1 0x14 DUP1 SLOAD PUSH2 0x4275 SWAP1 PUSH2 0x545A JUMP JUMPDEST DUP1 PUSH1 0x1F ADD PUSH1 0x20 DUP1 SWAP2 DIV MUL PUSH1 0x20 ADD PUSH1 0x40 MLOAD SWAP1 DUP2 ADD PUSH1 0x40 MSTORE DUP1 SWAP3 SWAP2 SWAP1 DUP2 DUP2 MSTORE PUSH1 0x20 ADD DUP3 DUP1 SLOAD PUSH2 0x42A1 SWAP1 PUSH2 0x545A JUMP JUMPDEST DUP1 ISZERO PUSH2 0x42EE JUMPI DUP1 PUSH1 0x1F LT PUSH2 0x42C3 JUMPI PUSH2 0x100 DUP1 DUP4 SLOAD DIV MUL DUP4 MSTORE SWAP2 PUSH1 0x20 ADD SWAP2 PUSH2 0x42EE JUMP JUMPDEST DUP3 ADD SWAP2 SWAP1 PUSH1 0x0 MSTORE PUSH1 0x20 PUSH1 0x0 KECCAK256 SWAP1 JUMPDEST DUP2 SLOAD DUP2 MSTORE SWAP1 PUSH1 0x1 ADD SWAP1 PUSH1 0x20 ADD DUP1 DUP4 GT PUSH2 0x42D1 JUMPI DUP3 SWAP1 SUB PUSH1 0x1F AND DUP3 ADD SWAP2 JUMPDEST POP POP POP POP POP SWAP1 POP SWAP1 JUMP JUMPDEST PUSH1 0x60 PUSH1 0xA0 PUSH1 0x40 MLOAD ADD DUP1 PUSH1 0x40 MSTORE PUSH1 0x20 DUP2 SUB SWAP2 POP PUSH1 0x0 DUP3 MSTORE DUP2 DUP4 JUMPDEST PUSH1 0x1 ISZERO PUSH2 0x4333 JUMPI PUSH1 0x1 DUP5 SUB SWAP4 POP PUSH1 0xA DUP2 MOD PUSH1 0x30 ADD DUP5 MSTORE8 PUSH1 0xA DUP2 DIV SWAP1 POP DUP1 PUSH2 0x4311 JUMPI JUMPDEST POP DUP3 DUP2 SUB PUSH1 0x20 DUP5 SUB SWAP4 POP DUP1 DUP5 MSTORE POP POP POP SWAP2 SWAP1 POP JUMP JUMPDEST PUSH1 0x0 PUSH1 0x1 SLOAD SWAP1 POP PUSH1 0x0 DUP3 SUB PUSH2 0x4389 JUMPI PUSH1 0x40 MLOAD PUSH32 0xB562E8DD00000000000000000000000000000000000000000000000000000000 DUP2 MSTORE PUSH1 0x4 ADD PUSH1 0x40 MLOAD DUP1 SWAP2 SUB SWAP1 REVERT JUMPDEST PUSH2 0x4396 PUSH1 0x0 DUP5 DUP4 DUP6 PUSH2 0x3597 JUMP JUMPDEST PUSH1 0x1 PUSH1 0x40 PUSH1 0x1 SWAP1 SHL OR DUP3 MUL PUSH1 0x6 PUSH1 0x0 DUP6 PUSH20 0xFFFFFFFFFFFFFFFFFFFFFFFFFFFFFFFFFFFFFFFF AND PUSH20 0xFFFFFFFFFFFFFFFFFFFFFFFFFFFFFFFFFFFFFFFF AND DUP2 MSTORE PUSH1 0x20 ADD SWAP1 DUP2 MSTORE PUSH1 0x20 ADD PUSH1 0x0 KECCAK256 PUSH1 0x0 DUP3 DUP3 SLOAD ADD SWAP3 POP POP DUP2 SWAP1 SSTORE POP PUSH2 0x440D DUP4 PUSH2 0x43FE PUSH1 0x0 DUP7 PUSH1 0x0 PUSH2 0x366E JUMP JUMPDEST PUSH2 0x4407 DUP6 PUSH2 0x4798 JUMP JUMPDEST OR PUSH2 0x3696 JUMP JUMPDEST PUSH1 0x5 PUSH1 0x0 DUP4 DUP2 MSTORE PUSH1 0x20 ADD SWAP1 DUP2 MSTORE PUSH1 0x20 ADD PUSH1 0x0 KECCAK256 DUP2 SWAP1 SSTORE POP PUSH1 0x0 DUP1 DUP4 DUP4 ADD SWAP1 POP PUSH20 0xFFFFFFFFFFFFFFFFFFFFFFFFFFFFFFFFFFFFFFFF DUP6 AND SWAP2 POP DUP3 DUP3 PUSH1 0x0 PUSH32 0xDDF252AD1BE2C89B69C2B068FC378DAA952BA7F163C4A11628F55A4DF523B3EF PUSH1 0x0 DUP1 LOG4 PUSH1 0x1 DUP4 ADD JUMPDEST DUP2 DUP2 EQ PUSH2 0x44AE JUMPI DUP1 DUP4 PUSH1 0x0 PUSH32 0xDDF252AD1BE2C89B69C2B068FC378DAA952BA7F163C4A11628F55A4DF523B3EF PUSH1 0x0 DUP1 LOG4 PUSH1 0x1 DUP2 ADD SWAP1 POP PUSH2 0x4473 JUMP JUMPDEST POP PUSH1 0x0 DUP3 SUB PUSH2 0x44E9 JUMPI PUSH1 0x40 MLOAD PUSH32 0x2E07630000000000000000000000000000000000000000000000000000000000 DUP2 MSTORE PUSH1 0x4 ADD PUSH1 0x40 MLOAD DUP1 SWAP2 SUB SWAP1 REVERT JUMPDEST DUP1 PUSH1 0x1 DUP2 SWAP1 SSTORE POP POP POP PUSH2 0x44FF PUSH1 0x0 DUP5 DUP4 DUP6 PUSH2 0x36C1 JUMP JUMPDEST POP POP POP JUMP JUMPDEST PUSH1 0x60 PUSH2 0x452A DUP3 PUSH20 0xFFFFFFFFFFFFFFFFFFFFFFFFFFFFFFFFFFFFFFFF AND PUSH1 0x14 PUSH1 0xFF AND PUSH2 0x4531 JUMP JUMPDEST SWAP1 POP SWAP2 SWAP1 POP JUMP JUMPDEST PUSH1 0x60 PUSH1 0x0 PUSH1 0x2 DUP4 PUSH1 0x2 PUSH2 0x4544 SWAP2 SWAP1 PUSH2 0x5CD7 JUMP JUMPDEST PUSH2 0x454E SWAP2 SWAP1 PUSH2 0x5835 JUMP JUMPDEST PUSH8 0xFFFFFFFFFFFFFFFF DUP2 GT ISZERO PUSH2 0x4567 JUMPI PUSH2 0x4566 PUSH2 0x494A JUMP JUMPDEST JUMPDEST PUSH1 0x40 MLOAD SWAP1 DUP1 DUP3 MSTORE DUP1 PUSH1 0x1F ADD PUSH1 0x1F NOT AND PUSH1 0x20 ADD DUP3 ADD PUSH1 0x40 MSTORE DUP1 ISZERO PUSH2 0x4599 JUMPI DUP2 PUSH1 0x20 ADD PUSH1 0x1 DUP3 MUL DUP1 CALLDATASIZE DUP4 CALLDATACOPY DUP1 DUP3 ADD SWAP2 POP POP SWAP1 POP JUMPDEST POP SWAP1 POP PUSH32 0x3000000000000000000000000000000000000000000000000000000000000000 DUP2 PUSH1 0x0 DUP2 MLOAD DUP2 LT PUSH2 0x45D1 JUMPI PUSH2 0x45D0 PUSH2 0x57D7 JUMP JUMPDEST JUMPDEST PUSH1 0x20 ADD ADD SWAP1 PUSH31 0xFFFFFFFFFFFFFFFFFFFFFFFFFFFFFFFFFFFFFFFFFFFFFFFFFFFFFFFFFFFFFF NOT AND SWAP1 DUP2 PUSH1 0x0 BYTE SWAP1 MSTORE8 POP PUSH32 0x7800000000000000000000000000000000000000000000000000000000000000 DUP2 PUSH1 0x1 DUP2 MLOAD DUP2 LT PUSH2 0x4635 JUMPI PUSH2 0x4634 PUSH2 0x57D7 JUMP JUMPDEST JUMPDEST PUSH1 0x20 ADD ADD SWAP1 PUSH31 0xFFFFFFFFFFFFFFFFFFFFFFFFFFFFFFFFFFFFFFFFFFFFFFFFFFFFFFFFFFFFFF NOT AND SWAP1 DUP2 PUSH1 0x0 BYTE SWAP1 MSTORE8 POP PUSH1 0x0 PUSH1 0x1 DUP5 PUSH1 0x2 PUSH2 0x4675 SWAP2 SWAP1 PUSH2 0x5CD7 JUMP JUMPDEST PUSH2 0x467F SWAP2 SWAP1 PUSH2 0x5835 JUMP JUMPDEST SWAP1 POP JUMPDEST PUSH1 0x1 DUP2 GT ISZERO PUSH2 0x471F JUMPI PUSH32 0x3031323334353637383961626364656600000000000000000000000000000000 PUSH1 0xF DUP7 AND PUSH1 0x10 DUP2 LT PUSH2 0x46C1 JUMPI PUSH2 0x46C0 PUSH2 0x57D7 JUMP JUMPDEST JUMPDEST BYTE PUSH1 0xF8 SHL DUP3 DUP3 DUP2 MLOAD DUP2 LT PUSH2 0x46D8 JUMPI PUSH2 0x46D7 PUSH2 0x57D7 JUMP JUMPDEST JUMPDEST PUSH1 0x20 ADD ADD SWAP1 PUSH31 0xFFFFFFFFFFFFFFFFFFFFFFFFFFFFFFFFFFFFFFFFFFFFFFFFFFFFFFFFFFFFFF NOT AND SWAP1 DUP2 PUSH1 0x0 BYTE SWAP1 MSTORE8 POP PUSH1 0x4 DUP6 SWAP1 SHR SWAP5 POP DUP1 PUSH2 0x4718 SWAP1 PUSH2 0x6901 JUMP JUMPDEST SWAP1 POP PUSH2 0x4682 JUMP JUMPDEST POP PUSH1 0x0 DUP5 EQ PUSH2 0x4763 JUMPI PUSH1 0x40 MLOAD PUSH32 0x8C379A000000000000000000000000000000000000000000000000000000000 DUP2 MSTORE PUSH1 0x4 ADD PUSH2 0x475A SWAP1 PUSH2 0x6976 JUMP JUMPDEST PUSH1 0x40 MLOAD DUP1 SWAP2 SUB SWAP1 REVERT JUMPDEST DUP1 SWAP2 POP POP SWAP3 SWAP2 POP POP JUMP JUMPDEST PUSH1 0x0 DUP2 DUP4 LT PUSH2 0x4785 JUMPI PUSH2 0x4780 DUP3 DUP5 PUSH2 0x47A8 JUMP JUMPDEST PUSH2 0x4790 JUMP JUMPDEST PUSH2 0x478F DUP4 DUP4 PUSH2 0x47A8 JUMP JUMPDEST JUMPDEST SWAP1 POP SWAP3 SWAP2 POP POP JUMP JUMPDEST PUSH1 0x0 PUSH1 0x1 DUP3 EQ PUSH1 0xE1 SHL SWAP1 POP SWAP2 SWAP1 POP JUMP JUMPDEST PUSH1 0x0 DUP3 PUSH1 0x0 MSTORE DUP2 PUSH1 0x20 MSTORE PUSH1 0x40 PUSH1 0x0 KECCAK256 SWAP1 POP SWAP3 SWAP2 POP POP JUMP JUMPDEST PUSH1 0x0 DUP2 ISZERO ISZERO SWAP1 POP SWAP2 SWAP1 POP JUMP JUMPDEST PUSH2 0x47D4 DUP2 PUSH2 0x47BF JUMP JUMPDEST DUP3 MSTORE POP POP JUMP JUMPDEST PUSH1 0x0 PUSH1 0x20 DUP3 ADD SWAP1 POP PUSH2 0x47EF PUSH1 0x0 DUP4 ADD DUP5 PUSH2 0x47CB JUMP JUMPDEST SWAP3 SWAP2 POP POP JUMP JUMPDEST PUSH1 0x0 DUP2 MLOAD SWAP1 POP SWAP2 SWAP1 POP JUMP JUMPDEST PUSH1 0x0 DUP3 DUP3 MSTORE PUSH1 0x20 DUP3 ADD SWAP1 POP SWAP3 SWAP2 POP POP JUMP JUMPDEST PUSH1 0x0 JUMPDEST DUP4 DUP2 LT ISZERO PUSH2 0x482F JUMPI DUP1 DUP3 ADD MLOAD DUP2 DUP5 ADD MSTORE PUSH1 0x20 DUP2 ADD SWAP1 POP PUSH2 0x4814 JUMP JUMPDEST PUSH1 0x0 DUP5 DUP5 ADD MSTORE POP POP POP POP JUMP JUMPDEST PUSH1 0x0 PUSH1 0x1F NOT PUSH1 0x1F DUP4 ADD AND SWAP1 POP SWAP2 SWAP1 POP JUMP JUMPDEST PUSH1 0x0 PUSH2 0x4857 DUP3 PUSH2 0x47F5 JUMP JUMPDEST PUSH2 0x4861 DUP2 DUP6 PUSH2 0x4800 JUMP JUMPDEST SWAP4 POP PUSH2 0x4871 DUP2 DUP6 PUSH1 0x20 DUP7 ADD PUSH2 0x4811 JUMP JUMPDEST PUSH2 0x487A DUP2 PUSH2 0x483B JUMP JUMPDEST DUP5 ADD SWAP2 POP POP SWAP3 SWAP2 POP POP JUMP JUMPDEST PUSH1 0x0 PUSH1 0x20 DUP3 ADD SWAP1 POP DUP2 DUP2 SUB PUSH1 0x0 DUP4 ADD MSTORE PUSH2 0x489F DUP2 DUP5 PUSH2 0x484C JUMP JUMPDEST SWAP1 POP SWAP3 SWAP2 POP POP JUMP JUMPDEST PUSH1 0x0 PUSH1 0x40 MLOAD SWAP1 POP SWAP1 JUMP JUMPDEST PUSH1 0x0 DUP1 REVERT JUMPDEST PUSH1 0x0 DUP1 REVERT JUMPDEST PUSH1 0x0 PUSH32 0xFFFFFFFF00000000000000000000000000000000000000000000000000000000 DUP3 AND SWAP1 POP SWAP2 SWAP1 POP JUMP JUMPDEST PUSH2 0x48F0 DUP2 PUSH2 0x48BB JUMP JUMPDEST DUP2 EQ PUSH2 0x48FB JUMPI PUSH1 0x0 DUP1 REVERT JUMPDEST POP JUMP JUMPDEST PUSH1 0x0 DUP2 CALLDATALOAD SWAP1 POP PUSH2 0x490D DUP2 PUSH2 0x48E7 JUMP JUMPDEST SWAP3 SWAP2 POP POP JUMP JUMPDEST PUSH1 0x0 PUSH1 0x20 DUP3 DUP5 SUB SLT ISZERO PUSH2 0x4929 JUMPI PUSH2 0x4928 PUSH2 0x48B1 JUMP JUMPDEST JUMPDEST PUSH1 0x0 PUSH2 0x4937 DUP5 DUP3 DUP6 ADD PUSH2 0x48FE JUMP JUMPDEST SWAP2 POP POP SWAP3 SWAP2 POP POP JUMP JUMPDEST PUSH1 0x0 DUP1 REVERT JUMPDEST PUSH1 0x0 DUP1 REVERT JUMPDEST PUSH32 0x4E487B7100000000000000000000000000000000000000000000000000000000 PUSH1 0x0 MSTORE PUSH1 0x41 PUSH1 0x4 MSTORE PUSH1 0x24 PUSH1 0x0 REVERT JUMPDEST PUSH2 0x4982 DUP3 PUSH2 0x483B JUMP JUMPDEST DUP2 ADD DUP2 DUP2 LT PUSH8 0xFFFFFFFFFFFFFFFF DUP3 GT OR ISZERO PUSH2 0x49A1 JUMPI PUSH2 0x49A0 PUSH2 0x494A JUMP JUMPDEST JUMPDEST DUP1 PUSH1 0x40 MSTORE POP POP POP JUMP JUMPDEST PUSH1 0x0 PUSH2 0x49B4 PUSH2 0x48A7 JUMP JUMPDEST SWAP1 POP PUSH2 0x49C0 DUP3 DUP3 PUSH2 0x4979 JUMP JUMPDEST SWAP2 SWAP1 POP JUMP JUMPDEST PUSH1 0x0 PUSH8 0xFFFFFFFFFFFFFFFF DUP3 GT ISZERO PUSH2 0x49E0 JUMPI PUSH2 0x49DF PUSH2 0x494A JUMP JUMPDEST JUMPDEST PUSH2 0x49E9 DUP3 PUSH2 0x483B JUMP JUMPDEST SWAP1 POP PUSH1 0x20 DUP2 ADD SWAP1 POP SWAP2 SWAP1 POP JUMP JUMPDEST DUP3 DUP2 DUP4 CALLDATACOPY PUSH1 0x0 DUP4 DUP4 ADD MSTORE POP POP POP JUMP JUMPDEST PUSH1 0x0 PUSH2 0x4A18 PUSH2 0x4A13 DUP5 PUSH2 0x49C5 JUMP JUMPDEST PUSH2 0x49AA JUMP JUMPDEST SWAP1 POP DUP3 DUP2 MSTORE PUSH1 0x20 DUP2 ADD DUP5 DUP5 DUP5 ADD GT ISZERO PUSH2 0x4A34 JUMPI PUSH2 0x4A33 PUSH2 0x4945 JUMP JUMPDEST JUMPDEST PUSH2 0x4A3F DUP5 DUP3 DUP6 PUSH2 0x49F6 JUMP JUMPDEST POP SWAP4 SWAP3 POP POP POP JUMP JUMPDEST PUSH1 0x0 DUP3 PUSH1 0x1F DUP4 ADD SLT PUSH2 0x4A5C JUMPI PUSH2 0x4A5B PUSH2 0x4940 JUMP JUMPDEST JUMPDEST DUP2 CALLDATALOAD PUSH2 0x4A6C DUP5 DUP3 PUSH1 0x20 DUP7 ADD PUSH2 0x4A05 JUMP JUMPDEST SWAP2 POP POP SWAP3 SWAP2 POP POP JUMP JUMPDEST PUSH1 0x0 PUSH1 0x20 DUP3 DUP5 SUB SLT ISZERO PUSH2 0x4A8B JUMPI PUSH2 0x4A8A PUSH2 0x48B1 JUMP JUMPDEST JUMPDEST PUSH1 0x0 DUP3 ADD CALLDATALOAD PUSH8 0xFFFFFFFFFFFFFFFF DUP2 GT ISZERO PUSH2 0x4AA9 JUMPI PUSH2 0x4AA8 PUSH2 0x48B6 JUMP JUMPDEST JUMPDEST PUSH2 0x4AB5 DUP5 DUP3 DUP6 ADD PUSH2 0x4A47 JUMP JUMPDEST SWAP2 POP POP SWAP3 SWAP2 POP POP JUMP JUMPDEST PUSH1 0x0 DUP2 SWAP1 POP SWAP2 SWAP1 POP JUMP JUMPDEST PUSH2 0x4AD1 DUP2 PUSH2 0x4ABE JUMP JUMPDEST DUP2 EQ PUSH2 0x4ADC JUMPI PUSH1 0x0 DUP1 REVERT JUMPDEST POP JUMP JUMPDEST PUSH1 0x0 DUP2 CALLDATALOAD SWAP1 POP PUSH2 0x4AEE DUP2 PUSH2 0x4AC8 JUMP JUMPDEST SWAP3 SWAP2 POP POP JUMP JUMPDEST PUSH1 0x0 PUSH1 0x20 DUP3 DUP5 SUB SLT ISZERO PUSH2 0x4B0A JUMPI PUSH2 0x4B09 PUSH2 0x48B1 JUMP JUMPDEST JUMPDEST PUSH1 0x0 PUSH2 0x4B18 DUP5 DUP3 DUP6 ADD PUSH2 0x4ADF JUMP JUMPDEST SWAP2 POP POP SWAP3 SWAP2 POP POP JUMP JUMPDEST PUSH1 0x0 PUSH20 0xFFFFFFFFFFFFFFFFFFFFFFFFFFFFFFFFFFFFFFFF DUP3 AND SWAP1 POP SWAP2 SWAP1 POP JUMP JUMPDEST PUSH1 0x0 PUSH2 0x4B4C DUP3 PUSH2 0x4B21 JUMP JUMPDEST SWAP1 POP SWAP2 SWAP1 POP JUMP JUMPDEST PUSH2 0x4B5C DUP2 PUSH2 0x4B41 JUMP JUMPDEST DUP3 MSTORE POP POP JUMP JUMPDEST PUSH1 0x0 PUSH1 0x20 DUP3 ADD SWAP1 POP PUSH2 0x4B77 PUSH1 0x0 DUP4 ADD DUP5 PUSH2 0x4B53 JUMP JUMPDEST SWAP3 SWAP2 POP POP JUMP JUMPDEST PUSH2 0x4B86 DUP2 PUSH2 0x4B41 JUMP JUMPDEST DUP2 EQ PUSH2 0x4B91 JUMPI PUSH1 0x0 DUP1 REVERT JUMPDEST POP JUMP JUMPDEST PUSH1 0x0 DUP2 CALLDATALOAD SWAP1 POP PUSH2 0x4BA3 DUP2 PUSH2 0x4B7D JUMP JUMPDEST SWAP3 SWAP2 POP POP JUMP JUMPDEST PUSH1 0x0 DUP1 PUSH1 0x40 DUP4 DUP6 SUB SLT ISZERO PUSH2 0x4BC0 JUMPI PUSH2 0x4BBF PUSH2 0x48B1 JUMP JUMPDEST JUMPDEST PUSH1 0x0 PUSH2 0x4BCE DUP6 DUP3 DUP7 ADD PUSH2 0x4B94 JUMP JUMPDEST SWAP3 POP POP PUSH1 0x20 PUSH2 0x4BDF DUP6 DUP3 DUP7 ADD PUSH2 0x4ADF JUMP JUMPDEST SWAP2 POP POP SWAP3 POP SWAP3 SWAP1 POP JUMP JUMPDEST PUSH2 0x4BF2 DUP2 PUSH2 0x4ABE JUMP JUMPDEST DUP3 MSTORE POP POP JUMP JUMPDEST PUSH1 0x0 PUSH1 0x20 DUP3 ADD SWAP1 POP PUSH2 0x4C0D PUSH1 0x0 DUP4 ADD DUP5 PUSH2 0x4BE9 JUMP JUMPDEST SWAP3 SWAP2 POP POP JUMP JUMPDEST PUSH2 0x4C1C DUP2 PUSH2 0x47BF JUMP JUMPDEST DUP2 EQ PUSH2 0x4C27 JUMPI PUSH1 0x0 DUP1 REVERT JUMPDEST POP JUMP JUMPDEST PUSH1 0x0 DUP2 CALLDATALOAD SWAP1 POP PUSH2 0x4C39 DUP2 PUSH2 0x4C13 JUMP JUMPDEST SWAP3 SWAP2 POP POP JUMP JUMPDEST PUSH1 0x0 PUSH1 0x20 DUP3 DUP5 SUB SLT ISZERO PUSH2 0x4C55 JUMPI PUSH2 0x4C54 PUSH2 0x48B1 JUMP JUMPDEST JUMPDEST PUSH1 0x0 PUSH2 0x4C63 DUP5 DUP3 DUP6 ADD PUSH2 0x4C2A JUMP JUMPDEST SWAP2 POP POP SWAP3 SWAP2 POP POP JUMP JUMPDEST PUSH1 0x0 DUP2 SWAP1 POP SWAP2 SWAP1 POP JUMP JUMPDEST PUSH2 0x4C7F DUP2 PUSH2 0x4C6C JUMP JUMPDEST DUP3 MSTORE POP POP JUMP JUMPDEST PUSH1 0x0 PUSH1 0x20 DUP3 ADD SWAP1 POP PUSH2 0x4C9A PUSH1 0x0 DUP4 ADD DUP5 PUSH2 0x4C76 JUMP JUMPDEST SWAP3 SWAP2 POP POP JUMP JUMPDEST PUSH1 0x0 DUP1 PUSH1 0x0 PUSH1 0x60 DUP5 DUP7 SUB SLT ISZERO PUSH2 0x4CB9 JUMPI PUSH2 0x4CB8 PUSH2 0x48B1 JUMP JUMPDEST JUMPDEST PUSH1 0x0 PUSH2 0x4CC7 DUP7 DUP3 DUP8 ADD PUSH2 0x4B94 JUMP JUMPDEST SWAP4 POP POP PUSH1 0x20 PUSH2 0x4CD8 DUP7 DUP3 DUP8 ADD PUSH2 0x4B94 JUMP JUMPDEST SWAP3 POP POP PUSH1 0x40 PUSH2 0x4CE9 DUP7 DUP3 DUP8 ADD PUSH2 0x4ADF JUMP JUMPDEST SWAP2 POP POP SWAP3 POP SWAP3 POP SWAP3 JUMP JUMPDEST PUSH1 0x0 PUSH1 0x20 DUP3 DUP5 SUB SLT ISZERO PUSH2 0x4D09 JUMPI PUSH2 0x4D08 PUSH2 0x48B1 JUMP JUMPDEST JUMPDEST PUSH1 0x0 PUSH2 0x4D17 DUP5 DUP3 DUP6 ADD PUSH2 0x4B94 JUMP JUMPDEST SWAP2 POP POP SWAP3 SWAP2 POP POP JUMP JUMPDEST PUSH2 0x4D29 DUP2 PUSH2 0x4C6C JUMP JUMPDEST DUP2 EQ PUSH2 0x4D34 JUMPI PUSH1 0x0 DUP1 REVERT JUMPDEST POP JUMP JUMPDEST PUSH1 0x0 DUP2 CALLDATALOAD SWAP1 POP PUSH2 0x4D46 DUP2 PUSH2 0x4D20 JUMP JUMPDEST SWAP3 SWAP2 POP POP JUMP JUMPDEST PUSH1 0x0 PUSH1 0x20 DUP3 DUP5 SUB SLT ISZERO PUSH2 0x4D62 JUMPI PUSH2 0x4D61 PUSH2 0x48B1 JUMP JUMPDEST JUMPDEST PUSH1 0x0 PUSH2 0x4D70 DUP5 DUP3 DUP6 ADD PUSH2 0x4D37 JUMP JUMPDEST SWAP2 POP POP SWAP3 SWAP2 POP POP JUMP JUMPDEST PUSH1 0x0 DUP1 REVERT JUMPDEST PUSH1 0x0 DUP1 REVERT JUMPDEST PUSH1 0x0 DUP1 DUP4 PUSH1 0x1F DUP5 ADD SLT PUSH2 0x4D99 JUMPI PUSH2 0x4D98 PUSH2 0x4940 JUMP JUMPDEST JUMPDEST DUP3 CALLDATALOAD SWAP1 POP PUSH8 0xFFFFFFFFFFFFFFFF DUP2 GT ISZERO PUSH2 0x4DB6 JUMPI PUSH2 0x4DB5 PUSH2 0x4D79 JUMP JUMPDEST JUMPDEST PUSH1 0x20 DUP4 ADD SWAP2 POP DUP4 PUSH1 0x20 DUP3 MUL DUP4 ADD GT ISZERO PUSH2 0x4DD2 JUMPI PUSH2 0x4DD1 PUSH2 0x4D7E JUMP JUMPDEST JUMPDEST SWAP3 POP SWAP3 SWAP1 POP JUMP JUMPDEST PUSH1 0x0 PUSH8 0xFFFFFFFFFFFFFFFF DUP3 GT ISZERO PUSH2 0x4DF4 JUMPI PUSH2 0x4DF3 PUSH2 0x494A JUMP JUMPDEST JUMPDEST PUSH1 0x20 DUP3 MUL SWAP1 POP PUSH1 0x20 DUP2 ADD SWAP1 POP SWAP2 SWAP1 POP JUMP JUMPDEST PUSH1 0x0 PUSH2 0x4E18 PUSH2 0x4E13 DUP5 PUSH2 0x4DD9 JUMP JUMPDEST PUSH2 0x49AA JUMP JUMPDEST SWAP1 POP DUP1 DUP4 DUP3 MSTORE PUSH1 0x20 DUP3 ADD SWAP1 POP PUSH1 0x20 DUP5 MUL DUP4 ADD DUP6 DUP2 GT ISZERO PUSH2 0x4E3B JUMPI PUSH2 0x4E3A PUSH2 0x4D7E JUMP JUMPDEST JUMPDEST DUP4 JUMPDEST DUP2 DUP2 LT ISZERO PUSH2 0x4E64 JUMPI DUP1 PUSH2 0x4E50 DUP9 DUP3 PUSH2 0x4ADF JUMP JUMPDEST DUP5 MSTORE PUSH1 0x20 DUP5 ADD SWAP4 POP POP PUSH1 0x20 DUP2 ADD SWAP1 POP PUSH2 0x4E3D JUMP JUMPDEST POP POP POP SWAP4 SWAP3 POP POP POP JUMP JUMPDEST PUSH1 0x0 DUP3 PUSH1 0x1F DUP4 ADD SLT PUSH2 0x4E83 JUMPI PUSH2 0x4E82 PUSH2 0x4940 JUMP JUMPDEST JUMPDEST DUP2 CALLDATALOAD PUSH2 0x4E93 DUP5 DUP3 PUSH1 0x20 DUP7 ADD PUSH2 0x4E05 JUMP JUMPDEST SWAP2 POP POP SWAP3 SWAP2 POP POP JUMP JUMPDEST PUSH1 0x0 DUP1 PUSH1 0x0 PUSH1 0x40 DUP5 DUP7 SUB SLT ISZERO PUSH2 0x4EB5 JUMPI PUSH2 0x4EB4 PUSH2 0x48B1 JUMP JUMPDEST JUMPDEST PUSH1 0x0 DUP5 ADD CALLDATALOAD PUSH8 0xFFFFFFFFFFFFFFFF DUP2 GT ISZERO PUSH2 0x4ED3 JUMPI PUSH2 0x4ED2 PUSH2 0x48B6 JUMP JUMPDEST JUMPDEST PUSH2 0x4EDF DUP7 DUP3 DUP8 ADD PUSH2 0x4D83 JUMP JUMPDEST SWAP4 POP SWAP4 POP POP PUSH1 0x20 DUP5 ADD CALLDATALOAD PUSH8 0xFFFFFFFFFFFFFFFF DUP2 GT ISZERO PUSH2 0x4F02 JUMPI PUSH2 0x4F01 PUSH2 0x48B6 JUMP JUMPDEST JUMPDEST PUSH2 0x4F0E DUP7 DUP3 DUP8 ADD PUSH2 0x4E6E JUMP JUMPDEST SWAP2 POP POP SWAP3 POP SWAP3 POP SWAP3 JUMP JUMPDEST PUSH1 0x0 DUP1 PUSH1 0x40 DUP4 DUP6 SUB SLT ISZERO PUSH2 0x4F2F JUMPI PUSH2 0x4F2E PUSH2 0x48B1 JUMP JUMPDEST JUMPDEST PUSH1 0x0 PUSH2 0x4F3D DUP6 DUP3 DUP7 ADD PUSH2 0x4D37 JUMP JUMPDEST SWAP3 POP POP PUSH1 0x20 PUSH2 0x4F4E DUP6 DUP3 DUP7 ADD PUSH2 0x4B94 JUMP JUMPDEST SWAP2 POP POP SWAP3 POP SWAP3 SWAP1 POP JUMP JUMPDEST PUSH1 0x0 DUP1 PUSH1 0x40 DUP4 DUP6 SUB SLT ISZERO PUSH2 0x4F6F JUMPI PUSH2 0x4F6E PUSH2 0x48B1 JUMP JUMPDEST JUMPDEST PUSH1 0x0 PUSH2 0x4F7D DUP6 DUP3 DUP7 ADD PUSH2 0x4ADF JUMP JUMPDEST SWAP3 POP POP PUSH1 0x20 PUSH2 0x4F8E DUP6 DUP3 DUP7 ADD PUSH2 0x4B94 JUMP JUMPDEST SWAP2 POP POP SWAP3 POP SWAP3 SWAP1 POP JUMP JUMPDEST PUSH1 0x0 PUSH8 0xFFFFFFFFFFFFFFFF DUP3 GT ISZERO PUSH2 0x4FB3 JUMPI PUSH2 0x4FB2 PUSH2 0x494A JUMP JUMPDEST JUMPDEST PUSH1 0x20 DUP3 MUL SWAP1 POP PUSH1 0x20 DUP2 ADD SWAP1 POP SWAP2 SWAP1 POP JUMP JUMPDEST PUSH1 0x0 PUSH2 0x4FD7 PUSH2 0x4FD2 DUP5 PUSH2 0x4F98 JUMP JUMPDEST PUSH2 0x49AA JUMP JUMPDEST SWAP1 POP DUP1 DUP4 DUP3 MSTORE PUSH1 0x20 DUP3 ADD SWAP1 POP PUSH1 0x20 DUP5 MUL DUP4 ADD DUP6 DUP2 GT ISZERO PUSH2 0x4FFA JUMPI PUSH2 0x4FF9 PUSH2 0x4D7E JUMP JUMPDEST JUMPDEST DUP4 JUMPDEST DUP2 DUP2 LT ISZERO PUSH2 0x5023 JUMPI DUP1 PUSH2 0x500F DUP9 DUP3 PUSH2 0x4B94 JUMP JUMPDEST DUP5 MSTORE PUSH1 0x20 DUP5 ADD SWAP4 POP POP PUSH1 0x20 DUP2 ADD SWAP1 POP PUSH2 0x4FFC JUMP JUMPDEST POP POP POP SWAP4 SWAP3 POP POP POP JUMP JUMPDEST PUSH1 0x0 DUP3 PUSH1 0x1F DUP4 ADD SLT PUSH2 0x5042 JUMPI PUSH2 0x5041 PUSH2 0x4940 JUMP JUMPDEST JUMPDEST DUP2 CALLDATALOAD PUSH2 0x5052 DUP5 DUP3 PUSH1 0x20 DUP7 ADD PUSH2 0x4FC4 JUMP JUMPDEST SWAP2 POP POP SWAP3 SWAP2 POP POP JUMP JUMPDEST PUSH1 0x0 DUP1 PUSH1 0x0 PUSH1 0x60 DUP5 DUP7 SUB SLT ISZERO PUSH2 0x5074 JUMPI PUSH2 0x5073 PUSH2 0x48B1 JUMP JUMPDEST JUMPDEST PUSH1 0x0 PUSH2 0x5082 DUP7 DUP3 DUP8 ADD PUSH2 0x4ADF JUMP JUMPDEST SWAP4 POP POP PUSH1 0x20 DUP5 ADD CALLDATALOAD PUSH8 0xFFFFFFFFFFFFFFFF DUP2 GT ISZERO PUSH2 0x50A3 JUMPI PUSH2 0x50A2 PUSH2 0x48B6 JUMP JUMPDEST JUMPDEST PUSH2 0x50AF DUP7 DUP3 DUP8 ADD PUSH2 0x502D JUMP JUMPDEST SWAP3 POP POP PUSH1 0x40 DUP5 ADD CALLDATALOAD PUSH8 0xFFFFFFFFFFFFFFFF DUP2 GT ISZERO PUSH2 0x50D0 JUMPI PUSH2 0x50CF PUSH2 0x48B6 JUMP JUMPDEST JUMPDEST PUSH2 0x50DC DUP7 DUP3 DUP8 ADD PUSH2 0x4E6E JUMP JUMPDEST SWAP2 POP POP SWAP3 POP SWAP3 POP SWAP3 JUMP JUMPDEST PUSH1 0x0 PUSH1 0x20 DUP3 DUP5 SUB SLT ISZERO PUSH2 0x50FC JUMPI PUSH2 0x50FB PUSH2 0x48B1 JUMP JUMPDEST JUMPDEST PUSH1 0x0 DUP3 ADD CALLDATALOAD PUSH8 0xFFFFFFFFFFFFFFFF DUP2 GT ISZERO PUSH2 0x511A JUMPI PUSH2 0x5119 PUSH2 0x48B6 JUMP JUMPDEST JUMPDEST PUSH2 0x5126 DUP5 DUP3 DUP6 ADD PUSH2 0x4E6E JUMP JUMPDEST SWAP2 POP POP SWAP3 SWAP2 POP POP JUMP JUMPDEST PUSH1 0x0 DUP1 DUP4 PUSH1 0x1F DUP5 ADD SLT PUSH2 0x5145 JUMPI PUSH2 0x5144 PUSH2 0x4940 JUMP JUMPDEST JUMPDEST DUP3 CALLDATALOAD SWAP1 POP PUSH8 0xFFFFFFFFFFFFFFFF DUP2 GT ISZERO PUSH2 0x5162 JUMPI PUSH2 0x5161 PUSH2 0x4D79 JUMP JUMPDEST JUMPDEST PUSH1 0x20 DUP4 ADD SWAP2 POP DUP4 PUSH1 0x20 DUP3 MUL DUP4 ADD GT ISZERO PUSH2 0x517E JUMPI PUSH2 0x517D PUSH2 0x4D7E JUMP JUMPDEST JUMPDEST SWAP3 POP SWAP3 SWAP1 POP JUMP JUMPDEST PUSH1 0x0 DUP1 PUSH1 0x0 DUP1 PUSH1 0x0 PUSH1 0x80 DUP7 DUP9 SUB SLT ISZERO PUSH2 0x51A1 JUMPI PUSH2 0x51A0 PUSH2 0x48B1 JUMP JUMPDEST JUMPDEST PUSH1 0x0 PUSH2 0x51AF DUP9 DUP3 DUP10 ADD PUSH2 0x4ADF JUMP JUMPDEST SWAP6 POP POP PUSH1 0x20 PUSH2 0x51C0 DUP9 DUP3 DUP10 ADD PUSH2 0x4ADF JUMP JUMPDEST SWAP5 POP POP PUSH1 0x40 DUP7 ADD CALLDATALOAD PUSH8 0xFFFFFFFFFFFFFFFF DUP2 GT ISZERO PUSH2 0x51E1 JUMPI PUSH2 0x51E0 PUSH2 0x48B6 JUMP JUMPDEST JUMPDEST PUSH2 0x51ED DUP9 DUP3 DUP10 ADD PUSH2 0x512F JUMP JUMPDEST SWAP4 POP SWAP4 POP POP PUSH1 0x60 PUSH2 0x5200 DUP9 DUP3 DUP10 ADD PUSH2 0x4ADF JUMP JUMPDEST SWAP2 POP POP SWAP3 SWAP6 POP SWAP3 SWAP6 SWAP1 SWAP4 POP JUMP JUMPDEST PUSH1 0x0 DUP2 SWAP1 POP SWAP2 SWAP1 POP JUMP JUMPDEST PUSH1 0x0 PUSH2 0x5232 PUSH2 0x522D PUSH2 0x5228 DUP5 PUSH2 0x4B21 JUMP JUMPDEST PUSH2 0x520D JUMP JUMPDEST PUSH2 0x4B21 JUMP JUMPDEST SWAP1 POP SWAP2 SWAP1 POP JUMP JUMPDEST PUSH1 0x0 PUSH2 0x5244 DUP3 PUSH2 0x5217 JUMP JUMPDEST SWAP1 POP SWAP2 SWAP1 POP JUMP JUMPDEST PUSH1 0x0 PUSH2 0x5256 DUP3 PUSH2 0x5239 JUMP JUMPDEST SWAP1 POP SWAP2 SWAP1 POP JUMP JUMPDEST PUSH2 0x5266 DUP2 PUSH2 0x524B JUMP JUMPDEST DUP3 MSTORE POP POP JUMP JUMPDEST PUSH1 0x0 PUSH1 0x20 DUP3 ADD SWAP1 POP PUSH2 0x5281 PUSH1 0x0 DUP4 ADD DUP5 PUSH2 0x525D JUMP JUMPDEST SWAP3 SWAP2 POP POP JUMP JUMPDEST PUSH1 0x0 DUP1 PUSH1 0x40 DUP4 DUP6 SUB SLT ISZERO PUSH2 0x529E JUMPI PUSH2 0x529D PUSH2 0x48B1 JUMP JUMPDEST JUMPDEST PUSH1 0x0 PUSH2 0x52AC DUP6 DUP3 DUP7 ADD PUSH2 0x4B94 JUMP JUMPDEST SWAP3 POP POP PUSH1 0x20 PUSH2 0x52BD DUP6 DUP3 DUP7 ADD PUSH2 0x4C2A JUMP JUMPDEST SWAP2 POP POP SWAP3 POP SWAP3 SWAP1 POP JUMP JUMPDEST PUSH1 0x0 PUSH8 0xFFFFFFFFFFFFFFFF DUP3 GT ISZERO PUSH2 0x52E2 JUMPI PUSH2 0x52E1 PUSH2 0x494A JUMP JUMPDEST JUMPDEST PUSH2 0x52EB DUP3 PUSH2 0x483B JUMP JUMPDEST SWAP1 POP PUSH1 0x20 DUP2 ADD SWAP1 POP SWAP2 SWAP1 POP JUMP JUMPDEST PUSH1 0x0 PUSH2 0x530B PUSH2 0x5306 DUP5 PUSH2 0x52C7 JUMP JUMPDEST PUSH2 0x49AA JUMP JUMPDEST SWAP1 POP DUP3 DUP2 MSTORE PUSH1 0x20 DUP2 ADD DUP5 DUP5 DUP5 ADD GT ISZERO PUSH2 0x5327 JUMPI PUSH2 0x5326 PUSH2 0x4945 JUMP JUMPDEST JUMPDEST PUSH2 0x5332 DUP5 DUP3 DUP6 PUSH2 0x49F6 JUMP JUMPDEST POP SWAP4 SWAP3 POP POP POP JUMP JUMPDEST PUSH1 0x0 DUP3 PUSH1 0x1F DUP4 ADD SLT PUSH2 0x534F JUMPI PUSH2 0x534E PUSH2 0x4940 JUMP JUMPDEST JUMPDEST DUP2 CALLDATALOAD PUSH2 0x535F DUP5 DUP3 PUSH1 0x20 DUP7 ADD PUSH2 0x52F8 JUMP JUMPDEST SWAP2 POP POP SWAP3 SWAP2 POP POP JUMP JUMPDEST PUSH1 0x0 DUP1 PUSH1 0x0 DUP1 PUSH1 0x80 DUP6 DUP8 SUB SLT ISZERO PUSH2 0x5382 JUMPI PUSH2 0x5381 PUSH2 0x48B1 JUMP JUMPDEST JUMPDEST PUSH1 0x0 PUSH2 0x5390 DUP8 DUP3 DUP9 ADD PUSH2 0x4B94 JUMP JUMPDEST SWAP5 POP POP PUSH1 0x20 PUSH2 0x53A1 DUP8 DUP3 DUP9 ADD PUSH2 0x4B94 JUMP JUMPDEST SWAP4 POP POP PUSH1 0x40 PUSH2 0x53B2 DUP8 DUP3 DUP9 ADD PUSH2 0x4ADF JUMP JUMPDEST SWAP3 POP POP PUSH1 0x60 DUP6 ADD CALLDATALOAD PUSH8 0xFFFFFFFFFFFFFFFF DUP2 GT ISZERO PUSH2 0x53D3 JUMPI PUSH2 0x53D2 PUSH2 0x48B6 JUMP JUMPDEST JUMPDEST PUSH2 0x53DF DUP8 DUP3 DUP9 ADD PUSH2 0x533A JUMP JUMPDEST SWAP2 POP POP SWAP3 SWAP6 SWAP2 SWAP5 POP SWAP3 POP JUMP JUMPDEST PUSH1 0x0 DUP1 PUSH1 0x40 DUP4 DUP6 SUB SLT ISZERO PUSH2 0x5402 JUMPI PUSH2 0x5401 PUSH2 0x48B1 JUMP JUMPDEST JUMPDEST PUSH1 0x0 PUSH2 0x5410 DUP6 DUP3 DUP7 ADD PUSH2 0x4B94 JUMP JUMPDEST SWAP3 POP POP PUSH1 0x20 PUSH2 0x5421 DUP6 DUP3 DUP7 ADD PUSH2 0x4B94 JUMP JUMPDEST SWAP2 POP POP SWAP3 POP SWAP3 SWAP1 POP JUMP JUMPDEST PUSH32 0x4E487B7100000000000000000000000000000000000000000000000000000000 PUSH1 0x0 MSTORE PUSH1 0x22 PUSH1 0x4 MSTORE PUSH1 0x24 PUSH1 0x0 REVERT JUMPDEST PUSH1 0x0 PUSH1 0x2 DUP3 DIV SWAP1 POP PUSH1 0x1 DUP3 AND DUP1 PUSH2 0x5472 JUMPI PUSH1 0x7F DUP3 AND SWAP2 POP JUMPDEST PUSH1 0x20 DUP3 LT DUP2 SUB PUSH2 0x5485 JUMPI PUSH2 0x5484 PUSH2 0x542B JUMP JUMPDEST JUMPDEST POP SWAP2 SWAP1 POP JUMP JUMPDEST PUSH1 0x0 DUP2 SWAP1 POP DUP2 PUSH1 0x0 MSTORE PUSH1 0x20 PUSH1 0x0 KECCAK256 SWAP1 POP SWAP2 SWAP1 POP JUMP JUMPDEST PUSH1 0x0 PUSH1 0x20 PUSH1 0x1F DUP4 ADD DIV SWAP1 POP SWAP2 SWAP1 POP JUMP JUMPDEST PUSH1 0x0 DUP3 DUP3 SHL SWAP1 POP SWAP3 SWAP2 POP POP JUMP JUMPDEST PUSH1 0x0 PUSH1 0x8 DUP4 MUL PUSH2 0x54ED PUSH32 0xFFFFFFFFFFFFFFFFFFFFFFFFFFFFFFFFFFFFFFFFFFFFFFFFFFFFFFFFFFFFFFFF DUP3 PUSH2 0x54B0 JUMP JUMPDEST PUSH2 0x54F7 DUP7 DUP4 PUSH2 0x54B0 JUMP JUMPDEST SWAP6 POP DUP1 NOT DUP5 AND SWAP4 POP DUP1 DUP7 AND DUP5 OR SWAP3 POP POP POP SWAP4 SWAP3 POP POP POP JUMP JUMPDEST PUSH1 0x0 PUSH2 0x552A PUSH2 0x5525 PUSH2 0x5520 DUP5 PUSH2 0x4ABE JUMP JUMPDEST PUSH2 0x520D JUMP JUMPDEST PUSH2 0x4ABE JUMP JUMPDEST SWAP1 POP SWAP2 SWAP1 POP JUMP JUMPDEST PUSH1 0x0 DUP2 SWAP1 POP SWAP2 SWAP1 POP JUMP JUMPDEST PUSH2 0x5544 DUP4 PUSH2 0x550F JUMP JUMPDEST PUSH2 0x5558 PUSH2 0x5550 DUP3 PUSH2 0x5531 JUMP JUMPDEST DUP5 DUP5 SLOAD PUSH2 0x54BD JUMP JUMPDEST DUP3 SSTORE POP POP POP POP JUMP JUMPDEST PUSH1 0x0 SWAP1 JUMP JUMPDEST PUSH2 0x556D PUSH2 0x5560 JUMP JUMPDEST PUSH2 0x5578 DUP2 DUP5 DUP5 PUSH2 0x553B JUMP JUMPDEST POP POP POP JUMP JUMPDEST JUMPDEST DUP2 DUP2 LT ISZERO PUSH2 0x559C JUMPI PUSH2 0x5591 PUSH1 0x0 DUP3 PUSH2 0x5565 JUMP JUMPDEST PUSH1 0x1 DUP2 ADD SWAP1 POP PUSH2 0x557E JUMP JUMPDEST POP POP JUMP JUMPDEST PUSH1 0x1F DUP3 GT ISZERO PUSH2 0x55E1 JUMPI PUSH2 0x55B2 DUP2 PUSH2 0x548B JUMP JUMPDEST PUSH2 0x55BB DUP5 PUSH2 0x54A0 JUMP JUMPDEST DUP2 ADD PUSH1 0x20 DUP6 LT ISZERO PUSH2 0x55CA JUMPI DUP2 SWAP1 POP JUMPDEST PUSH2 0x55DE PUSH2 0x55D6 DUP6 PUSH2 0x54A0 JUMP JUMPDEST DUP4 ADD DUP3 PUSH2 0x557D JUMP JUMPDEST POP POP JUMPDEST POP POP POP JUMP JUMPDEST PUSH1 0x0 DUP3 DUP3 SHR SWAP1 POP SWAP3 SWAP2 POP POP JUMP JUMPDEST PUSH1 0x0 PUSH2 0x5604 PUSH1 0x0 NOT DUP5 PUSH1 0x8 MUL PUSH2 0x55E6 JUMP JUMPDEST NOT DUP1 DUP4 AND SWAP2 POP POP SWAP3 SWAP2 POP POP JUMP JUMPDEST PUSH1 0x0 PUSH2 0x561D DUP4 DUP4 PUSH2 0x55F3 JUMP JUMPDEST SWAP2 POP DUP3 PUSH1 0x2 MUL DUP3 OR SWAP1 POP SWAP3 SWAP2 POP POP JUMP JUMPDEST PUSH2 0x5636 DUP3 PUSH2 0x47F5 JUMP JUMPDEST PUSH8 0xFFFFFFFFFFFFFFFF DUP2 GT ISZERO PUSH2 0x564F JUMPI PUSH2 0x564E PUSH2 0x494A JUMP JUMPDEST JUMPDEST PUSH2 0x5659 DUP3 SLOAD PUSH2 0x545A JUMP JUMPDEST PUSH2 0x5664 DUP3 DUP3 DUP6 PUSH2 0x55A0 JUMP JUMPDEST PUSH1 0x0 PUSH1 0x20 SWAP1 POP PUSH1 0x1F DUP4 GT PUSH1 0x1 DUP2 EQ PUSH2 0x5697 JUMPI PUSH1 0x0 DUP5 ISZERO PUSH2 0x5685 JUMPI DUP3 DUP8 ADD MLOAD SWAP1 POP JUMPDEST PUSH2 0x568F DUP6 DUP3 PUSH2 0x5611 JUMP JUMPDEST DUP7 SSTORE POP PUSH2 0x56F7 JUMP JUMPDEST PUSH1 0x1F NOT DUP5 AND PUSH2 0x56A5 DUP7 PUSH2 0x548B JUMP JUMPDEST PUSH1 0x0 JUMPDEST DUP3 DUP2 LT ISZERO PUSH2 0x56CD JUMPI DUP5 DUP10 ADD MLOAD DUP3 SSTORE PUSH1 0x1 DUP3 ADD SWAP2 POP PUSH1 0x20 DUP6 ADD SWAP5 POP PUSH1 0x20 DUP2 ADD SWAP1 POP PUSH2 0x56A8 JUMP JUMPDEST DUP7 DUP4 LT ISZERO PUSH2 0x56EA JUMPI DUP5 DUP10 ADD MLOAD PUSH2 0x56E6 PUSH1 0x1F DUP10 AND DUP3 PUSH2 0x55F3 JUMP JUMPDEST DUP4 SSTORE POP JUMPDEST PUSH1 0x1 PUSH1 0x2 DUP9 MUL ADD DUP9 SSTORE POP POP POP JUMPDEST POP POP POP POP POP POP JUMP JUMPDEST PUSH32 0x617070726F76652069732070726F686962697465640000000000000000000000 PUSH1 0x0 DUP3 ADD MSTORE POP JUMP JUMPDEST PUSH1 0x0 PUSH2 0x5735 PUSH1 0x15 DUP4 PUSH2 0x4800 JUMP JUMPDEST SWAP2 POP PUSH2 0x5740 DUP3 PUSH2 0x56FF JUMP JUMPDEST PUSH1 0x20 DUP3 ADD SWAP1 POP SWAP2 SWAP1 POP JUMP JUMPDEST PUSH1 0x0 PUSH1 0x20 DUP3 ADD SWAP1 POP DUP2 DUP2 SUB PUSH1 0x0 DUP4 ADD MSTORE PUSH2 0x5764 DUP2 PUSH2 0x5728 JUMP JUMPDEST SWAP1 POP SWAP2 SWAP1 POP JUMP JUMPDEST PUSH32 0x43616C6C6572206973206E6F742061206169722064726F707065720000000000 PUSH1 0x0 DUP3 ADD MSTORE POP JUMP JUMPDEST PUSH1 0x0 PUSH2 0x57A1 PUSH1 0x1B DUP4 PUSH2 0x4800 JUMP JUMPDEST SWAP2 POP PUSH2 0x57AC DUP3 PUSH2 0x576B JUMP JUMPDEST PUSH1 0x20 DUP3 ADD SWAP1 POP SWAP2 SWAP1 POP JUMP JUMPDEST PUSH1 0x0 PUSH1 0x20 DUP3 ADD SWAP1 POP DUP2 DUP2 SUB PUSH1 0x0 DUP4 ADD MSTORE PUSH2 0x57D0 DUP2 PUSH2 0x5794 JUMP JUMPDEST SWAP1 POP SWAP2 SWAP1 POP JUMP JUMPDEST PUSH32 0x4E487B7100000000000000000000000000000000000000000000000000000000 PUSH1 0x0 MSTORE PUSH1 0x32 PUSH1 0x4 MSTORE PUSH1 0x24 PUSH1 0x0 REVERT JUMPDEST PUSH32 0x4E487B7100000000000000000000000000000000000000000000000000000000 PUSH1 0x0 MSTORE PUSH1 0x11 PUSH1 0x4 MSTORE PUSH1 0x24 PUSH1 0x0 REVERT JUMPDEST PUSH1 0x0 PUSH2 0x5840 DUP3 PUSH2 0x4ABE JUMP JUMPDEST SWAP2 POP PUSH2 0x584B DUP4 PUSH2 0x4ABE JUMP JUMPDEST SWAP3 POP DUP3 DUP3 ADD SWAP1 POP DUP1 DUP3 GT ISZERO PUSH2 0x5863 JUMPI PUSH2 0x5862 PUSH2 0x5806 JUMP JUMPDEST JUMPDEST SWAP3 SWAP2 POP POP JUMP JUMPDEST PUSH1 0x0 PUSH2 0x5874 DUP3 PUSH2 0x4ABE JUMP JUMPDEST SWAP2 POP PUSH32 0xFFFFFFFFFFFFFFFFFFFFFFFFFFFFFFFFFFFFFFFFFFFFFFFFFFFFFFFFFFFFFFFF DUP3 SUB PUSH2 0x58A6 JUMPI PUSH2 0x58A5 PUSH2 0x5806 JUMP JUMPDEST JUMPDEST PUSH1 0x1 DUP3 ADD SWAP1 POP SWAP2 SWAP1 POP JUMP JUMPDEST PUSH32 0x6E65656420746F206D696E74206174206C656173742031204E46540000000000 PUSH1 0x0 DUP3 ADD MSTORE POP JUMP JUMPDEST PUSH1 0x0 PUSH2 0x58E7 PUSH1 0x1B DUP4 PUSH2 0x4800 JUMP JUMPDEST SWAP2 POP PUSH2 0x58F2 DUP3 PUSH2 0x58B1 JUMP JUMPDEST PUSH1 0x20 DUP3 ADD SWAP1 POP SWAP2 SWAP1 POP JUMP JUMPDEST PUSH1 0x0 PUSH1 0x20 DUP3 ADD SWAP1 POP DUP2 DUP2 SUB PUSH1 0x0 DUP4 ADD MSTORE PUSH2 0x5916 DUP2 PUSH2 0x58DA JUMP JUMPDEST SWAP1 POP SWAP2 SWAP1 POP JUMP JUMPDEST PUSH32 0x6D6178204E4654206C696D697420657863656564656400000000000000000000 PUSH1 0x0 DUP3 ADD MSTORE POP JUMP JUMPDEST PUSH1 0x0 PUSH2 0x5953 PUSH1 0x16 DUP4 PUSH2 0x4800 JUMP JUMPDEST SWAP2 POP PUSH2 0x595E DUP3 PUSH2 0x591D JUMP JUMPDEST PUSH1 0x20 DUP3 ADD SWAP1 POP SWAP2 SWAP1 POP JUMP JUMPDEST PUSH1 0x0 PUSH1 0x20 DUP3 ADD SWAP1 POP DUP2 DUP2 SUB PUSH1 0x0 DUP4 ADD MSTORE PUSH2 0x5982 DUP2 PUSH2 0x5946 JUMP JUMPDEST SWAP1 POP SWAP2 SWAP1 POP JUMP JUMPDEST PUSH32 0x416363657373436F6E74726F6C3A2063616E206F6E6C792072656E6F756E6365 PUSH1 0x0 DUP3 ADD MSTORE PUSH32 0x20726F6C657320666F722073656C660000000000000000000000000000000000 PUSH1 0x20 DUP3 ADD MSTORE POP JUMP JUMPDEST PUSH1 0x0 PUSH2 0x59E5 PUSH1 0x2F DUP4 PUSH2 0x4800 JUMP JUMPDEST SWAP2 POP PUSH2 0x59F0 DUP3 PUSH2 0x5989 JUMP JUMPDEST PUSH1 0x40 DUP3 ADD SWAP1 POP SWAP2 SWAP1 POP JUMP JUMPDEST PUSH1 0x0 PUSH1 0x20 DUP3 ADD SWAP1 POP DUP2 DUP2 SUB PUSH1 0x0 DUP4 ADD MSTORE PUSH2 0x5A14 DUP2 PUSH2 0x59D8 JUMP JUMPDEST SWAP1 POP SWAP2 SWAP1 POP JUMP JUMPDEST PUSH1 0x0 DUP2 SWAP1 POP SWAP3 SWAP2 POP POP JUMP JUMPDEST POP JUMP JUMPDEST PUSH1 0x0 PUSH2 0x5A36 PUSH1 0x0 DUP4 PUSH2 0x5A1B JUMP JUMPDEST SWAP2 POP PUSH2 0x5A41 DUP3 PUSH2 0x5A26 JUMP JUMPDEST PUSH1 0x0 DUP3 ADD SWAP1 POP SWAP2 SWAP1 POP JUMP JUMPDEST PUSH1 0x0 PUSH2 0x5A57 DUP3 PUSH2 0x5A29 JUMP JUMPDEST SWAP2 POP DUP2 SWAP1 POP SWAP2 SWAP1 POP JUMP JUMPDEST PUSH32 0x43616C6C6572206973206E6F742061206275726E657200000000000000000000 PUSH1 0x0 DUP3 ADD MSTORE POP JUMP JUMPDEST PUSH1 0x0 PUSH2 0x5A97 PUSH1 0x16 DUP4 PUSH2 0x4800 JUMP JUMPDEST SWAP2 POP PUSH2 0x5AA2 DUP3 PUSH2 0x5A61 JUMP JUMPDEST PUSH1 0x20 DUP3 ADD SWAP1 POP SWAP2 SWAP1 POP JUMP JUMPDEST PUSH1 0x0 PUSH1 0x20 DUP3 ADD SWAP1 POP DUP2 DUP2 SUB PUSH1 0x0 DUP4 ADD MSTORE PUSH2 0x5AC6 DUP2 PUSH2 0x5A8A JUMP JUMPDEST SWAP1 POP SWAP2 SWAP1 POP JUMP JUMPDEST PUSH32 0x4F776E657220697320646966666572656E740000000000000000000000000000 PUSH1 0x0 DUP3 ADD MSTORE POP JUMP JUMPDEST PUSH1 0x0 PUSH2 0x5B03 PUSH1 0x12 DUP4 PUSH2 0x4800 JUMP JUMPDEST SWAP2 POP PUSH2 0x5B0E DUP3 PUSH2 0x5ACD JUMP JUMPDEST PUSH1 0x20 DUP3 ADD SWAP1 POP SWAP2 SWAP1 POP JUMP JUMPDEST PUSH1 0x0 PUSH1 0x20 DUP3 ADD SWAP1 POP DUP2 DUP2 SUB PUSH1 0x0 DUP4 ADD MSTORE PUSH2 0x5B32 DUP2 PUSH2 0x5AF6 JUMP JUMPDEST SWAP1 POP SWAP2 SWAP1 POP JUMP JUMPDEST PUSH32 0x5468652063616C6C657220697320616E6F7468657220636F6E74726163742E00 PUSH1 0x0 DUP3 ADD MSTORE POP JUMP JUMPDEST PUSH1 0x0 PUSH2 0x5B6F PUSH1 0x1F DUP4 PUSH2 0x4800 JUMP JUMPDEST SWAP2 POP PUSH2 0x5B7A DUP3 PUSH2 0x5B39 JUMP JUMPDEST PUSH1 0x20 DUP3 ADD SWAP1 POP SWAP2 SWAP1 POP JUMP JUMPDEST PUSH1 0x0 PUSH1 0x20 DUP3 ADD SWAP1 POP DUP2 DUP2 SUB PUSH1 0x0 DUP4 ADD MSTORE PUSH2 0x5B9E DUP2 PUSH2 0x5B62 JUMP JUMPDEST SWAP1 POP SWAP2 SWAP1 POP JUMP JUMPDEST PUSH32 0x74686520636F6E74726163742069732070617573656400000000000000000000 PUSH1 0x0 DUP3 ADD MSTORE POP JUMP JUMPDEST PUSH1 0x0 PUSH2 0x5BDB PUSH1 0x16 DUP4 PUSH2 0x4800 JUMP JUMPDEST SWAP2 POP PUSH2 0x5BE6 DUP3 PUSH2 0x5BA5 JUMP JUMPDEST PUSH1 0x20 DUP3 ADD SWAP1 POP SWAP2 SWAP1 POP JUMP JUMPDEST PUSH1 0x0 PUSH1 0x20 DUP3 ADD SWAP1 POP DUP2 DUP2 SUB PUSH1 0x0 DUP4 ADD MSTORE PUSH2 0x5C0A DUP2 PUSH2 0x5BCE JUMP JUMPDEST SWAP1 POP SWAP2 SWAP1 POP JUMP JUMPDEST PUSH32 0x6D6178206D696E7420616D6F756E74207065722073657373696F6E2065786365 PUSH1 0x0 DUP3 ADD MSTORE PUSH32 0x6564656400000000000000000000000000000000000000000000000000000000 PUSH1 0x20 DUP3 ADD MSTORE POP JUMP JUMPDEST PUSH1 0x0 PUSH2 0x5C6D PUSH1 0x24 DUP4 PUSH2 0x4800 JUMP JUMPDEST SWAP2 POP PUSH2 0x5C78 DUP3 PUSH2 0x5C11 JUMP JUMPDEST PUSH1 0x40 DUP3 ADD SWAP1 POP SWAP2 SWAP1 POP JUMP JUMPDEST PUSH1 0x0 PUSH1 0x20 DUP3 ADD SWAP1 POP DUP2 DUP2 SUB PUSH1 0x0 DUP4 ADD MSTORE PUSH2 0x5C9C DUP2 PUSH2 0x5C60 JUMP JUMPDEST SWAP1 POP SWAP2 SWAP1 POP JUMP JUMPDEST PUSH1 0x0 PUSH2 0x5CAE DUP3 PUSH2 0x4ABE JUMP JUMPDEST SWAP2 POP PUSH2 0x5CB9 DUP4 PUSH2 0x4ABE JUMP JUMPDEST SWAP3 POP DUP3 DUP3 SUB SWAP1 POP DUP2 DUP2 GT ISZERO PUSH2 0x5CD1 JUMPI PUSH2 0x5CD0 PUSH2 0x5806 JUMP JUMPDEST JUMPDEST SWAP3 SWAP2 POP POP JUMP JUMPDEST PUSH1 0x0 PUSH2 0x5CE2 DUP3 PUSH2 0x4ABE JUMP JUMPDEST SWAP2 POP PUSH2 0x5CED DUP4 PUSH2 0x4ABE JUMP JUMPDEST SWAP3 POP DUP3 DUP3 MUL PUSH2 0x5CFB DUP2 PUSH2 0x4ABE JUMP JUMPDEST SWAP2 POP DUP3 DUP3 DIV DUP5 EQ DUP4 ISZERO OR PUSH2 0x5D12 JUMPI PUSH2 0x5D11 PUSH2 0x5806 JUMP JUMPDEST JUMPDEST POP SWAP3 SWAP2 POP POP JUMP JUMPDEST PUSH32 0x696E73756666696369656E742066756E64730000000000000000000000000000 PUSH1 0x0 DUP3 ADD MSTORE POP JUMP JUMPDEST PUSH1 0x0 PUSH2 0x5D4F PUSH1 0x12 DUP4 PUSH2 0x4800 JUMP JUMPDEST SWAP2 POP PUSH2 0x5D5A DUP3 PUSH2 0x5D19 JUMP JUMPDEST PUSH1 0x20 DUP3 ADD SWAP1 POP SWAP2 SWAP1 POP JUMP JUMPDEST PUSH1 0x0 PUSH1 0x20 DUP3 ADD SWAP1 POP DUP2 DUP2 SUB PUSH1 0x0 DUP4 ADD MSTORE PUSH2 0x5D7E DUP2 PUSH2 0x5D42 JUMP JUMPDEST SWAP1 POP SWAP2 SWAP1 POP JUMP JUMPDEST PUSH1 0x0 DUP2 PUSH1 0x60 SHL SWAP1 POP SWAP2 SWAP1 POP JUMP JUMPDEST PUSH1 0x0 PUSH2 0x5D9D DUP3 PUSH2 0x5D85 JUMP JUMPDEST SWAP1 POP SWAP2 SWAP1 POP JUMP JUMPDEST PUSH1 0x0 PUSH2 0x5DAF DUP3 PUSH2 0x5D92 JUMP JUMPDEST SWAP1 POP SWAP2 SWAP1 POP JUMP JUMPDEST PUSH2 0x5DC7 PUSH2 0x5DC2 DUP3 PUSH2 0x4B41 JUMP JUMPDEST PUSH2 0x5DA4 JUMP JUMPDEST DUP3 MSTORE POP POP JUMP JUMPDEST PUSH1 0x0 DUP2 SWAP1 POP SWAP2 SWAP1 POP JUMP JUMPDEST PUSH2 0x5DE8 PUSH2 0x5DE3 DUP3 PUSH2 0x4ABE JUMP JUMPDEST PUSH2 0x5DCD JUMP JUMPDEST DUP3 MSTORE POP POP JUMP JUMPDEST PUSH1 0x0 PUSH2 0x5DFA DUP3 DUP6 PUSH2 0x5DB6 JUMP JUMPDEST PUSH1 0x14 DUP3 ADD SWAP2 POP PUSH2 0x5E0A DUP3 DUP5 PUSH2 0x5DD7 JUMP JUMPDEST PUSH1 0x20 DUP3 ADD SWAP2 POP DUP2 SWAP1 POP SWAP4 SWAP3 POP POP POP JUMP JUMPDEST PUSH32 0x75736572206973206E6F7420616C6C6F776C6973746564000000000000000000 PUSH1 0x0 DUP3 ADD MSTORE POP JUMP JUMPDEST PUSH1 0x0 PUSH2 0x5E50 PUSH1 0x17 DUP4 PUSH2 0x4800 JUMP JUMPDEST SWAP2 POP PUSH2 0x5E5B DUP3 PUSH2 0x5E1A JUMP JUMPDEST PUSH1 0x20 DUP3 ADD SWAP1 POP SWAP2 SWAP1 POP JUMP JUMPDEST PUSH1 0x0 PUSH1 0x20 DUP3 ADD SWAP1 POP DUP2 DUP2 SUB PUSH1 0x0 DUP4 ADD MSTORE PUSH2 0x5E7F DUP2 PUSH2 0x5E43 JUMP JUMPDEST SWAP1 POP SWAP2 SWAP1 POP JUMP JUMPDEST PUSH32 0x6D6178204E465420706572206164647265737320657863656564656400000000 PUSH1 0x0 DUP3 ADD MSTORE POP JUMP JUMPDEST PUSH1 0x0 PUSH2 0x5EBC PUSH1 0x1C DUP4 PUSH2 0x4800 JUMP JUMPDEST SWAP2 POP PUSH2 0x5EC7 DUP3 PUSH2 0x5E86 JUMP JUMPDEST PUSH1 0x20 DUP3 ADD SWAP1 POP SWAP2 SWAP1 POP JUMP JUMPDEST PUSH1 0x0 PUSH1 0x20 DUP3 ADD SWAP1 POP DUP2 DUP2 SUB PUSH1 0x0 DUP4 ADD MSTORE PUSH2 0x5EEB DUP2 PUSH2 0x5EAF JUMP JUMPDEST SWAP1 POP SWAP2 SWAP1 POP JUMP JUMPDEST PUSH1 0x0 PUSH2 0x5EFF PUSH1 0x0 DUP4 PUSH2 0x4800 JUMP JUMPDEST SWAP2 POP PUSH2 0x5F0A DUP3 PUSH2 0x5A26 JUMP JUMPDEST PUSH1 0x0 DUP3 ADD SWAP1 POP SWAP2 SWAP1 POP JUMP JUMPDEST PUSH1 0x0 PUSH1 0x20 DUP3 ADD SWAP1 POP DUP2 DUP2 SUB PUSH1 0x0 DUP4 ADD MSTORE PUSH2 0x5F2E DUP2 PUSH2 0x5EF2 JUMP JUMPDEST SWAP1 POP SWAP2 SWAP1 POP JUMP JUMPDEST PUSH32 0x416C6C6F77206C6973742074797065206572726F720000000000000000000000 PUSH1 0x0 DUP3 ADD MSTORE POP JUMP JUMPDEST PUSH1 0x0 PUSH2 0x5F6B PUSH1 0x15 DUP4 PUSH2 0x4800 JUMP JUMPDEST SWAP2 POP PUSH2 0x5F76 DUP3 PUSH2 0x5F35 JUMP JUMPDEST PUSH1 0x20 DUP3 ADD SWAP1 POP SWAP2 SWAP1 POP JUMP JUMPDEST PUSH1 0x0 PUSH1 0x20 DUP3 ADD SWAP1 POP DUP2 DUP2 SUB PUSH1 0x0 DUP4 ADD MSTORE PUSH2 0x5F9A DUP2 PUSH2 0x5F5E JUMP JUMPDEST SWAP1 POP SWAP2 SWAP1 POP JUMP JUMPDEST PUSH32 0x43616C6C6572206973206E6F742061206D696E74657200000000000000000000 PUSH1 0x0 DUP3 ADD MSTORE POP JUMP JUMPDEST PUSH1 0x0 PUSH2 0x5FD7 PUSH1 0x16 DUP4 PUSH2 0x4800 JUMP JUMPDEST SWAP2 POP PUSH2 0x5FE2 DUP3 PUSH2 0x5FA1 JUMP JUMPDEST PUSH1 0x20 DUP3 ADD SWAP1 POP SWAP2 SWAP1 POP JUMP JUMPDEST PUSH1 0x0 PUSH1 0x20 DUP3 ADD SWAP1 POP DUP2 DUP2 SUB PUSH1 0x0 DUP4 ADD MSTORE PUSH2 0x6006 DUP2 PUSH2 0x5FCA JUMP JUMPDEST SWAP1 POP SWAP2 SWAP1 POP JUMP JUMPDEST PUSH32 0x736574417070726F76616C466F72416C6C2069732070726F6869626974656400 PUSH1 0x0 DUP3 ADD MSTORE POP JUMP JUMPDEST PUSH1 0x0 PUSH2 0x6043 PUSH1 0x1F DUP4 PUSH2 0x4800 JUMP JUMPDEST SWAP2 POP PUSH2 0x604E DUP3 PUSH2 0x600D JUMP JUMPDEST PUSH1 0x20 DUP3 ADD SWAP1 POP SWAP2 SWAP1 POP JUMP JUMPDEST PUSH1 0x0 PUSH1 0x20 DUP3 ADD SWAP1 POP DUP2 DUP2 SUB PUSH1 0x0 DUP4 ADD MSTORE PUSH2 0x6072 DUP2 PUSH2 0x6036 JUMP JUMPDEST SWAP1 POP SWAP2 SWAP1 POP JUMP JUMPDEST PUSH1 0x0 PUSH2 0x608C PUSH2 0x6087 DUP5 PUSH2 0x49C5 JUMP JUMPDEST PUSH2 0x49AA JUMP JUMPDEST SWAP1 POP DUP3 DUP2 MSTORE PUSH1 0x20 DUP2 ADD DUP5 DUP5 DUP5 ADD GT ISZERO PUSH2 0x60A8 JUMPI PUSH2 0x60A7 PUSH2 0x4945 JUMP JUMPDEST JUMPDEST PUSH2 0x60B3 DUP5 DUP3 DUP6 PUSH2 0x4811 JUMP JUMPDEST POP SWAP4 SWAP3 POP POP POP JUMP JUMPDEST PUSH1 0x0 DUP3 PUSH1 0x1F DUP4 ADD SLT PUSH2 0x60D0 JUMPI PUSH2 0x60CF PUSH2 0x4940 JUMP JUMPDEST JUMPDEST DUP2 MLOAD PUSH2 0x60E0 DUP5 DUP3 PUSH1 0x20 DUP7 ADD PUSH2 0x6079 JUMP JUMPDEST SWAP2 POP POP SWAP3 SWAP2 POP POP JUMP JUMPDEST PUSH1 0x0 PUSH1 0x20 DUP3 DUP5 SUB SLT ISZERO PUSH2 0x60FF JUMPI PUSH2 0x60FE PUSH2 0x48B1 JUMP JUMPDEST JUMPDEST PUSH1 0x0 DUP3 ADD MLOAD PUSH8 0xFFFFFFFFFFFFFFFF DUP2 GT ISZERO PUSH2 0x611D JUMPI PUSH2 0x611C PUSH2 0x48B6 JUMP JUMPDEST JUMPDEST PUSH2 0x6129 DUP5 DUP3 DUP6 ADD PUSH2 0x60BB JUMP JUMPDEST SWAP2 POP POP SWAP3 SWAP2 POP POP JUMP JUMPDEST PUSH1 0x0 DUP2 SWAP1 POP SWAP3 SWAP2 POP POP JUMP JUMPDEST PUSH32 0x7B226E616D65223A220000000000000000000000000000000000000000000000 PUSH1 0x0 DUP3 ADD MSTORE POP JUMP JUMPDEST PUSH1 0x0 PUSH2 0x6173 PUSH1 0x9 DUP4 PUSH2 0x6132 JUMP JUMPDEST SWAP2 POP PUSH2 0x617E DUP3 PUSH2 0x613D JUMP JUMPDEST PUSH1 0x9 DUP3 ADD SWAP1 POP SWAP2 SWAP1 POP JUMP JUMPDEST PUSH1 0x0 DUP2 SLOAD PUSH2 0x6196 DUP2 PUSH2 0x545A JUMP JUMPDEST PUSH2 0x61A0 DUP2 DUP7 PUSH2 0x6132 JUMP JUMPDEST SWAP5 POP PUSH1 0x1 DUP3 AND PUSH1 0x0 DUP2 EQ PUSH2 0x61BB JUMPI PUSH1 0x1 DUP2 EQ PUSH2 0x61D0 JUMPI PUSH2 0x6203 JUMP JUMPDEST PUSH1 0xFF NOT DUP4 AND DUP7 MSTORE DUP2 ISZERO ISZERO DUP3 MUL DUP7 ADD SWAP4 POP PUSH2 0x6203 JUMP JUMPDEST PUSH2 0x61D9 DUP6 PUSH2 0x548B JUMP JUMPDEST PUSH1 0x0 JUMPDEST DUP4 DUP2 LT ISZERO PUSH2 0x61FB JUMPI DUP2 SLOAD DUP2 DUP10 ADD MSTORE PUSH1 0x1 DUP3 ADD SWAP2 POP PUSH1 0x20 DUP2 ADD SWAP1 POP PUSH2 0x61DC JUMP JUMPDEST DUP4 DUP9 ADD SWAP6 POP POP POP JUMPDEST POP POP POP SWAP3 SWAP2 POP POP JUMP JUMPDEST PUSH32 0x222C000000000000000000000000000000000000000000000000000000000000 PUSH1 0x0 DUP3 ADD MSTORE POP JUMP JUMPDEST PUSH1 0x0 PUSH2 0x6242 PUSH1 0x2 DUP4 PUSH2 0x6132 JUMP JUMPDEST SWAP2 POP PUSH2 0x624D DUP3 PUSH2 0x620C JUMP JUMPDEST PUSH1 0x2 DUP3 ADD SWAP1 POP SWAP2 SWAP1 POP JUMP JUMPDEST PUSH32 0x226465736372697074696F6E223A220000000000000000000000000000000000 PUSH1 0x0 DUP3 ADD MSTORE POP JUMP JUMPDEST PUSH1 0x0 PUSH2 0x628E PUSH1 0xF DUP4 PUSH2 0x6132 JUMP JUMPDEST SWAP2 POP PUSH2 0x6299 DUP3 PUSH2 0x6258 JUMP JUMPDEST PUSH1 0xF DUP3 ADD SWAP1 POP SWAP2 SWAP1 POP JUMP JUMPDEST PUSH32 0x22696D616765223A202200000000000000000000000000000000000000000000 PUSH1 0x0 DUP3 ADD MSTORE POP JUMP JUMPDEST PUSH1 0x0 PUSH2 0x62DA PUSH1 0xA DUP4 PUSH2 0x6132 JUMP JUMPDEST SWAP2 POP PUSH2 0x62E5 DUP3 PUSH2 0x62A4 JUMP JUMPDEST PUSH1 0xA DUP3 ADD SWAP1 POP SWAP2 SWAP1 POP JUMP JUMPDEST PUSH32 0x2261747472696275746573223A5B7B2274726169745F74797065223A22747970 PUSH1 0x0 DUP3 ADD MSTORE PUSH32 0x65222C2276616C7565223A220000000000000000000000000000000000000000 PUSH1 0x20 DUP3 ADD MSTORE POP JUMP JUMPDEST PUSH1 0x0 PUSH2 0x634C PUSH1 0x2C DUP4 PUSH2 0x6132 JUMP JUMPDEST SWAP2 POP PUSH2 0x6357 DUP3 PUSH2 0x62F0 JUMP JUMPDEST PUSH1 0x2C DUP3 ADD SWAP1 POP SWAP2 SWAP1 POP JUMP JUMPDEST PUSH32 0x227D5D0000000000000000000000000000000000000000000000000000000000 PUSH1 0x0 DUP3 ADD MSTORE POP JUMP JUMPDEST PUSH1 0x0 PUSH2 0x6398 PUSH1 0x3 DUP4 PUSH2 0x6132 JUMP JUMPDEST SWAP2 POP PUSH2 0x63A3 DUP3 PUSH2 0x6362 JUMP JUMPDEST PUSH1 0x3 DUP3 ADD SWAP1 POP SWAP2 SWAP1 POP JUMP JUMPDEST PUSH32 0x7D00000000000000000000000000000000000000000000000000000000000000 PUSH1 0x0 DUP3 ADD MSTORE POP JUMP JUMPDEST PUSH1 0x0 PUSH2 0x63E4 PUSH1 0x1 DUP4 PUSH2 0x6132 JUMP JUMPDEST SWAP2 POP PUSH2 0x63EF DUP3 PUSH2 0x63AE JUMP JUMPDEST PUSH1 0x1 DUP3 ADD SWAP1 POP SWAP2 SWAP1 POP JUMP JUMPDEST PUSH1 0x0 PUSH2 0x6405 DUP3 PUSH2 0x6166 JUMP JUMPDEST SWAP2 POP PUSH2 0x6411 DUP3 DUP8 PUSH2 0x6189 JUMP JUMPDEST SWAP2 POP PUSH2 0x641C DUP3 PUSH2 0x6235 JUMP JUMPDEST SWAP2 POP PUSH2 0x6427 DUP3 PUSH2 0x6281 JUMP JUMPDEST SWAP2 POP PUSH2 0x6433 DUP3 DUP7 PUSH2 0x6189 JUMP JUMPDEST SWAP2 POP PUSH2 0x643E DUP3 PUSH2 0x6235 JUMP JUMPDEST SWAP2 POP PUSH2 0x6449 DUP3 PUSH2 0x62CD JUMP JUMPDEST SWAP2 POP PUSH2 0x6455 DUP3 DUP6 PUSH2 0x6189 JUMP JUMPDEST SWAP2 POP PUSH2 0x6460 DUP3 PUSH2 0x6235 JUMP JUMPDEST SWAP2 POP PUSH2 0x646B DUP3 PUSH2 0x633F JUMP JUMPDEST SWAP2 POP PUSH2 0x6477 DUP3 DUP5 PUSH2 0x6189 JUMP JUMPDEST SWAP2 POP PUSH2 0x6482 DUP3 PUSH2 0x638B JUMP JUMPDEST SWAP2 POP PUSH2 0x648D DUP3 PUSH2 0x63D7 JUMP JUMPDEST SWAP2 POP DUP2 SWAP1 POP SWAP6 SWAP5 POP POP POP POP POP JUMP JUMPDEST PUSH32 0x646174613A6170706C69636174696F6E2F6A736F6E3B6261736536342C000000 PUSH1 0x0 DUP3 ADD MSTORE POP JUMP JUMPDEST PUSH1 0x0 PUSH2 0x64D1 PUSH1 0x1D DUP4 PUSH2 0x6132 JUMP JUMPDEST SWAP2 POP PUSH2 0x64DC DUP3 PUSH2 0x649B JUMP JUMPDEST PUSH1 0x1D DUP3 ADD SWAP1 POP SWAP2 SWAP1 POP JUMP JUMPDEST PUSH1 0x0 PUSH2 0x64F2 DUP3 PUSH2 0x47F5 JUMP JUMPDEST PUSH2 0x64FC DUP2 DUP6 PUSH2 0x6132 JUMP JUMPDEST SWAP4 POP PUSH2 0x650C DUP2 DUP6 PUSH1 0x20 DUP7 ADD PUSH2 0x4811 JUMP JUMPDEST DUP1 DUP5 ADD SWAP2 POP POP SWAP3 SWAP2 POP POP JUMP JUMPDEST PUSH1 0x0 PUSH2 0x6523 DUP3 PUSH2 0x64C4 JUMP JUMPDEST SWAP2 POP PUSH2 0x652F DUP3 DUP5 PUSH2 0x64E7 JUMP JUMPDEST SWAP2 POP DUP2 SWAP1 POP SWAP3 SWAP2 POP POP JUMP JUMPDEST PUSH1 0x0 PUSH2 0x6546 DUP3 DUP6 PUSH2 0x64E7 JUMP JUMPDEST SWAP2 POP PUSH2 0x6552 DUP3 DUP5 PUSH2 0x6189 JUMP JUMPDEST SWAP2 POP DUP2 SWAP1 POP SWAP4 SWAP3 POP POP POP JUMP JUMPDEST PUSH32 0x4F776E61626C653A206E6577206F776E657220697320746865207A65726F2061 PUSH1 0x0 DUP3 ADD MSTORE PUSH32 0x6464726573730000000000000000000000000000000000000000000000000000 PUSH1 0x20 DUP3 ADD MSTORE POP JUMP JUMPDEST PUSH1 0x0 PUSH2 0x65BA PUSH1 0x26 DUP4 PUSH2 0x4800 JUMP JUMPDEST SWAP2 POP PUSH2 0x65C5 DUP3 PUSH2 0x655E JUMP JUMPDEST PUSH1 0x40 DUP3 ADD SWAP1 POP SWAP2 SWAP1 POP JUMP JUMPDEST PUSH1 0x0 PUSH1 0x20 DUP3 ADD SWAP1 POP DUP2 DUP2 SUB PUSH1 0x0 DUP4 ADD MSTORE PUSH2 0x65E9 DUP2 PUSH2 0x65AD JUMP JUMPDEST SWAP1 POP SWAP2 SWAP1 POP JUMP JUMPDEST PUSH32 0x4F776E61626C653A2063616C6C6572206973206E6F7420746865206F776E6572 PUSH1 0x0 DUP3 ADD MSTORE POP JUMP JUMPDEST PUSH1 0x0 PUSH2 0x6626 PUSH1 0x20 DUP4 PUSH2 0x4800 JUMP JUMPDEST SWAP2 POP PUSH2 0x6631 DUP3 PUSH2 0x65F0 JUMP JUMPDEST PUSH1 0x20 DUP3 ADD SWAP1 POP SWAP2 SWAP1 POP JUMP JUMPDEST PUSH1 0x0 PUSH1 0x20 DUP3 ADD SWAP1 POP DUP2 DUP2 SUB PUSH1 0x0 DUP4 ADD MSTORE PUSH2 0x6655 DUP2 PUSH2 0x6619 JUMP JUMPDEST SWAP1 POP SWAP2 SWAP1 POP JUMP JUMPDEST PUSH32 0x7472616E736665722069732070726F6869626974656400000000000000000000 PUSH1 0x0 DUP3 ADD MSTORE POP JUMP JUMPDEST PUSH1 0x0 PUSH2 0x6692 PUSH1 0x16 DUP4 PUSH2 0x4800 JUMP JUMPDEST SWAP2 POP PUSH2 0x669D DUP3 PUSH2 0x665C JUMP JUMPDEST PUSH1 0x20 DUP3 ADD SWAP1 POP SWAP2 SWAP1 POP JUMP JUMPDEST PUSH1 0x0 PUSH1 0x20 DUP3 ADD SWAP1 POP DUP2 DUP2 SUB PUSH1 0x0 DUP4 ADD MSTORE PUSH2 0x66C1 DUP2 PUSH2 0x6685 JUMP JUMPDEST SWAP1 POP SWAP2 SWAP1 POP JUMP JUMPDEST PUSH1 0x0 DUP2 MLOAD SWAP1 POP SWAP2 SWAP1 POP JUMP JUMPDEST PUSH1 0x0 DUP3 DUP3 MSTORE PUSH1 0x20 DUP3 ADD SWAP1 POP SWAP3 SWAP2 POP POP JUMP JUMPDEST PUSH1 0x0 PUSH2 0x66EF DUP3 PUSH2 0x66C8 JUMP JUMPDEST PUSH2 0x66F9 DUP2 DUP6 PUSH2 0x66D3 JUMP JUMPDEST SWAP4 POP PUSH2 0x6709 DUP2 DUP6 PUSH1 0x20 DUP7 ADD PUSH2 0x4811 JUMP JUMPDEST PUSH2 0x6712 DUP2 PUSH2 0x483B JUMP JUMPDEST DUP5 ADD SWAP2 POP POP SWAP3 SWAP2 POP POP JUMP JUMPDEST PUSH1 0x0 PUSH1 0x80 DUP3 ADD SWAP1 POP PUSH2 0x6732 PUSH1 0x0 DUP4 ADD DUP8 PUSH2 0x4B53 JUMP JUMPDEST PUSH2 0x673F PUSH1 0x20 DUP4 ADD DUP7 PUSH2 0x4B53 JUMP JUMPDEST PUSH2 0x674C PUSH1 0x40 DUP4 ADD DUP6 PUSH2 0x4BE9 JUMP JUMPDEST DUP2 DUP2 SUB PUSH1 0x60 DUP4 ADD MSTORE PUSH2 0x675E DUP2 DUP5 PUSH2 0x66E4 JUMP JUMPDEST SWAP1 POP SWAP6 SWAP5 POP POP POP POP POP JUMP JUMPDEST PUSH1 0x0 DUP2 MLOAD SWAP1 POP PUSH2 0x6778 DUP2 PUSH2 0x48E7 JUMP JUMPDEST SWAP3 SWAP2 POP POP JUMP JUMPDEST PUSH1 0x0 PUSH1 0x20 DUP3 DUP5 SUB SLT ISZERO PUSH2 0x6794 JUMPI PUSH2 0x6793 PUSH2 0x48B1 JUMP JUMPDEST JUMPDEST PUSH1 0x0 PUSH2 0x67A2 DUP5 DUP3 DUP6 ADD PUSH2 0x6769 JUMP JUMPDEST SWAP2 POP POP SWAP3 SWAP2 POP POP JUMP JUMPDEST PUSH32 0x4E487B7100000000000000000000000000000000000000000000000000000000 PUSH1 0x0 MSTORE PUSH1 0x12 PUSH1 0x4 MSTORE PUSH1 0x24 PUSH1 0x0 REVERT JUMPDEST PUSH1 0x0 PUSH2 0x67E5 DUP3 PUSH2 0x4ABE JUMP JUMPDEST SWAP2 POP PUSH2 0x67F0 DUP4 PUSH2 0x4ABE JUMP JUMPDEST SWAP3 POP DUP3 PUSH2 0x6800 JUMPI PUSH2 0x67FF PUSH2 0x67AB JUMP JUMPDEST JUMPDEST DUP3 DUP3 DIV SWAP1 POP SWAP3 SWAP2 POP POP JUMP JUMPDEST PUSH1 0x0 PUSH2 0x6817 DUP3 DUP6 PUSH2 0x64E7 JUMP JUMPDEST SWAP2 POP PUSH2 0x6823 DUP3 DUP5 PUSH2 0x64E7 JUMP JUMPDEST SWAP2 POP DUP2 SWAP1 POP SWAP4 SWAP3 POP POP POP JUMP JUMPDEST PUSH32 0x416363657373436F6E74726F6C3A206163636F756E7420000000000000000000 PUSH1 0x0 DUP3 ADD MSTORE POP JUMP JUMPDEST PUSH1 0x0 PUSH2 0x6865 PUSH1 0x17 DUP4 PUSH2 0x6132 JUMP JUMPDEST SWAP2 POP PUSH2 0x6870 DUP3 PUSH2 0x682F JUMP JUMPDEST PUSH1 0x17 DUP3 ADD SWAP1 POP SWAP2 SWAP1 POP JUMP JUMPDEST PUSH32 0x206973206D697373696E6720726F6C6520000000000000000000000000000000 PUSH1 0x0 DUP3 ADD MSTORE POP JUMP JUMPDEST PUSH1 0x0 PUSH2 0x68B1 PUSH1 0x11 DUP4 PUSH2 0x6132 JUMP JUMPDEST SWAP2 POP PUSH2 0x68BC DUP3 PUSH2 0x687B JUMP JUMPDEST PUSH1 0x11 DUP3 ADD SWAP1 POP SWAP2 SWAP1 POP JUMP JUMPDEST PUSH1 0x0 PUSH2 0x68D2 DUP3 PUSH2 0x6858 JUMP JUMPDEST SWAP2 POP PUSH2 0x68DE DUP3 DUP6 PUSH2 0x64E7 JUMP JUMPDEST SWAP2 POP PUSH2 0x68E9 DUP3 PUSH2 0x68A4 JUMP JUMPDEST SWAP2 POP PUSH2 0x68F5 DUP3 DUP5 PUSH2 0x64E7 JUMP JUMPDEST SWAP2 POP DUP2 SWAP1 POP SWAP4 SWAP3 POP POP POP JUMP JUMPDEST PUSH1 0x0 PUSH2 0x690C DUP3 PUSH2 0x4ABE JUMP JUMPDEST SWAP2 POP PUSH1 0x0 DUP3 SUB PUSH2 0x691F JUMPI PUSH2 0x691E PUSH2 0x5806 JUMP JUMPDEST JUMPDEST PUSH1 0x1 DUP3 SUB SWAP1 POP SWAP2 SWAP1 POP JUMP JUMPDEST PUSH32 0x537472696E67733A20686578206C656E67746820696E73756666696369656E74 PUSH1 0x0 DUP3 ADD MSTORE POP JUMP JUMPDEST PUSH1 0x0 PUSH2 0x6960 PUSH1 0x20 DUP4 PUSH2 0x4800 JUMP JUMPDEST SWAP2 POP PUSH2 0x696B DUP3 PUSH2 0x692A JUMP JUMPDEST PUSH1 0x20 DUP3 ADD SWAP1 POP SWAP2 SWAP1 POP JUMP JUMPDEST PUSH1 0x0 PUSH1 0x20 DUP3 ADD SWAP1 POP DUP2 DUP2 SUB PUSH1 0x0 DUP4 ADD MSTORE PUSH2 0x698F DUP2 PUSH2 0x6953 JUMP JUMPDEST SWAP1 POP SWAP2 SWAP1 POP JUMP INVALID COINBASE TIMESTAMP NUMBER PREVRANDAO GASLIMIT CHAINID SELFBALANCE BASEFEE 0x49 0x4A 0x4B 0x4C 0x4D 0x4E 0x4F POP MLOAD MSTORE MSTORE8 SLOAD SSTORE JUMP JUMPI PC MSIZE GAS PUSH2 0x6263 PUSH5 0x6566676869 PUSH11 0x6B6C6D6E6F707172737475 PUSH23 0x7778797A303132333435363738392B2FA2646970667358 0x22 SLT KECCAK256 PUSH9 0x134B0A53C7A007B536 0xAE OR 0xBB 0xF7 0xE8 ADD SWAP8 0x23 0x21 0xBB SDIV 0xCB PUSH2 0xF251 PUSH6 0xAA2F3AF0911E PUSH5 0x736F6C6343 STOP ADDMOD SLT STOP CALLER PUSH9 0x747470733A2F2F6461 PUSH21 0x612E7A716E2E7774662F74657265716E2F6D657461 PUSH5 0x6174612F00 "
		},
		"gasEstimates": {
			"creation": {
				"codeDepositCost": "5429600",
				"executionCost": "infinite",
				"totalCost": "infinite"
			},
			"external": {
				"AIRDROP_ROLE()": "442",
				"BURNER_ROLE()": "441",
				"DEFAULT_ADMIN_ROLE()": "469",
				"MINTER_ROLE()": "440",
				"airdropMint(address[],uint256[])": "infinite",
				"allowlistType()": "2496",
				"allowlistUserAmount(uint256,address)": "infinite",
				"approve(address,uint256)": "infinite",
				"balanceOf(address)": "3037",
				"baseExtension()": "infinite",
				"baseURI()": "infinite",
				"burnAndMintMode()": "2591",
				"cost()": "2564",
				"externalBurn(uint256[])": "infinite",
				"externalMint(address,uint256)": "infinite",
				"getAllowlistUserAmount(address)": "5108",
				"getApproved(uint256)": "7390",
				"getRoleAdmin(bytes32)": "infinite",
				"getUserMintedAmount(address)": "5109",
				"getUserMintedAmountBySaleId(uint256,address)": "infinite",
				"grantRole(bytes32,address)": "infinite",
				"hasRole(bytes32,address)": "3252",
				"imageURI()": "infinite",
				"interfaceOfTokenURI()": "infinite",
				"isApprovedForAll(address,address)": "infinite",
				"isSBT()": "2606",
				"maxMintAmountPerTransaction()": "2519",
				"maxSupply()": "2584",
				"merkleRoot()": "2563",
				"metadataAttributes()": "infinite",
				"metadataDescription()": "infinite",
				"metadataTitle()": "infinite",
				"mint(uint256,uint256,bytes32[],uint256)": "infinite",
				"mintCount()": "2589",
				"name()": "infinite",
				"onlyAllowlisted()": "2677",
				"owner()": "2590",
				"ownerOf(uint256)": "infinite",
				"paused()": "2583",
				"publicSaleMaxMintAmountPerAddress()": "2520",
				"renounceOwnership()": "30467",
				"renounceRole(bytes32,address)": "infinite",
				"revokeRole(bytes32,address)": "infinite",
				"safeTransferFrom(address,address,uint256)": "infinite",
				"safeTransferFrom(address,address,uint256,bytes)": "infinite",
				"saleId()": "2585",
				"setAllowListType(uint256)": "24970",
				"setAllowlistMapping(uint256,address[],uint256[])": "infinite",
				"setApprovalForAll(address,bool)": "infinite",
				"setBaseExtension(string)": "infinite",
				"setBaseURI(string)": "infinite",
				"setBurnAndMintMode(bool)": "27148",
				"setCost(uint256)": "24852",
				"setImageURI(string)": "infinite",
				"setInterfaceOfTokenURI(address)": "27143",
				"setIsSBT(bool)": "27097",
				"setMaxMintAmountPerTransaction(uint256)": "24873",
				"setMaxSupply(uint256)": "24917",
				"setMerkleRoot(bytes32)": "24897",
				"setMetadataAttributes(string)": "infinite",
				"setMetadataDescription(string)": "infinite",
				"setMetadataTitle(string)": "infinite",
				"setMintCount(bool)": "27083",
				"setOnlyAllowlisted(bool)": "27062",
				"setPause(bool)": "27055",
				"setPublicSaleMaxMintAmountPerAddress(uint256)": "24917",
				"setSaleId(uint256)": "24873",
				"setUseInterfaceMetadata(bool)": "27081",
				"setUseSingleMetadata(bool)": "27082",
				"supportsInterface(bytes4)": "1056",
				"symbol()": "infinite",
				"tokenURI(uint256)": "infinite",
				"totalSupply()": "4675",
				"transferFrom(address,address,uint256)": "infinite",
				"transferOwnership(address)": "30854",
				"useInterfaceMetadata()": "2589",
				"useSingleMetadata()": "2588",
				"userMintedAmount(uint256,address)": "infinite",
				"withdraw()": "infinite",
				"withdrawAddress()": "535"
			},
			"internal": {
				"_baseURI()": "infinite",
				"_beforeTokenTransfers(address,address,uint256,uint256)": "infinite",
				"_startTokenId()": "23"
			}
		},
		"methodIdentifiers": {
			"AIRDROP_ROLE()": "1e0fbfa2",
			"BURNER_ROLE()": "282c51f3",
			"DEFAULT_ADMIN_ROLE()": "a217fddf",
			"MINTER_ROLE()": "d5391393",
			"airdropMint(address[],uint256[])": "279a669e",
			"allowlistType()": "a72193b6",
			"allowlistUserAmount(uint256,address)": "499a15d4",
			"approve(address,uint256)": "095ea7b3",
			"balanceOf(address)": "70a08231",
			"baseExtension()": "c6682862",
			"baseURI()": "6c0360eb",
			"burnAndMintMode()": "0085bb6f",
			"cost()": "13faede6",
			"externalBurn(uint256[])": "5978c012",
			"externalMint(address,uint256)": "99f98898",
			"getAllowlistUserAmount(address)": "d04f32d2",
			"getApproved(uint256)": "081812fc",
			"getRoleAdmin(bytes32)": "248a9ca3",
			"getUserMintedAmount(address)": "47705cbc",
			"getUserMintedAmountBySaleId(uint256,address)": "3511cd54",
			"grantRole(bytes32,address)": "2f2ff15d",
			"hasRole(bytes32,address)": "91d14854",
			"imageURI()": "135d088d",
			"interfaceOfTokenURI()": "877984cb",
			"isApprovedForAll(address,address)": "e985e9c5",
			"isSBT()": "3cf40df3",
			"maxMintAmountPerTransaction()": "bbb89744",
			"maxSupply()": "d5abeb01",
			"merkleRoot()": "2eb4a7ab",
			"metadataAttributes()": "01340a32",
			"metadataDescription()": "942c9273",
			"metadataTitle()": "aabb9a86",
			"mint(uint256,uint256,bytes32[],uint256)": "6b1a2b7f",
			"mintCount()": "9659867e",
			"name()": "06fdde03",
			"onlyAllowlisted()": "674c02aa",
			"owner()": "8da5cb5b",
			"ownerOf(uint256)": "6352211e",
			"paused()": "5c975abb",
			"publicSaleMaxMintAmountPerAddress()": "73ef64fd",
			"renounceOwnership()": "715018a6",
			"renounceRole(bytes32,address)": "36568abe",
			"revokeRole(bytes32,address)": "d547741f",
			"safeTransferFrom(address,address,uint256)": "42842e0e",
			"safeTransferFrom(address,address,uint256,bytes)": "b88d4fde",
			"saleId()": "c84c0387",
			"setAllowListType(uint256)": "7ee3b2ac",
			"setAllowlistMapping(uint256,address[],uint256[])": "4e6bf204",
			"setApprovalForAll(address,bool)": "a22cb465",
			"setBaseExtension(string)": "da3ef23f",
			"setBaseURI(string)": "55f804b3",
			"setBurnAndMintMode(bool)": "e39e0269",
			"setCost(uint256)": "44a0d68a",
			"setImageURI(string)": "04787ca2",
			"setInterfaceOfTokenURI(address)": "23c03085",
			"setIsSBT(bool)": "fcd1aac9",
			"setMaxMintAmountPerTransaction(uint256)": "a9e2acd5",
			"setMaxSupply(uint256)": "6f8b44b0",
			"setMerkleRoot(bytes32)": "7cb64759",
			"setMetadataAttributes(string)": "ddecc4d0",
			"setMetadataDescription(string)": "599487c3",
			"setMetadataTitle(string)": "981eb344",
			"setMintCount(bool)": "8e73cf00",
			"setOnlyAllowlisted(bool)": "17dc10c4",
			"setPause(bool)": "bedb86fb",
			"setPublicSaleMaxMintAmountPerAddress(uint256)": "b5f94d06",
			"setSaleId(uint256)": "d728312a",
			"setUseInterfaceMetadata(bool)": "f138abfa",
			"setUseSingleMetadata(bool)": "6b8ee0ec",
			"supportsInterface(bytes4)": "01ffc9a7",
			"symbol()": "95d89b41",
			"tokenURI(uint256)": "c87b56dd",
			"totalSupply()": "18160ddd",
			"transferFrom(address,address,uint256)": "23b872dd",
			"transferOwnership(address)": "f2fde38b",
			"useInterfaceMetadata()": "ba6269c6",
			"useSingleMetadata()": "d6dfad76",
			"userMintedAmount(uint256,address)": "f48824db",
			"withdraw()": "3ccfd60b",
			"withdrawAddress()": "1581b600"
		}
	},
	"abi": [
		{
			"inputs": [],
			"stateMutability": "nonpayable",
			"type": "constructor"
		},
		{
			"inputs": [],
			"name": "ApprovalCallerNotOwnerNorApproved",
			"type": "error"
		},
		{
			"inputs": [],
			"name": "ApprovalQueryForNonexistentToken",
			"type": "error"
		},
		{
			"inputs": [],
			"name": "BalanceQueryForZeroAddress",
			"type": "error"
		},
		{
			"inputs": [],
			"name": "MintERC2309QuantityExceedsLimit",
			"type": "error"
		},
		{
			"inputs": [],
			"name": "MintToZeroAddress",
			"type": "error"
		},
		{
			"inputs": [],
			"name": "MintZeroQuantity",
			"type": "error"
		},
		{
			"inputs": [],
			"name": "OwnerQueryForNonexistentToken",
			"type": "error"
		},
		{
			"inputs": [],
			"name": "OwnershipNotInitializedForExtraData",
			"type": "error"
		},
		{
			"inputs": [],
			"name": "TransferCallerNotOwnerNorApproved",
			"type": "error"
		},
		{
			"inputs": [],
			"name": "TransferFromIncorrectOwner",
			"type": "error"
		},
		{
			"inputs": [],
			"name": "TransferToNonERC721ReceiverImplementer",
			"type": "error"
		},
		{
			"inputs": [],
			"name": "TransferToZeroAddress",
			"type": "error"
		},
		{
			"inputs": [],
			"name": "URIQueryForNonexistentToken",
			"type": "error"
		},
		{
			"anonymous": false,
			"inputs": [
				{
					"indexed": true,
					"internalType": "address",
					"name": "owner",
					"type": "address"
				},
				{
					"indexed": true,
					"internalType": "address",
					"name": "approved",
					"type": "address"
				},
				{
					"indexed": true,
					"internalType": "uint256",
					"name": "tokenId",
					"type": "uint256"
				}
			],
			"name": "Approval",
			"type": "event"
		},
		{
			"anonymous": false,
			"inputs": [
				{
					"indexed": true,
					"internalType": "address",
					"name": "owner",
					"type": "address"
				},
				{
					"indexed": true,
					"internalType": "address",
					"name": "operator",
					"type": "address"
				},
				{
					"indexed": false,
					"internalType": "bool",
					"name": "approved",
					"type": "bool"
				}
			],
			"name": "ApprovalForAll",
			"type": "event"
		},
		{
			"anonymous": false,
			"inputs": [
				{
					"indexed": true,
					"internalType": "uint256",
					"name": "fromTokenId",
					"type": "uint256"
				},
				{
					"indexed": false,
					"internalType": "uint256",
					"name": "toTokenId",
					"type": "uint256"
				},
				{
					"indexed": true,
					"internalType": "address",
					"name": "from",
					"type": "address"
				},
				{
					"indexed": true,
					"internalType": "address",
					"name": "to",
					"type": "address"
				}
			],
			"name": "ConsecutiveTransfer",
			"type": "event"
		},
		{
			"anonymous": false,
			"inputs": [
				{
					"indexed": true,
					"internalType": "address",
					"name": "previousOwner",
					"type": "address"
				},
				{
					"indexed": true,
					"internalType": "address",
					"name": "newOwner",
					"type": "address"
				}
			],
			"name": "OwnershipTransferred",
			"type": "event"
		},
		{
			"anonymous": false,
			"inputs": [
				{
					"indexed": true,
					"internalType": "bytes32",
					"name": "role",
					"type": "bytes32"
				},
				{
					"indexed": true,
					"internalType": "bytes32",
					"name": "previousAdminRole",
					"type": "bytes32"
				},
				{
					"indexed": true,
					"internalType": "bytes32",
					"name": "newAdminRole",
					"type": "bytes32"
				}
			],
			"name": "RoleAdminChanged",
			"type": "event"
		},
		{
			"anonymous": false,
			"inputs": [
				{
					"indexed": true,
					"internalType": "bytes32",
					"name": "role",
					"type": "bytes32"
				},
				{
					"indexed": true,
					"internalType": "address",
					"name": "account",
					"type": "address"
				},
				{
					"indexed": true,
					"internalType": "address",
					"name": "sender",
					"type": "address"
				}
			],
			"name": "RoleGranted",
			"type": "event"
		},
		{
			"anonymous": false,
			"inputs": [
				{
					"indexed": true,
					"internalType": "bytes32",
					"name": "role",
					"type": "bytes32"
				},
				{
					"indexed": true,
					"internalType": "address",
					"name": "account",
					"type": "address"
				},
				{
					"indexed": true,
					"internalType": "address",
					"name": "sender",
					"type": "address"
				}
			],
			"name": "RoleRevoked",
			"type": "event"
		},
		{
			"anonymous": false,
			"inputs": [
				{
					"indexed": true,
					"internalType": "address",
					"name": "from",
					"type": "address"
				},
				{
					"indexed": true,
					"internalType": "address",
					"name": "to",
					"type": "address"
				},
				{
					"indexed": true,
					"internalType": "uint256",
					"name": "tokenId",
					"type": "uint256"
				}
			],
			"name": "Transfer",
			"type": "event"
		},
		{
			"inputs": [],
			"name": "AIRDROP_ROLE",
			"outputs": [
				{
					"internalType": "bytes32",
					"name": "",
					"type": "bytes32"
				}
			],
			"stateMutability": "view",
			"type": "function"
		},
		{
			"inputs": [],
			"name": "BURNER_ROLE",
			"outputs": [
				{
					"internalType": "bytes32",
					"name": "",
					"type": "bytes32"
				}
			],
			"stateMutability": "view",
			"type": "function"
		},
		{
			"inputs": [],
			"name": "DEFAULT_ADMIN_ROLE",
			"outputs": [
				{
					"internalType": "bytes32",
					"name": "",
					"type": "bytes32"
				}
			],
			"stateMutability": "view",
			"type": "function"
		},
		{
			"inputs": [],
			"name": "MINTER_ROLE",
			"outputs": [
				{
					"internalType": "bytes32",
					"name": "",
					"type": "bytes32"
				}
			],
			"stateMutability": "view",
			"type": "function"
		},
		{
			"inputs": [
				{
					"internalType": "address[]",
					"name": "_airdropAddresses",
					"type": "address[]"
				},
				{
					"internalType": "uint256[]",
					"name": "_UserMintAmount",
					"type": "uint256[]"
				}
			],
			"name": "airdropMint",
			"outputs": [],
			"stateMutability": "nonpayable",
			"type": "function"
		},
		{
			"inputs": [],
			"name": "allowlistType",
			"outputs": [
				{
					"internalType": "uint256",
					"name": "",
					"type": "uint256"
				}
			],
			"stateMutability": "view",
			"type": "function"
		},
		{
			"inputs": [
				{
					"internalType": "uint256",
					"name": "",
					"type": "uint256"
				},
				{
					"internalType": "address",
					"name": "",
					"type": "address"
				}
			],
			"name": "allowlistUserAmount",
			"outputs": [
				{
					"internalType": "uint256",
					"name": "",
					"type": "uint256"
				}
			],
			"stateMutability": "view",
			"type": "function"
		},
		{
			"inputs": [
				{
					"internalType": "address",
					"name": "to",
					"type": "address"
				},
				{
					"internalType": "uint256",
					"name": "tokenId",
					"type": "uint256"
				}
			],
			"name": "approve",
			"outputs": [],
			"stateMutability": "payable",
			"type": "function"
		},
		{
			"inputs": [
				{
					"internalType": "address",
					"name": "owner",
					"type": "address"
				}
			],
			"name": "balanceOf",
			"outputs": [
				{
					"internalType": "uint256",
					"name": "",
					"type": "uint256"
				}
			],
			"stateMutability": "view",
			"type": "function"
		},
		{
			"inputs": [],
			"name": "baseExtension",
			"outputs": [
				{
					"internalType": "string",
					"name": "",
					"type": "string"
				}
			],
			"stateMutability": "view",
			"type": "function"
		},
		{
			"inputs": [],
			"name": "baseURI",
			"outputs": [
				{
					"internalType": "string",
					"name": "",
					"type": "string"
				}
			],
			"stateMutability": "view",
			"type": "function"
		},
		{
			"inputs": [],
			"name": "burnAndMintMode",
			"outputs": [
				{
					"internalType": "bool",
					"name": "",
					"type": "bool"
				}
			],
			"stateMutability": "view",
			"type": "function"
		},
		{
			"inputs": [],
			"name": "cost",
			"outputs": [
				{
					"internalType": "uint256",
					"name": "",
					"type": "uint256"
				}
			],
			"stateMutability": "view",
			"type": "function"
		},
		{
			"inputs": [
				{
					"internalType": "uint256[]",
					"name": "_burnTokenIds",
					"type": "uint256[]"
				}
			],
			"name": "externalBurn",
			"outputs": [],
			"stateMutability": "nonpayable",
			"type": "function"
		},
		{
			"inputs": [
				{
					"internalType": "address",
					"name": "_address",
					"type": "address"
				},
				{
					"internalType": "uint256",
					"name": "_amount",
					"type": "uint256"
				}
			],
			"name": "externalMint",
			"outputs": [],
			"stateMutability": "payable",
			"type": "function"
		},
		{
			"inputs": [
				{
					"internalType": "address",
					"name": "_address",
					"type": "address"
				}
			],
			"name": "getAllowlistUserAmount",
			"outputs": [
				{
					"internalType": "uint256",
					"name": "",
					"type": "uint256"
				}
			],
			"stateMutability": "view",
			"type": "function"
		},
		{
			"inputs": [
				{
					"internalType": "uint256",
					"name": "tokenId",
					"type": "uint256"
				}
			],
			"name": "getApproved",
			"outputs": [
				{
					"internalType": "address",
					"name": "",
					"type": "address"
				}
			],
			"stateMutability": "view",
			"type": "function"
		},
		{
			"inputs": [
				{
					"internalType": "bytes32",
					"name": "role",
					"type": "bytes32"
				}
			],
			"name": "getRoleAdmin",
			"outputs": [
				{
					"internalType": "bytes32",
					"name": "",
					"type": "bytes32"
				}
			],
			"stateMutability": "view",
			"type": "function"
		},
		{
			"inputs": [
				{
					"internalType": "address",
					"name": "_address",
					"type": "address"
				}
			],
			"name": "getUserMintedAmount",
			"outputs": [
				{
					"internalType": "uint256",
					"name": "",
					"type": "uint256"
				}
			],
			"stateMutability": "view",
			"type": "function"
		},
		{
			"inputs": [
				{
					"internalType": "uint256",
					"name": "_saleId",
					"type": "uint256"
				},
				{
					"internalType": "address",
					"name": "_address",
					"type": "address"
				}
			],
			"name": "getUserMintedAmountBySaleId",
			"outputs": [
				{
					"internalType": "uint256",
					"name": "",
					"type": "uint256"
				}
			],
			"stateMutability": "view",
			"type": "function"
		},
		{
			"inputs": [
				{
					"internalType": "bytes32",
					"name": "role",
					"type": "bytes32"
				},
				{
					"internalType": "address",
					"name": "account",
					"type": "address"
				}
			],
			"name": "grantRole",
			"outputs": [],
			"stateMutability": "nonpayable",
			"type": "function"
		},
		{
			"inputs": [
				{
					"internalType": "bytes32",
					"name": "role",
					"type": "bytes32"
				},
				{
					"internalType": "address",
					"name": "account",
					"type": "address"
				}
			],
			"name": "hasRole",
			"outputs": [
				{
					"internalType": "bool",
					"name": "",
					"type": "bool"
				}
			],
			"stateMutability": "view",
			"type": "function"
		},
		{
			"inputs": [],
			"name": "imageURI",
			"outputs": [
				{
					"internalType": "string",
					"name": "",
					"type": "string"
				}
			],
			"stateMutability": "view",
			"type": "function"
		},
		{
			"inputs": [],
			"name": "interfaceOfTokenURI",
			"outputs": [
				{
					"internalType": "contract iTokenURI",
					"name": "",
					"type": "address"
				}
			],
			"stateMutability": "view",
			"type": "function"
		},
		{
			"inputs": [
				{
					"internalType": "address",
					"name": "owner",
					"type": "address"
				},
				{
					"internalType": "address",
					"name": "operator",
					"type": "address"
				}
			],
			"name": "isApprovedForAll",
			"outputs": [
				{
					"internalType": "bool",
					"name": "",
					"type": "bool"
				}
			],
			"stateMutability": "view",
			"type": "function"
		},
		{
			"inputs": [],
			"name": "isSBT",
			"outputs": [
				{
					"internalType": "bool",
					"name": "",
					"type": "bool"
				}
			],
			"stateMutability": "view",
			"type": "function"
		},
		{
			"inputs": [],
			"name": "maxMintAmountPerTransaction",
			"outputs": [
				{
					"internalType": "uint256",
					"name": "",
					"type": "uint256"
				}
			],
			"stateMutability": "view",
			"type": "function"
		},
		{
			"inputs": [],
			"name": "maxSupply",
			"outputs": [
				{
					"internalType": "uint256",
					"name": "",
					"type": "uint256"
				}
			],
			"stateMutability": "view",
			"type": "function"
		},
		{
			"inputs": [],
			"name": "merkleRoot",
			"outputs": [
				{
					"internalType": "bytes32",
					"name": "",
					"type": "bytes32"
				}
			],
			"stateMutability": "view",
			"type": "function"
		},
		{
			"inputs": [],
			"name": "metadataAttributes",
			"outputs": [
				{
					"internalType": "string",
					"name": "",
					"type": "string"
				}
			],
			"stateMutability": "view",
			"type": "function"
		},
		{
			"inputs": [],
			"name": "metadataDescription",
			"outputs": [
				{
					"internalType": "string",
					"name": "",
					"type": "string"
				}
			],
			"stateMutability": "view",
			"type": "function"
		},
		{
			"inputs": [],
			"name": "metadataTitle",
			"outputs": [
				{
					"internalType": "string",
					"name": "",
					"type": "string"
				}
			],
			"stateMutability": "view",
			"type": "function"
		},
		{
			"inputs": [
				{
					"internalType": "uint256",
					"name": "_mintAmount",
					"type": "uint256"
				},
				{
					"internalType": "uint256",
					"name": "_maxMintAmount",
					"type": "uint256"
				},
				{
					"internalType": "bytes32[]",
					"name": "_merkleProof",
					"type": "bytes32[]"
				},
				{
					"internalType": "uint256",
					"name": "_burnId",
					"type": "uint256"
				}
			],
			"name": "mint",
			"outputs": [],
			"stateMutability": "payable",
			"type": "function"
		},
		{
			"inputs": [],
			"name": "mintCount",
			"outputs": [
				{
					"internalType": "bool",
					"name": "",
					"type": "bool"
				}
			],
			"stateMutability": "view",
			"type": "function"
		},
		{
			"inputs": [],
			"name": "name",
			"outputs": [
				{
					"internalType": "string",
					"name": "",
					"type": "string"
				}
			],
			"stateMutability": "view",
			"type": "function"
		},
		{
			"inputs": [],
			"name": "onlyAllowlisted",
			"outputs": [
				{
					"internalType": "bool",
					"name": "",
					"type": "bool"
				}
			],
			"stateMutability": "view",
			"type": "function"
		},
		{
			"inputs": [],
			"name": "owner",
			"outputs": [
				{
					"internalType": "address",
					"name": "",
					"type": "address"
				}
			],
			"stateMutability": "view",
			"type": "function"
		},
		{
			"inputs": [
				{
					"internalType": "uint256",
					"name": "tokenId",
					"type": "uint256"
				}
			],
			"name": "ownerOf",
			"outputs": [
				{
					"internalType": "address",
					"name": "",
					"type": "address"
				}
			],
			"stateMutability": "view",
			"type": "function"
		},
		{
			"inputs": [],
			"name": "paused",
			"outputs": [
				{
					"internalType": "bool",
					"name": "",
					"type": "bool"
				}
			],
			"stateMutability": "view",
			"type": "function"
		},
		{
			"inputs": [],
			"name": "publicSaleMaxMintAmountPerAddress",
			"outputs": [
				{
					"internalType": "uint256",
					"name": "",
					"type": "uint256"
				}
			],
			"stateMutability": "view",
			"type": "function"
		},
		{
			"inputs": [],
			"name": "renounceOwnership",
			"outputs": [],
			"stateMutability": "nonpayable",
			"type": "function"
		},
		{
			"inputs": [
				{
					"internalType": "bytes32",
					"name": "role",
					"type": "bytes32"
				},
				{
					"internalType": "address",
					"name": "account",
					"type": "address"
				}
			],
			"name": "renounceRole",
			"outputs": [],
			"stateMutability": "nonpayable",
			"type": "function"
		},
		{
			"inputs": [
				{
					"internalType": "bytes32",
					"name": "role",
					"type": "bytes32"
				},
				{
					"internalType": "address",
					"name": "account",
					"type": "address"
				}
			],
			"name": "revokeRole",
			"outputs": [],
			"stateMutability": "nonpayable",
			"type": "function"
		},
		{
			"inputs": [
				{
					"internalType": "address",
					"name": "from",
					"type": "address"
				},
				{
					"internalType": "address",
					"name": "to",
					"type": "address"
				},
				{
					"internalType": "uint256",
					"name": "tokenId",
					"type": "uint256"
				}
			],
			"name": "safeTransferFrom",
			"outputs": [],
			"stateMutability": "payable",
			"type": "function"
		},
		{
			"inputs": [
				{
					"internalType": "address",
					"name": "from",
					"type": "address"
				},
				{
					"internalType": "address",
					"name": "to",
					"type": "address"
				},
				{
					"internalType": "uint256",
					"name": "tokenId",
					"type": "uint256"
				},
				{
					"internalType": "bytes",
					"name": "_data",
					"type": "bytes"
				}
			],
			"name": "safeTransferFrom",
			"outputs": [],
			"stateMutability": "payable",
			"type": "function"
		},
		{
			"inputs": [],
			"name": "saleId",
			"outputs": [
				{
					"internalType": "uint256",
					"name": "",
					"type": "uint256"
				}
			],
			"stateMutability": "view",
			"type": "function"
		},
		{
			"inputs": [
				{
					"internalType": "uint256",
					"name": "_type",
					"type": "uint256"
				}
			],
			"name": "setAllowListType",
			"outputs": [],
			"stateMutability": "nonpayable",
			"type": "function"
		},
		{
			"inputs": [
				{
					"internalType": "uint256",
					"name": "_saleId",
					"type": "uint256"
				},
				{
					"internalType": "address[]",
					"name": "addresses",
					"type": "address[]"
				},
				{
					"internalType": "uint256[]",
					"name": "saleSupplies",
					"type": "uint256[]"
				}
			],
			"name": "setAllowlistMapping",
			"outputs": [],
			"stateMutability": "nonpayable",
			"type": "function"
		},
		{
			"inputs": [
				{
					"internalType": "address",
					"name": "operator",
					"type": "address"
				},
				{
					"internalType": "bool",
					"name": "approved",
					"type": "bool"
				}
			],
			"name": "setApprovalForAll",
			"outputs": [],
			"stateMutability": "nonpayable",
			"type": "function"
		},
		{
			"inputs": [
				{
					"internalType": "string",
					"name": "_newBaseExtension",
					"type": "string"
				}
			],
			"name": "setBaseExtension",
			"outputs": [],
			"stateMutability": "nonpayable",
			"type": "function"
		},
		{
			"inputs": [
				{
					"internalType": "string",
					"name": "_newBaseURI",
					"type": "string"
				}
			],
			"name": "setBaseURI",
			"outputs": [],
			"stateMutability": "nonpayable",
			"type": "function"
		},
		{
			"inputs": [
				{
					"internalType": "bool",
					"name": "_burnAndMintMode",
					"type": "bool"
				}
			],
			"name": "setBurnAndMintMode",
			"outputs": [],
			"stateMutability": "nonpayable",
			"type": "function"
		},
		{
			"inputs": [
				{
					"internalType": "uint256",
					"name": "_newCost",
					"type": "uint256"
				}
			],
			"name": "setCost",
			"outputs": [],
			"stateMutability": "nonpayable",
			"type": "function"
		},
		{
			"inputs": [
				{
					"internalType": "string",
					"name": "_newImageURI",
					"type": "string"
				}
			],
			"name": "setImageURI",
			"outputs": [],
			"stateMutability": "nonpayable",
			"type": "function"
		},
		{
			"inputs": [
				{
					"internalType": "address",
					"name": "_address",
					"type": "address"
				}
			],
			"name": "setInterfaceOfTokenURI",
			"outputs": [],
			"stateMutability": "nonpayable",
			"type": "function"
		},
		{
			"inputs": [
				{
					"internalType": "bool",
					"name": "_state",
					"type": "bool"
				}
			],
			"name": "setIsSBT",
			"outputs": [],
			"stateMutability": "nonpayable",
			"type": "function"
		},
		{
			"inputs": [
				{
					"internalType": "uint256",
					"name": "_maxMintAmountPerTransaction",
					"type": "uint256"
				}
			],
			"name": "setMaxMintAmountPerTransaction",
			"outputs": [],
			"stateMutability": "nonpayable",
			"type": "function"
		},
		{
			"inputs": [
				{
					"internalType": "uint256",
					"name": "_maxSupply",
					"type": "uint256"
				}
			],
			"name": "setMaxSupply",
			"outputs": [],
			"stateMutability": "nonpayable",
			"type": "function"
		},
		{
			"inputs": [
				{
					"internalType": "bytes32",
					"name": "_merkleRoot",
					"type": "bytes32"
				}
			],
			"name": "setMerkleRoot",
			"outputs": [],
			"stateMutability": "nonpayable",
			"type": "function"
		},
		{
			"inputs": [
				{
					"internalType": "string",
					"name": "_metadataAttributes",
					"type": "string"
				}
			],
			"name": "setMetadataAttributes",
			"outputs": [],
			"stateMutability": "nonpayable",
			"type": "function"
		},
		{
			"inputs": [
				{
					"internalType": "string",
					"name": "_metadataDescription",
					"type": "string"
				}
			],
			"name": "setMetadataDescription",
			"outputs": [],
			"stateMutability": "nonpayable",
			"type": "function"
		},
		{
			"inputs": [
				{
					"internalType": "string",
					"name": "_metadataTitle",
					"type": "string"
				}
			],
			"name": "setMetadataTitle",
			"outputs": [],
			"stateMutability": "nonpayable",
			"type": "function"
		},
		{
			"inputs": [
				{
					"internalType": "bool",
					"name": "_state",
					"type": "bool"
				}
			],
			"name": "setMintCount",
			"outputs": [],
			"stateMutability": "nonpayable",
			"type": "function"
		},
		{
			"inputs": [
				{
					"internalType": "bool",
					"name": "_state",
					"type": "bool"
				}
			],
			"name": "setOnlyAllowlisted",
			"outputs": [],
			"stateMutability": "nonpayable",
			"type": "function"
		},
		{
			"inputs": [
				{
					"internalType": "bool",
					"name": "_state",
					"type": "bool"
				}
			],
			"name": "setPause",
			"outputs": [],
			"stateMutability": "nonpayable",
			"type": "function"
		},
		{
			"inputs": [
				{
					"internalType": "uint256",
					"name": "_publicSaleMaxMintAmountPerAddress",
					"type": "uint256"
				}
			],
			"name": "setPublicSaleMaxMintAmountPerAddress",
			"outputs": [],
			"stateMutability": "nonpayable",
			"type": "function"
		},
		{
			"inputs": [
				{
					"internalType": "uint256",
					"name": "_saleId",
					"type": "uint256"
				}
			],
			"name": "setSaleId",
			"outputs": [],
			"stateMutability": "nonpayable",
			"type": "function"
		},
		{
			"inputs": [
				{
					"internalType": "bool",
					"name": "_useInterfaceMetadata",
					"type": "bool"
				}
			],
			"name": "setUseInterfaceMetadata",
			"outputs": [],
			"stateMutability": "nonpayable",
			"type": "function"
		},
		{
			"inputs": [
				{
					"internalType": "bool",
					"name": "_useSingleMetadata",
					"type": "bool"
				}
			],
			"name": "setUseSingleMetadata",
			"outputs": [],
			"stateMutability": "nonpayable",
			"type": "function"
		},
		{
			"inputs": [
				{
					"internalType": "bytes4",
					"name": "interfaceId",
					"type": "bytes4"
				}
			],
			"name": "supportsInterface",
			"outputs": [
				{
					"internalType": "bool",
					"name": "",
					"type": "bool"
				}
			],
			"stateMutability": "view",
			"type": "function"
		},
		{
			"inputs": [],
			"name": "symbol",
			"outputs": [
				{
					"internalType": "string",
					"name": "",
					"type": "string"
				}
			],
			"stateMutability": "view",
			"type": "function"
		},
		{
			"inputs": [
				{
					"internalType": "uint256",
					"name": "tokenId",
					"type": "uint256"
				}
			],
			"name": "tokenURI",
			"outputs": [
				{
					"internalType": "string",
					"name": "",
					"type": "string"
				}
			],
			"stateMutability": "view",
			"type": "function"
		},
		{
			"inputs": [],
			"name": "totalSupply",
			"outputs": [
				{
					"internalType": "uint256",
					"name": "",
					"type": "uint256"
				}
			],
			"stateMutability": "view",
			"type": "function"
		},
		{
			"inputs": [
				{
					"internalType": "address",
					"name": "from",
					"type": "address"
				},
				{
					"internalType": "address",
					"name": "to",
					"type": "address"
				},
				{
					"internalType": "uint256",
					"name": "tokenId",
					"type": "uint256"
				}
			],
			"name": "transferFrom",
			"outputs": [],
			"stateMutability": "payable",
			"type": "function"
		},
		{
			"inputs": [
				{
					"internalType": "address",
					"name": "newOwner",
					"type": "address"
				}
			],
			"name": "transferOwnership",
			"outputs": [],
			"stateMutability": "nonpayable",
			"type": "function"
		},
		{
			"inputs": [],
			"name": "useInterfaceMetadata",
			"outputs": [
				{
					"internalType": "bool",
					"name": "",
					"type": "bool"
				}
			],
			"stateMutability": "view",
			"type": "function"
		},
		{
			"inputs": [],
			"name": "useSingleMetadata",
			"outputs": [
				{
					"internalType": "bool",
					"name": "",
					"type": "bool"
				}
			],
			"stateMutability": "view",
			"type": "function"
		},
		{
			"inputs": [
				{
					"internalType": "uint256",
					"name": "",
					"type": "uint256"
				},
				{
					"internalType": "address",
					"name": "",
					"type": "address"
				}
			],
			"name": "userMintedAmount",
			"outputs": [
				{
					"internalType": "uint256",
					"name": "",
					"type": "uint256"
				}
			],
			"stateMutability": "view",
			"type": "function"
		},
		{
			"inputs": [],
			"name": "withdraw",
			"outputs": [],
			"stateMutability": "payable",
			"type": "function"
		},
		{
			"inputs": [],
			"name": "withdrawAddress",
			"outputs": [
				{
					"internalType": "address",
					"name": "",
					"type": "address"
				}
			],
			"stateMutability": "view",
			"type": "function"
		}
	]
}